:020000040800F2
:10000000000001209D2D0008E52D0008E52D0008C9
:10001000E52D0008E52D0008E52D00080000000092
:10002000000000000000000000000000E52D0008B6
:10003000E52D000800000000E52D0008012F000854
:10004000E52D0008E52D0008E52D0008E52D000848
:10005000E52D0008E52D0008E52D0008E52D000838
:10006000E52D0008E52D0008E52D0008E52D000828
:10007000E52D0008E52D0008E52D0008E52D000818
:10008000E52D0008E52D0008E52D0008E52D000808
:10009000E52D0008E52D0008E52D0008112F0008CA
:1000A000E52D0008E52D0008E52D0008E52D0008E8
:1000B000E52D0008E52D0008E52D0008E52D0008D8
:1000C000E52D0008E52D0008E52D0008E52D0008C8
:1000D000E52D0008E52D0008E52D0008E52D0008B8
:1000E000E52D0008E52D0008E52D000800000000C2
:1000F0000000000000000000000000000000000000
:100100000000000000000000E52D0008E52D0008BB
:10011000E52D0008E52D0008E52D0008E52D000877
:10012000E52D0008E52D0008E52D0008E52D000867
:10013000E52D0008E52D0008E52D0008E52D000857
:10014000E52D0008E52D0008E52D0008E52D000847
:10015000000000000000000000000000000000009F
:10016000000000000000000000000000000000008F
:10017000000000000000000000000000000000007F
:10018000000000000000000000000000000000006F
:10019000000000000000000000000000000000005F
:1001A000000000000000000000000000000000004F
:1001B000000000000000000000000000000000003F
:1001C000000000000000000000000000000000002F
:1001D000000000000000000000000000000000001F
:0401E0005FF8E0F1F3
:1001E40010B5054C237833B9044B13B10448AFF36D
:1001F40000800123237010BD800400200000000053
:10020400DC3D0008084B10B51BB108490848AFF3A2
:1002140000800848036803B910BD074B002BFBD0CE
:10022400BDE81040184700BF00000000840400200F
:10023400DC3D00087C0400200000000081F0004147
:1002440002E000BF83F0004330B54FEA41044FEAB7
:10025400430594EA050F08BF90EA020F1FBF54EA52
:10026400000C55EA020C7FEA645C7FEA655C00F0EE
:10027400E2804FEA5454D4EB5555B8BF6D420CDDBF
:100284002C4480EA020281EA030382EA000083EA42
:10029400010180EA020281EA0303362D88BF30BDE2
:1002A40011F0004F4FEA01314FF4801C4CEA113138
:1002B40002D0404261EB410113F0004F4FEA033397
:1002C4004CEA133302D0524263EB430394EA050F22
:1002D40000F0A780A4F10104D5F1200E0DDB02FA91
:1002E4000EFC22FA05F2801841F1000103FA0EF225
:1002F400801843FA05F359410EE0A5F120050EF1EB
:10030400200E012A03FA0EFC28BF4CF0020C43FA1B
:1003140005F3C01851EBE37101F0004507D54FF028
:10032400000EDCF1000C7EEB00006EEB0101B1F578
:10033400801F1BD3B1F5001F0CD349085FEA3000BE
:100344004FEA3C0C04F101044FEA445212F5800FC9
:1003540080F09A80BCF1004F08BF5FEA500C50F166
:10036400000041EB045141EA050130BD5FEA4C0C49
:10037400404141EB010111F4801FA4F10104E9D1D2
:1003840091F0000F04BF01460020B1FA81F308BFC9
:100394002033A3F10B03B3F120020CDA0C3208DD95
:1003A40002F1140CC2F10C0201FA0CF021FA02F170
:1003B4000CE002F11402D8BFC2F1200C01FA02F1E0
:1003C40020FA0CFCDCBF41EA0C019040E41AA2BF05
:1003D40001EB0451294330BD6FEA04041F3C1CDACD
:1003E4000C340EDC04F11404C4F1200220FA04F0ED
:1003F40001FA02F340EA030021FA04F345EA030197
:1004040030BDC4F10C04C4F1200220FA02F001FA58
:1004140004F340EA0300294630BD21FA04F02946DA
:1004240030BD94F0000F83F4801306BF81F4801173
:100434000134013D4EE77FEA645C18BF7FEA655CE6
:1004440029D094EA050F08BF90EA020F05D054EAB8
:10045400000C04BF1946104630BD91EA030F1EBFBD
:100464000021002030BD5FEA545C05D140004941C1
:1004740028BF41F0004130BD14F580043CBF01F5B4
:10048400801130BD01F0004545F0FE4141F470019A
:100494004FF0000030BD7FEA645C1ABF1946104675
:1004A4007FEA655C1CBF0B46024650EA013406BF76
:1004B40052EA033591EA030F41F4002130BD00BF35
:1004C40090F0000F04BF0021704730B54FF48064F2
:1004D40004F132044FF000054FF0000150E700BF73
:1004E40090F0000F04BF0021704730B54FF48064D2
:1004F40004F1320410F0004548BF40424FF00001BF
:100504003EE700BF42004FEAE2014FEA31014FEA01
:1005140002701FBF12F07F4393F07F4F81F0605150
:10052400704792F0000F14BF93F07F4F704730B5BF
:100534004FF4607401F0004521F0004120E700BF52
:1005440050EA010208BF704730B54FF000050AE0D9
:1005540050EA010208BF704730B511F0004502D5DA
:10056400404261EB41014FF4806404F132045FEADC
:10057400915C3FF4DCAE4FF003025FEADC0C18BF81
:1005840003325FEADC0C18BF033202EBDC02C2F177
:10059400200300FA03FC20FA02F001FA03FE40EA09
:1005A4000E0021FA02F11444C1E600BF4FEA4102F1
:1005B400B2F1E04324BFB3F5001CDCF1FE5C0DD9BD
:1005C40001F0004C4FEAC0024CEA5070B2F1004F07
:1005D40040EB830008BF20F00100704711F0804F0A
:1005E40021D113F13872BCBF01F00040704741F4CF
:1005F40080114FEA5252C2F11802C2F1200C10FAD3
:100604000CF320FA02F018BF40F001004FEAC123B6
:100614004FEAD32303FA0CFC40EA0C0023FA02F35A
:100624004FEA4303CCE77FEA625307D150EA013330
:100634001EBF4FF0FE4040F44000704701F0004000
:1006440040F0FE4040F40000704700BF80F00040DE
:1006540002E000BF81F0004142001FBF5FEA410396
:1006640092EA030F7FEA226C7FEA236C6AD04FEA96
:100674001262D2EB1363C1BFD218414048404140DB
:10068400B8BF5B42192B88BF704710F0004F40F48D
:10069400000020F07F4018BF404211F0004F41F4A9
:1006A400000121F07F4118BF494292EA030F3FD075
:1006B400A2F1010241FA03FC10EB0C00C3F1200388
:1006C40001FA03F100F0004302D5494260EB400017
:1006D400B0F5000F13D3B0F1807F06D340084FEA82
:1006E400310102F10102FE2A51D2B1F1004F40EB77
:1006F400C25008BF20F0010040EA030070474900DF
:1007040040EB000010F4000FA2F10102EDD1B0FAA9
:1007140080FCACF1080CB2EB0C0200FA0CF0AABF9E
:1007240000EBC25052421843BCBFD040184370473C
:1007340092F0000F81F4000106BF80F40000013242
:10074400013BB5E74FEA41037FEA226C18BF7FEA19
:10075400236C21D092EA030F04D092F0000F08BF5B
:100764000846704790EA010F1CBF0020704712F042
:100774007F4F04D1400028BF40F00040704712F181
:1007840000723CBF00F50000704700F0004343F0E6
:10079400FE4040F4000070477FEA226216BF08461C
:1007A4007FEA23630146420206BF5FEA412390EADF
:1007B400010F40F4800070474FF0000304E000BFD5
:1007C40010F0004348BF40425FEA000C08BF704786
:1007D40043F0964301464FF000001CE050EA01024A
:1007E40008BF70474FF000030AE000BF50EA01025F
:1007F40008BF704711F0004302D5404261EB41014C
:100804005FEA010C02BF84460146002043F0B64370
:1008140008BFA3F18053A3F50003BCFA8CF2083A95
:10082400A3EBC25310DB01FA02FC634400FA02FC9E
:10083400C2F12002BCF1004F20FA02F243EB0200A5
:1008440008BF20F00100704702F1200201FA02FC07
:10085400C2F1200250EA4C0021FA02F243EB0200FA
:1008640008BF20EADC7070474FF0FF0C1CEAD0523E
:100874001EBF1CEAD15392EA0C0F93EA0C0F6FD0FF
:100884001A4480EA010C400218BF5FEA41211ED0DD
:100894004FF0006343EA501043EA5111A0FB0131C9
:1008A4000CF00040B1F5000F3EBF490041EAD3719E
:1008B4005B0040EA010062F17F02FD2A1DD8B3F11A
:1008C400004F40EBC25008BF20F00100704790F089
:1008D400000F0CF0004C08BF49024CEA502040EADB
:1008E40051207F3AC2BFD2F1FF0340EAC2507047A1
:1008F40040F400004FF00003013A5DDC12F1190FDF
:10090400DCBF00F000407047C2F10002410021FA50
:1009140002F1C2F1200200FA02FC5FEA310040F168
:10092400000053EA4C0308BF20EADC70704792F0E1
:10093400000F00F0004C02BF400010F4000F013A19
:10094400F9D040EA0C0093F0000F01F0004C02BF14
:10095400490011F4000F013BF9D041EA0C018FE783
:100964000CEAD15392EA0C0F18BF93EA0C0F0AD089
:1009740030F0004C18BF31F0004CD8D180EA0100AF
:1009840000F00040704790F0000F17BF90F0004F48
:10099400084691F0000F91F0004F14D092EA0C0F2A
:1009A40001D142020FD193EA0C0F03D14B0218BFBD
:1009B400084608D180EA010000F0004040F0FE4003
:1009C40040F40000704740F0FE4040F4400070479F
:1009D4004FF0FF0C1CEAD0521EBF1CEAD15392EA1E
:1009E4000C0F93EA0C0F69D0A2EB030280EA010C0E
:1009F40049024FEA402037D04FF0805343EA1111A7
:100A040043EA10130CF000408B4238BF5B0042F104
:100A14007D024FF4000C8B4224BF5B1A40EA0C00A9
:100A2400B3EB510F24BFA3EB510340EA5C00B3EBDB
:100A3400910F24BFA3EB910340EA9C00B3EBD10FC9
:100A440024BFA3EBD10340EADC001B0118BF5FEA1B
:100A54001C1CE0D1FD2A3FF650AF8B4240EBC25044
:100A640008BF20F0010070470CF0004C4CEA502005
:100A74007F32C2BFD2F1FF0340EAC250704740F454
:100A840000004FF00003013A37E792F0000F00F046
:100A9400004C02BF400010F4000F013AF9D040EAC4
:100AA4000C0093F0000F01F0004C02BF490011F458
:100AB400000F013BF9D041EA0C0195E70CEAD15350
:100AC40092EA0C0F08D142027FF47DAF93EA0C0F37
:100AD4007FF470AF084676E793EA0C0F04D14B021B
:100AE4003FF44CAF08466EE730F0004C18BF31F0CD
:100AF400004CCAD130F000427FF45CAF31F00043C7
:100B04007FF43CAF5FE700BF4FF0FF3C06E000BF5F
:100B14004FF0010C02E000BF4FF0010C4DF804CD82
:100B24004FEA40024FEA41037FEA226C18BF7FEA92
:100B3400236C11D001B052EA530C18BF90EA010F94
:100B440058BFB2EB030088BFC81738BF6FEAE17023
:100B540018BF40F0010070477FEA226C02D15FEABF
:100B6400402C05D17FEA236CE4D15FEA412CE1D02B
:100B74005DF8040B704700BF844608466146FFE7F2
:100B84000FB5FFF7C9FF002848BF10F1000F0FBDD4
:100B94004DF808EDFFF7F4FF0CBF012000205DF8CD
:100BA40008FB00BF4DF808EDFFF7EAFF34BF012052
:100BB40000205DF808FB00BF4DF808EDFFF7E0FFEB
:100BC40094BF012000205DF808FB00BF4DF808ED3C
:100BD400FFF7D2FF94BF012000205DF808FB00BF9F
:100BE4004DF808EDFFF7C8FF34BF012000205DF881
:100BF40008FB00BF4FEA40024FEA41037FEA226C40
:100C040002D15FEA402C08D17FEA236C02D15FEA6B
:100C1400412C02D14FF0000070474FF001007047A3
:100C24004FEA4002B2F1FE4F0FD34FF09E03B3EBF5
:100C340012620DD94FEA002343F0004310F0004F35
:100C440023FA02F018BF404270474FF0000070478B
:100C540012F1610F01D1420205D110F0004008BF2A
:100C64006FF0004070474FF0000070477BB972B9D5
:100C74000029BEBF00204FF0004106E008BF002855
:100C84001CBF6FF000414FF0FF3000F0B5B9ADF17B
:100C9400080C6DE904CE002909DB002B1ADB00F0F7
:100CA40035F8DDF804E0DDE9022304B07047404282
:100CB40061EB4101002B1BDB00F028F8DDF804E0B8
:100CC400DDE9022304B0404261EB4101524263EB8F
:100CD40043037047524263EB430300F017F8DDF817
:100CE40004E0DDE9022304B0404261EB41017047B6
:100CF400524263EB430300F009F8DDF804E0DDE958
:100D0400022304B0524263EB430370472DE9F04FD2
:100D14008C460C460546099E002B4FD18A42174645
:100D24006BD9B2FA82FEBEF1000F0BD0CEF12005D2
:100D340020FA05F501FA0EF345EA030C02FA0EF760
:100D440000FA0EF5390CBCFBF1F0BAB201FB10C38A
:100D540000FB02F84FEA154C4CEA0344A04509D9BC
:100D6400E41900F1FF3380F02881A04540F2258189
:100D740002383C44C8EB0404B4FBF1F301FB134C0C
:100D840003FB02F2ACB244EA0C418A4209D9C91904
:100D940003F1FF3480F00F818A4240F20C81023B60
:100DA40039448A1A43EA00400021002E63D022FA13
:100DB4000EF2002386E80C00BDE8F08F8B4207D9C1
:100DC400002E56D0002186E811000846BDE8F08FB9
:100DD400B3FA83F1002940F09380A34202D3824204
:100DE40000F2FE80851A64EB03039C460120002E6A
:100DF40041D086E82010BDE8F08F12B90127B7FB77
:100E0400F2F7B7FA87FEBEF1000F36D1E41B4FEAC2
:100E140017481FFA87F90121B4FBF8F308FB1344C0
:100E240009FB03F24FEA154C4CEA0444A24207D9E9
:100E3400E41903F1FF3002D2A24200F2D380034648
:100E4400A41AB4FBF8F008FB104809FB00F9ACB293
:100E540044EA0842914507D9D21900F1FF3402D27D
:100E6400914500F2BA802046C9EB020240EA0340F1
:100E74009BE731463046BDE8F08F07FA0EF7CEF116
:100E8400200C24FA0CF34FEA1748B3FBF8FA1FFAC4
:100E940087F908FB1A3520FA0CFC04FA0EF40AFB55
:100EA40009FB4CEA040C4FEA1C4242EA05439B4509
:100EB40000FA0EF50AD9DB190AF1FF3280F08B80B3
:100EC4009B4540F28880AAF1020A3B44CBEB030322
:100ED400B3FBF8F008FB103300FB09F41FFA8CFC99
:100EE4004CEA03439C4207D9DB1900F1FF326ED26E
:100EF4009C426CD902383B441C1B40EA0A418BE7F4
:100F0400C1F1200E8B4022FA0EFC4CEA030C24FAA9
:100F14000EF74FEA1C49B7FBF9FA1FFA8CF309FBE9
:100F24001A7720FA0EF88C400AFB03F548EA040409
:100F34004FEA144848EA0747BD4202FA01F200FAB0
:100F440001FB09D917EB0C070AF1FF3041D2BD426E
:100F54003FD9AAF1020A67447F1BB7FBF9F509FBE5
:100F6400157705FB03F3A4B244EA0747BB4208D94B
:100F740017EB0C0705F1FF3027D2BB4225D9023D00
:100F8400674445EA0A40A0FB0289FF1A4F454546DB
:100F94004C4614D329D066B3BBEB050367EB0407B7
:100FA40007FA0EFECB40CF404EEA030386E88800E2
:100FB4000021BDE8F08F2346F3E61846DAE6B8EBE5
:100FC400020569EB0C040138E5E70546D9E710464C
:100FD40092E78246C0E7924678E702383A4443E70C
:100FE400084604E7023B3C442AE7C345E7D33C46B2
:100FF400D1E73146BDE8F08F704700BF70B50F4EA2
:101004000F4D761BB61018BF002405D0013455F8D7
:10101400043B9847A642F9D10A4E0B4D02F0DCFE80
:10102400761BB61018BF002406D0013455F8043BD3
:101034009847A642F9D170BD70BD00BFFC3D0008C1
:10104400FC3D0008043E0008FC3D000870B4840721
:1010540046D0541E002A41D0CDB2034602E0621E9F
:10106400E4B3144603F8015B9A07F8D1032C2ED994
:10107400CDB245EA05250F2C45EA054519D9264682
:1010840003F11002103E0F2E42F8105C42F80C5C83
:1010940042F8085C42F8045C02F11002F2D8A4F1B0
:1010A400100222F00F0204F00F041032032C134438
:1010B4000DD91E462246043A032A46F8045BFAD8A0
:1010C400221F22F003020432134404F003042CB15F
:1010D400C9B21C4403F8011BA342FBD170BC704786
:1010E40014460346C2E700BF024B13B1024800F0A6
:1010F40005B87047000000000D11000800230146E8
:101104001A46184600F014B838B5074D074C2C1B86
:10111400A41005D0013C55F8043D9847002CF9D1A2
:10112400BDE8384002F05EBE083E0008043E0008F8
:101134002DE9F047254C064625688846D5F84841F0
:1011440092469946C4B360681F2817DC411C76B1E7
:1011540004EB8003C3F888A0D4F8885101228240AC
:101164001543022EC4F88851C3F808911ED0831C7D
:101174006160002044F82380BDE8F087144B03B37A
:101184004FF4C870AFF300800446D0B1D5F84831AD
:10119400002784E888003846C5F848410121C4F88E
:1011A4008871C4F88C71002EE1D0D1E7D4F88C3169
:1011B4001A43C4F88C21DAE705F5A674C5F848414A
:1011C400C1E74FF0FF30BDE8F08700BFA83C00083E
:1011D4000000000082B0484B1A6842F001021A6015
:1011E4005968464A0A405A601A6822F0847222F406
:1011F40080321A601A6822F480221A605A6822F433
:10120400FE025A601A6822F0A0521A604FF47F025C
:101214009A600022DA62009201921A6842F48032E3
:101224001A601A46136803F400330193009B0133D8
:101234000093019B1BB9009BB3F5A06FF2D12E4B19
:101244001B6813F4003F14BF012300230193019B87
:10125400012B4AD12A4B1A6842F010021A601A680C
:1012640022F003021A601A6842F002021A60A3F51F
:1012740080535A685A605A685A605A6842F48062C5
:101284005A60D96A1F4A0A40DA62DA6A42F483323F
:1012940042F04402DA621A6842F080621A601A4626
:1012A400136813F0006FFBD0134B5A6822F47C12BE
:1012B4005A605A6842F4E8125A601A6842F080721E
:1012C4001A601A46136813F0007FFBD00A4B5A6861
:1012D40022F003025A605A6842F002025A601A4627
:1012E400536803F00C03082BFAD14FF00062064B4D
:1012F4009A6002B0704700BF001002400000FFF087
:101304000020024000F0FEFF00ED00E010B582B0C6
:1013140029B960F07F008DF80400012012E00C462A
:1013240060F03F008DF804007F2903D88DF8051084
:10133400022007E061F07F018DF80510E4098DF8C3
:101344000640032001A900F04BFD02B010BD00BF10
:101354001318B3F5806F09DC10B514460B46821ED2
:1013640021460920FFF7D2FF002010BD4FF0FF30C7
:10137400704700BF10B582B019B98DF80400012080
:1013840012E00C4640F040008DF804007F2903D899
:101394008DF80510022007E061F07F018DF805103B
:1013A400E4098DF80640032001A900F051FD02B0C4
:1013B40010BD00BF10B5144603460A46214611204D
:1013C400FFF7D8FF10BD00BF08B503460522002172
:1013D4001520FFF7CFFF08BD08B5034605220021FD
:1013E4000620FFF7C7FF08BD10B582B001AC234645
:1013F400042289B280B2FFF7BDFF02AA234600206F
:1014040012F8011D01EB00209A42F9D102B010BD7F
:1014140008B500210846FFF7E7FF08BD00B583B013
:1014240001AB022289B280B2FFF7A4FF9DF8050048
:101434009DF8043003EB002080B203B05DF804FB98
:1014440000B583B00DF10703012289B280B2FFF722
:1014540091FF9DF8070003B05DF804FB00B583B06D
:1014640002AB03F8012D012289B280B2FFF74EFFCF
:1014740003B05DF804FB00BF00B583B08DF8042011
:10148400120A8DF8052001AB022289B280B2FFF75F
:101494003DFF03B05DF804FB08B5024641F60401C4
:1014A4002E20FFF7E9FF08BD08B5024600211820E9
:1014B400FFF7E2FF08BD00BF00B583B08DF804203C
:1014C400130A8DF80530130C8DF80630120E8DF8C2
:1014D400072001AB042289B280B2FFF717FF03B0E3
:1014E4005DF804FB08B5064BDB6843EAC2320243ED
:1014F40042EA815200210820FFF7DEFF08BD00BF49
:101504009C04002008B582B204212D20FFF7B4FF0B
:10151400032206212D20FFF7A1FF002206212D2002
:10152400FFF79CFF0A212D20FFF75EFF08BD00BFD7
:1015340008B5002202212C20FFF790FF0222114659
:101544002C20FFF78BFF08BD10B504466D2240F632
:1015540006012E20FFF782FF3CB140F2076241F6FC
:1015640006012E20FFF788FF10BD41F2076241F605
:1015740006012E20FFF780FF10BD00BF2DE9F041CA
:10158400044605784279724B33F812804678013E5E
:10159400F6B2042D04D0072D14BF0027012700E064
:1015A4000127E3793BB96B4A536943F480035361E0
:1015B4004FEAD80804E0674A536923F4800353616F
:1015C400237A64490B724A6922F440334B61227ACC
:1015D400120402F440321A434A6100210420FFF746
:1015E4006BFF424642F604012E20FFF745FF3046CA
:1015F400FFF7AAFF584B13F80580584B53F82820DF
:1016040007212B20FFF758FF554B13F808200B2117
:101614002B20FFF723FFFFB2524BDA5D0B2128206A
:10162400FFF71CFF504B53F828200C212820FFF70C
:1016340043FFE279A37903EB42034C4A32F81320C7
:1016440002212720FFF718FF494B33F81620042105
:101654002720FFF711FFE3792BB964220621272005
:10166400FFF70AFF17E0A378042B0AD11022062102
:101674002720FFF701FF102226212720FFF7EEFE87
:1016840009E0202206212720FFF7F6FE2822262142
:101694002720FFF7E3FEE37803EB8603354A52F88D
:1016A400232008212720FFF707FF638913B941F29C
:1016B40041036381628920212720FFF7DDFE2E4F3D
:1016C4003A680C212320FFF7F7FE07EB4606B288A1
:1016D40004212320FFF7D0FEA3794BB1E379274AF5
:1016E400D25C00212120FFF7B9FE0122032101E091
:1016F40000221146607905F00F0343EAC0632D010F
:10170400EDB21D4363789B0403F440231D43237906
:101714009B0503F0F8631D4345EA015545EA42423F
:1017240000211F20FFF7C8FEA27863781A43E379EB
:101734005B0343EA0242074BDA6000210820FFF70B
:10174400BBFE422200210D20FFF788FEBDE8F08198
:101754009C3D00089C0400205C3D00082C3D0008D2
:10176400543D0008D03D0008843D0008203D000899
:10177400443D0008643D0008483D0008503D000811
:1017840010B5044600210420FFF72EFE24B120F4F6
:101794008020074B586103E040F48020044B5861DB
:1017A400034B5A6900210420FFF786FE10BD00BFD9
:1017B4009C04002010B4034CA062E16222636363C2
:1017C40010BC70479C04002010B510F0010F1AD013
:1017D400044600212620FFF707FE20F4705242F44D
:1017E400A05200212620FFF767FE00213620FFF7D4
:1017F400FBFD40F4040200213620FFF75DFE14F0E7
:10180400020F12D10AE000212620FFF7EDFD20F49B
:10181400705200212620FFF74FFE10BD4FF488724E
:1018240028213620FFF748FE10BD064A282136201D
:10183400FFF742FE4FF4887228213620FFF73CFE62
:1018440010BD00BF10010F0010B582B0044601ABFB
:10185400022200213620FFF78DFD0E2C5ED8DFE832
:1018640004F012081B5D5D5D5D24335D5D40474EF1
:10187400570000238DF804309DF8053023F0010350
:101884008DF805304AE09DF8043023F0030343F05B
:1018940001038DF8043041E09DF8043023F0030384
:1018A40043F002038DF8043038E09DF8043023F04F
:1018B4004C0343F048038DF804309DF8053063F081
:1018C4007F038DF8053029E09DF8043023F04C03A4
:1018D4008DF804309DF8053003F07F038DF8053052
:1018E4001CE09DF8053043F002038DF8053015E047
:1018F4009DF8053023F002038DF805300EE09DF8C5
:10190400043023F0300343F020038DF8043005E065
:1019140001238DF8043003238DF8053001AB012237
:1019240000213620FFF7F2FC0DF1050301221146D8
:101934003620FFF7EBFC02B010BD00BF08B50E2047
:10194400FFF782FF4FF4004206212D20FFF794FD9C
:10195400012001F0B9FA0120FFF776FF08BD00BFAE
:1019640008B50020FFF770FF002204213620FFF79E
:1019740083FD08BD08B5024601210A20FFF79CFD3E
:1019840008BD00BF10B5044610F0020F09D0802234
:1019940000210D20FFF762FD0122154B9A7680226B
:1019A40000E0002214F0010F17D042F006020021DB
:1019B4000D20FFF753FD03210F20FFF72FFD10F437
:1019C400816F12D0402200210D20FFF747FD002235
:1019D400074B9A764FF0FF3010BD42F0020200210F
:1019E4000D20FFF73BFD002010BD002010BD00BFFF
:1019F4009C04002008B503210F20FFF721FD80EA95
:101A0400400010F0800F04D0012203210D20FFF7C5
:101A140025FD08BD38B500210E20FFF7E5FC05467D
:101A240001F02EFA0446002211460E20FFF744FD71
:101A3400402200210D20FFF711FD094A00210F204B
:101A4400FFF73AFDFFF7D6FF2A4600210E20FFF7E5
:101A540033FD204601F024FA0022024B9A7638BD69
:101A6400F8FF27249C04002038B5044610F0040F26
:101A740001D1FFF7BFFF14F0010511D11FE0FFF7FB
:101A8400C9FF14F0020F08D14FF4807200210D2019
:101A9400FFF7F2FC4FF0FF3517E04FF0FF3514E08D
:101AA4004FF4407200210D20FFF7E6FC03210F20C4
:101AB400FFF7C6FC10F0080FE1D1002505E04FF454
:101AC400807200210D20FFF7D7FC284638BD00BFE7
:101AD40038B5054603210420FFF7B2FC04468DB156
:101AE4002A4600210C20FFF7C7FC0C4A536943F037
:101AF4008053536144F01002D2B203210420FFF753
:101B0400ADFC38BD054A536923F08053536100F09E
:101B1400EF0203210420FFF7A1FC38BD9C04002040
:101B240070B505460E4601F0ABF9044600210E20BF
:101B3400FFF75AFC16B140EA050201E020EA05026B
:101B440000210E20FFF7B8FC204601F0A9F970BD72
:101B540008B5E02203213620FFF780FCF0220321A0
:101B64003620FFF77BFC08BD38B500210F20FFF7B6
:101B74003BFC0446464BD86110F4804F47D04FF4E9
:101B8400DE4200210F20FFF797FC414D002185F82C
:101B940024101020FFF742FC2B7A13B1C0F3090282
:101BA40001E000F07F023A4B1A8410F4004F06D093
:101BB4001A4693F8243043F0010382F82430354B5D
:101BC400022200211120FFF7D5FB14F0080F11D0D9
:101BD4002F4B93F8223013F0200F0BD10822002151
:101BE4000F20FFF769FC2A4BDA6922F00802DA6158
:101BF40000229A76264BDB6A0BB127489847244B80
:101C04005B7C23B1012203210D20FFF727FC14F094
:101C1400800F13D0F82200210F20FFF74DFC14F0A1
:101C2400080F06D01A4B9B7E1BB1FFF7F3FEFFF79C
:101C34008FFF174B9B6A0BB11748984714F4081F82
:101C440011D04FF4003200210F20FFF735FC104D66
:101C54000023AB76FFF7DEFEFFF77AFF2B6B13B1A1
:101C640005F11C0098470D4B1C4210D01A46002168
:101C74000F20FFF721FC064C0023A376FFF7CAFED2
:101C8400FFF766FF636B13B104F11C00984738BD7E
:101C94009C040020BE040020B80400200090052409
:101CA40008B5FFF75DFE002211462C20FFF7E4FB88
:101CB400002206212C20FFF7D1FBFFF739FC00227C
:101CC40003213620FFF7CAFB012001F0FDF8F022C2
:101CD40003213620FFF7C2FB0022014B9A7608BD90
:101CE4009C04002008B500F01F0242F060020E219F
:101CF4002B20FFF7B3FB08BD70B50646364B002218
:101D04005A749A761A839A62DA621A635A63FFF7EC
:101D14007FFB324B98425BD1FFF7C2FF0020FFF7F5
:101D240093FD042200212420FFF798FB1E20FFF7D7
:101D3400E9FB0446C0F30722274B5A720420FFF73D
:101D4400E1FBC0B248B1022212212D20FFF786FB2D
:101D5400214A138B43F4805313830620FFF7D2FBED
:101D64001D4D28600720FFF7CDFB686014F01F04A9
:101D740001D02C7402E01022174B1A74164B187CF5
:101D8400FFF7B0FF16F0010F07D0FFF7D7FD124A97
:101D9400138B43F4006313830AE005213620FFF715
:101DA4003DFB4FF6FF52024005213620FFF764FB4E
:101DB4000120FFF749FD00220A212C20FFF74EFBEA
:101DC40000210420FFF710FB034B5861002070BD75
:101DD4004FF0FF3070BD00BF9C0400203001CADE0C
:101DE4002DE9F041804617461E460C4601F048F89E
:101DF400154B10225A61B8F1000F0ED0134D214635
:101E0400AE4604EB080211F8013BAB812C89E407D0
:101E1400FCD58A42BEF80C30F5D167B10B49334684
:101E24000D46F41913F8012B8A810A89D207FCD5CF
:101E3400A342AA89F6D1044B10221A6101F030F8AA
:101E44000020BDE8F08100BF0008014000300140DF
:101E54002DE9F041804617461E460C4601F010F865
:101E6400164B10225A61B8F1000F0FD0144D2146C1
:101E7400AE4604EB080211F8013BAB812C89E40760
:101E8400FCD5BEF80C3091423370F4D177B10C49D3
:101E940033464FF000050E46DC198D810A89D207BE
:101EA400FCD5B28903F8012B9C42F6D1034B1022D6
:101EB4001A6100F0F5FF0020BDE8F0810008014040
:101EC40000300140F0B5CB7803F00F0613F0100F8B
:101ED4001CBF8B781E430B78F3B1056800230127E0
:101EE4004FF00F0C07FA03F20C8832EA04040FD106
:101EF4009C000CFA04FE25EA0E0506FA04F42543B8
:101F0400CC78282C01D1426102E0482C08BF026140
:101F14000133082BE6D105600B88FF2B20D94568D7
:101F2400002301274FF00F0E03F1080207FA02F213
:101F34000C8832EA04040FD19C000EFA04FC25EA52
:101F44000C0506FA04F42543CC78282C08BF42611A
:101F5400CC78482C08BF02610133082BE4D14560DA
:101F6400F0BD00BF8368194214BF012000207047F0
:101F7400016170474161704730B40028184BB4BF09
:101F8400DB695B6882B200F44014B4F5401F07D1EA
:101F940023F07063124D6C6824F070646C6013E07D
:101FA40010F4801F08D0C0F303450324AC4023EA97
:101FB400040343F0706307E0440D240102FA04F4BF
:101FC40023EA040343F0706319B1410D09018A4007
:101FD40013430028024AB4BFD361536030BC704736
:101FE4000000014010B401F003039B0001F0FC0168
:101FF40001F1804101F580318C680F229A4024EA76
:1020040002028A608A6898401043886010BC704756
:1020140010B50446114801F053F901F017FB01F023
:10202400D1F90120FFF768FEB0F1FF3F03D10C485E
:1020340001F00CF8FEE701F0CBF9FFF7E9F9094BE1
:10204400984208D104EB4404074800EB8400FFF7EE
:1020540095FA044810BD4FF0FF3010BD6D1B000809
:10206400AC3C00083001CADE300400202DE9F04108
:1020740088B0042001F028FB01F072FB002001F07D
:102084000BFB0446012001F013FB800040EA4404EA
:1020940064B2022001F00CFB44EAC00044B2042004
:1020A40001F006FB44EA001044B2082001F000FBF2
:1020B40044EA401044B2102001F0FAFA44EA8010D5
:1020C40044B2202001F0F4FA44EAC010C3B2594AE1
:1020D40013704FF40001584AC2F88010C3F340074C
:1020E40013F0040F18BF0237042001F0EDFAF8B220
:1020F400FFF78EFFB0F1FF3F00F091804F4E04AD2B
:1021040096E80F0085E80F004A4B1C78DFF834810D
:10211400502200214046FEF799FFA30003F040033C
:1021240004F020021A44A41004F0100313441B11F9
:1021340030338DF81F300FCDC8F80000C8F80410F4
:10214400C8F80820C8F80C3042460121282000F0C5
:10215400F9FE143696E80F008DE80F00384A07EBB5
:1021640047039B00D118D35C3033DBB2CA79022A0F
:1021740004D06B2130203122144603E04D21382055
:102184002E2236248DF805408DF806208DF80700A0
:102194008DF808108DF80F302A4D6C460FCC28604E
:1021A4006960AA60EB602A460121102000F0CAFE93
:1021B40007EB4707224901EB87011E4B187800F013
:1021C40047F81D240425C82614F0010F03D028461F
:1021D40001F07AFA02E0284601F09CFA304600F059
:1021E40067FE013CB4F1FF3FEED1042001F06CFA2C
:1021F4004FF40002104B1A600020FFF735FC124E1A
:1022040042F2107500F0F6FF044600F0F9FF201AC0
:102214003060A842F6DD0020FFF726FCF2E7042038
:1022240001F078FA094800F011FF002008B0BDE879
:10223400F08100BFD404002000E100E0743C0008F9
:1022440030040020EC050020CC060020B83C000837
:10225400F8B504460E46244B244A25492548FFF781
:10226400A9FA01212448FFF75BFC0020FFF714F9C9
:102274000020FFF719F90120FFF782FA0120FFF788
:10228400A3FAFA20FFF724FC1C4DA30003F040033B
:1022940004F020021344A41004F010041C4424117C
:1022A4002C7000246C7007232B716C71EC7085F812
:1022B400784020273A46214605F11800FEF7C6FE6D
:1022C4003A46214605F13800FEF7C0FEAC65EC65E0
:1022D4002C666C662C616C617278094B1A703278CA
:1022E400084B1A70F8BD00BFE528000879280008DB
:1022F400AD2900084129000880D0230440060020AD
:10230400C1060020C00600202DE9F8431B4C0444FC
:10231400247C01398C4229D1184D2F7929780E312A
:1023240055F82160B91D55F82110C1EB060E089926
:10233400891B88464FF0000900F12C040E3755F82C
:1023440027609E1BA6FB0167D21AA2FB0E0118EBA5
:102354000E0249F1000392185B41301A67EB010148
:10236400FEF784FC25F81400BDE8F8832C30002225
:10237400024B23F81020BDE8F88300BF400600207C
:1023840030B583B00F494C79002343EA5413E20675
:10239400D1E9020112184B41CDE90023FA20FFF7DD
:1023A40097FBDDF80100FFF7E5FA0120FFF75CFB7E
:1023B40028B1FA20FFF78CFB0020FFF755FB03B090
:1023C40030BD00BF400600200B4A5379137101331E
:1023D400DBB25371072B03D90022074B5A7100E07B
:1023E40043B90549D1E9022312F1804243F10003C4
:1023F400C1E90223704700BF4006002070B5294B95
:102404001B783BB3284B1A78012161F3020202F0D6
:10241400C70242F040021A705A7842F00C0261F38B
:10242400051262F03F025A70204A144603CCC3F8E6
:102434000D00C3F811101E490978597303CAC3F873
:102444000500C3F80910FF225A7121225A7500228F
:10245400144B1A701448164AD378837500F1170385
:102464001832373052F8041B43F8041B8342F9D165
:102474000F4C23780C4D05EB83020E3354F82300E4
:10248400C2F8170058340FCCC5F83700C5F83B1014
:10249400C5F83F20C5F84330002229464920FEF7FD
:1024A40057FF70BD6004002030050020043D000883
:1024B40040060020D0B4CF17FB0643EA5113CA06E6
:1024C4000749D1E9026792197B41C0E9002322F44C
:1024D400FF7222F0010202F500720260D0BC704764
:1024E4004006002030B583B0134B1C781CB91A4643
:1024F400DB780133D370104D69796846FFF7DAFF52
:102504000E34009B45F82430FFF778FF0022114673
:102514004920FEF7E7FFDDF80100FFF72BFA012061
:10252400FFF730FA28B1FA20FFF7D2FA0020FFF7BC
:102534009BFA03B030BD00BF4006002070B50546CD
:102544000846144B1B78012B19BF134E134C144E21
:10255400144CFEF789F901462846FEF739FA01F0D2
:1025640043F91149FEF780F92146FEF773F8044652
:102574000E49FEF721FB58B90D492046FEF76CF8C9
:102584003146FEF771F901462046FEF765F870BD45
:10259400204670BDC10600206D56953FE17AF34296
:1025A4006D561540A470E742000020410000B0C2FF
:1025B4000000B04230B583B006211220FEF72EFF92
:1025C400054601AB042200211020FEF7D3FE9DF83E
:1025D40006009DF807301B0143EA1010FEF7ECF8E3
:1025E40004462846FEF7E8F84FF09041FEF73CF920
:1025F4002146FFF7A3FF03B030BD00BFF8B5064680
:10260400FFF7D8FF4A49FEF727F800F100404FF0E2
:102614007C51FEF729F9044620F000454549284637
:10262400FEF7E8FA002840F0818042492846FEF788
:10263400D7FA00287AD12046FEF7F2FA002805DB03
:10264400431C112B04DD1123184601E00023184616
:10265400394A1278042A01D0072A1FD1374A12783E
:10266400012A0CD1062B364AD75CD8BF7F427F00A3
:102674000628334B1D5CD8BF6D426D002FE0022A43
:1026840028D1062B2F4AD75CD8BF7F427F0006286B
:102694002C4B1D5CD8BF6D426D0020E0274A127898
:1026A400012A0AD1092B284AD75CD8BF7F420928BE
:1026B400254B1D5CD8BF6D4211E0022A0DD1072BBA
:1026C400224AD75CD8BF7F420728204B1D5CD8BF65
:1026D4006D4204E000252F4601E000252F46FEF759
:1026E4006FF801462046FDF7B5FF0446781BFEF758
:1026F40067F801462046FEF7B7F804462846FEF779
:102704005FF801462046FDF7A7FF1149FEF7ACF834
:102714001049FEF7A9F8FEF783FAD6E90023141846
:1027240043EBE07520462946C6E90001F8BD00BF29
:1027340000007442FFFF7F7FC0060020C106002016
:10274400F03C0008C83C0008DC3C00080C3D0008D4
:10275400B32355436F12833A70B586B0434B9B78CD
:1027640013B1012B79D07DE00446002957D106AD81
:102774000022002365E902232846FEF725FE2846A9
:10278400FFF73CFF0022A1883948FEF713FEA38817
:102794004BB1374B5B7D212B05D1354B5C7B334BE8
:1027A4001B79A3420ED0314A1379981D002142F8B7
:1027B400201003F12C0022F81010002B3CD12B4BDD
:1027C400597039E02A4D05EB8403D3F817000290C1
:1027D400264E337805EB8303D3F817000390A97DC5
:1027E400049B0093039B029A2046FFF78DFD3379E7
:1027F400AA7DF1180A74991D049846F8210003F182
:102804000E0105EB8305D5F8170046F8210033794E
:1028140093B9DDE90401C6E90201F2700CE0134A40
:102824001379981D002142F8201003F12C0022F89E
:1028340010100BB90D4B59700C4B5A791B789A42F6
:1028440005D1FFF74FFE0122084B9A700AE0FFF70B
:1028540097FD0022054B9A7004E0FFF791FD0022DA
:10286400024B9A70FFF7B0FD06B070BD4006002021
:102874008805002010B50446042000F025FF002040
:1028840000F048FF144B5B78022B04D10121204651
:10289400FFF762FF10BD104B1B78B3B90F4C2046F5
:1028A400FEF79AFD74E8022302F0404212F100425E
:1028B40043F10003C4E9022302236370FFF712FE0D
:1028C4000123A370FFF780FD10BDFA20FFF700F984
:1028D4000020FFF7C9F810BD40060020480600207C
:1028E40010B5144B5B78022B03D10221FFF734FFA0
:1028F40010BD104B1B78B3B90F4C2046FEF76CFD8E
:1029040074E8022302F0404212F1004243F1000352
:10291400C4E9022302236370FFF7E4FD0123A370DB
:10292400FFF752FD10BDFA20FFF7D2F80020FFF7A1
:102934009BF810BD400600204806002010B5044650
:10294400042000F0C1FE032000F0E4FE144B5B7889
:10295400022B04D103212046FFF7FEFE10BD104BCD
:102964001B78B3B90F4C2046FEF736FD74E80223FA
:1029740002F0404212F1004243F10003C4E9022391
:1029840002236370FFF7AEFD0123A370FFF71CFD64
:1029940010BDFA20FFF79CF80020FFF765F810BD82
:1029A400400600204806002030B583B005460420C8
:1029B40000F08AFE012000F0ADFE2B4B5B78022B69
:1029C40004D100212846FFF7C7FE4AE0264B1B78B6
:1029D400B3B9264C2046FEF7FFFC74E8022302F04C
:1029E400404212F1004243F10003C4E902230223EE
:1029F4006370FFF777FD0123A370FFF7E5FC30E078
:102A040002AC0022002364E902232046FEF7DCFC2A
:102A14002046FFF7F3FD164C0022A9882046FEF756
:102A2400C9FC637BBBB9637D212B14D10E4CDDE95A
:102A3400002312F1804243F10003C4E902230C4B4A
:102A44009B7DE370FFF74EFD0023A37002236370A8
:102A5400FFF7BAFC05E0FA20FFF73AF80020FFF789
:102A640003F803B030BD00BF400600204806002034
:102A7400D8040020104B1A6842F001021A60596809
:102A84000E4A0A405A601A6822F0847222F4803294
:102A94001A601A6822F480221A605A6822F4FE022C
:102AA4005A601A6822F0A0521A604FF47F029A60AA
:102AB4000022DA62704700BF001002400000FFF0FD
:102AC4000D4B1A6822F480321A601A6822F48022AC
:102AD4001A60B0F5803F03D0B0F5802F06D0704760
:102AE400054A136843F4803313607047024A13683D
:102AF40043F4A0231360704700100240034A536854
:102B040023F47413194308435060704700100240C3
:102B1400014B1860704700BF60004242044AD36A08
:102B240023F4803323F00F0319430843D062704722
:102B340000100240034AD36A23F0F0031843D06222
:102B4400704700BF00100240034AD36A23F4706345
:102B54001843D062704700BF00100240014B186058
:102B6400704700BF68004242034A536823F00303DE
:102B740018435060704700BF00100240024B586871
:102B840000F00C00704700BF00100240034A536875
:102B940023F0F00318435060704700BF0010024058
:102BA400034A536823F4E06318435060704700BF3E
:102BB40000100240034A536823F4605343EAC00000
:102BC4005060704700100240034A536823F44043A6
:102BD40018435060704700BF0010024030B4354BBA
:102BE4005B6803F00C03042B06D0082B07D0002BE2
:102BF4003AD1314B036039E0304B036036E02D4A63
:102C04005368526802F48032C3F383430D2B14BF1C
:102C14000233062322B92A4A02FB03F3036025E0A8
:102C2400244AD16AD26A02F00F02013211F4803FC1
:102C340006D12249B1FBF2F203FB02F3036015E073
:102C44001C49CC6AC96AC4F3031401341B4DB5FB97
:102C5400F4F4C1F30321023101FB04F1B1FBF2F2FC
:102C640003FB02F3036001E0134B036011494B685B
:102C7400C3F30313134CE35CDAB20368D340436039
:102C84004A68C2F30222A25CD2B223FA02F2826040
:102C94004A68C2F3C222A25CD2B2D340C3604A687B
:102CA400C2F3813208498A5CD2B2B3FBF2F3036106
:102CB40030BC70470010024000127A00001BB700BD
:102CC40000093D00680400206404002021B1054B84
:102CD4009A69104398617047024A936923EA000095
:102CE400906170470010024021B1054BDA6910432E
:102CF400D8617047024AD36923EA0000D061704763
:102D04000010024021B1054BDA681043D8607047C7
:102D1400024AD36823EA0000D060704700100240E2
:102D240021B1054B1A69104318617047024A1369AF
:102D340023EA000010617047001002404309012B90
:102D440002D1074B1B6804E0022B054B0CBF1B6A26
:102D54005B6A00F01F0023FA00F000F001007047E6
:102D64000010024010B582B00023019331242046A4
:102D7400FFF7E4FF019B01330193019BB3F5A06FBF
:102D840001D00028F3D03120FFF7D8FF003018BF5E
:102D9400012002B010BD00BF002103E00B4B5B58C3
:102DA400435004310A480B4B42189A42F6D30A4A5C
:102DB40002E0002342F8043B084B9A42F9D3FEF7A1
:102DC40009FAFEF71BF9FFF751F97047083E0008AE
:102DD400000000207C04002080040020DC06002089
:102DE400FEE700008379002B34D010B4204B1A681E
:102DF400016822EA01021A605A68016822EA0102A3
:102E04005A60027902F1804202F582321468016844
:102E1400214311609A68016822EA01029A60DA6823
:102E2400016822EA0102DA604379102B09D1104BC0
:102E3400996802680A439A60D96802680A43DA60AA
:102E440013E003F1804303F58233196802680A43EF
:102E54001A600AE0037903F1804303F582331A68A8
:102E6400016822EA01021A60704710BC704700BF73
:102E740000040140014B5861704700BF0004014049
:102E840008B5172000F012FA034620B14FF40001F0
:102E9400024AC2F88010184608BD00BF00E100E0F5
:102EA40018B14FF40002014B1A60704700E100E0D2
:102EB40010B5044600F09EF9044400F09BF9001B91
:102EC4000028FADD10BD00BF08B5FFF7F1FF08BD0B
:102ED400034A136803F0380318431060704700BFB7
:102EE40000200240044B1A6822F010021A601A688B
:102EF40010431860704700BF00200240024A136864
:102F040001331360704700BFD406002070B5094B2D
:102F14001A68094B1A60094E094D202433689847F2
:102F240021462846FFF71EF80128F7D02020FFF796
:102F3400A1FF70BDD4060020D8060020E0050020C3
:102F4400000C01402DE9F8438046174681B13D4C01
:102F54004FF400612046FFF70BF84FF480512046F0
:102F6400FFF708F84FF00009B8F1000F17D13EE061
:102F7400012856D192F8009019F0030918BF4FF0B8
:102F84000109304C4FF400612046FEF7F3FF4FF483
:102F940080512046FEF7EEFF01E04FF00009013FAB
:102FA4000026294C012517F8011F204600F008F9D6
:102FB4002946204600F018F90028F9D0204600F0F0
:102FC40001F901364645EED31E4C4FF4006120460C
:102FD400FEF7D0FF4FF480512046FEF7C9FFB9F148
:102FE400000F2DD00220FFF763FFBDE8F883154CD6
:102FF4004FF400612046FEF7BDFF4FF48051204698
:10300400FEF7B6FFBDE8F8830E4C4FF4006120468E
:10301400FEF7B0FF4FF480512046FEF7A9FFBDE84C
:10302400F883084C4FF400612046FEF7A3FF4FF4E9
:1030340080512046FEF79EFFB8F1000FADD1E3E7C3
:10304400BDE8F883000C01400038004070B582B040
:10305400064602AC022304F8013D22460021012069
:10306400FFF770FF01258DF80750224600212846FE
:10307400FFF768FF304600F0CDFD32462946FFF7E2
:1030840061FF02B070BD00BF40F0BF6040F400308B
:10309400014BD860704700BF00ED00E0C378FBB17E
:1030A400154BDA68D243C2F30222C2F10401437819
:1030B40003FA01F10F23D340827813400B430278C3
:1030C4001B01DBB20D490A4482F800330378580926
:1030D40003F01F03012202FA03F341F82030704782
:1030E40003785A0903F01F03012101FA03F3203284
:1030F400024941F82230704700ED00E000E100E0B1
:1031040008B5154B98420AD101214FF48050FFF7BE
:10311400F9FD00214FF48050FFF7F4FD08BD0F4B7B
:1031240098420AD101214FF48040FFF7F9FD0021B4
:103134004FF48040FFF7F4FD08BD094B984209D1D4
:1031440001214FF40040FFF7EBFD00214FF4004054
:10315400FFF7E6FD08BD00BF003001400038004025
:10316400003C004010B4038803F441540A884B889F
:1031740013438A881343CA8813430A8913434A8929
:1031840013438A891343CA89134323439BB203809D
:10319400838B23F400631B041B0C83830B8A03823D
:1031A40010BC704729B103889BB243F040030380ED
:1031B4007047038823F040031B041B0C03807047F3
:1031C40081817047808980B2704700BF29B18388AC
:1031D4009BB243F0040383807047838823F0040385
:1031E4001B041B0C838070470389194214BF012000
:1031F40000207047014B1868704700BFD4060020B8
:10320400014B1868704700BFD8060020094B1B68A3
:10321400094AA2FB03239B09013B084A5360084B5C
:10322400F02183F82310002090600721116083F8B7
:10323400230070472C040020D34D621010E000E0FE
:1032440000ED00E030B585B02024ADF80C40282313
:103254008DF80F3003A91448FEF734FE0521012030
:10326400FEF7C0FE019400248DF8084008238DF871
:10327400093001258DF80A5001A8FFF7B3FD4FF47A
:103284004070FFF701FF17238DF800300F238DF8EE
:1032940001308DF802408DF803506846FFF7FEFEBA
:1032A400204605B030BD00BF000C0140034B1B6835
:1032B400034214BF01200020704700BF00040140F6
:1032C40010B504461720FFF7F1FF40B1054B4FF44A
:1032D4000002C3F8802004490C601A6010BD024B40
:1032E4001C6010BD00E100E0E005002010B586B0D0
:1032F400FFF7C0FB4FF48030FFF7E2FBFFF732FD2E
:1033040000283ED01020FFF7EDFD0220FFF7E0FD7E
:103314000020FFF73BFC0020FFF74CFC4FF48060DB
:10332400FFF73EFC4FF40040FFF74EFC3020FFF760
:1033340001FC4FF4C060FFF707FC0120FFF70EFC0F
:103344003B242046FFF7FAFC0028FAD002214FF470
:103354008030FFF7E3FB4FF4E0114FF48030FFF7C8
:10336400CDFB0120FFF7D4FB39242046FFF7E6FC10
:103374000028FAD00220FFF7F7FBFFF7FFFB08282D
:10338400FBD101A8FFF72AFC01214FF48050FFF77D
:103394009DFC01214FF48040FFF7A6FC01217D2014
:1033A400FFF794FC002006B010BD00BF044A138848
:1033B40023F038031B041B0C18431080704700BF14
:1033C4000030014008B52020FFF7F0FF08BD00BF22
:1033D40008B50820FFF7EAFF08BD00BF2DE9F0415A
:1033E40086B02A4F3846FFF78BFE0024ADF8044020
:1033F4004FF48273ADF80630ADF80840ADF80A40DA
:10340400ADF80C404FF40073ADF80E301026ADF853
:103414001060ADF812400723ADF8143001A9384606
:10342400FFF7A0FEA023ADF8003018238DF8033079
:103434004FF003088DF80280154D69462846FEF7C3
:1034440041FD4023ADF8003048238DF80330694630
:103454002846FEF737FDADF800608DF803608DF85F
:10346400028069462846FEF72DFD21463846FFF7BF
:10347400ADFE01213846FFF795FE31462846FEF79A
:1034840077FD204606B0BDE8F08100BF0030014062
:10349400000801402DE9F04786B03A4F3846FFF75F
:1034A4002FFE0025ADF804504FF48273ADF80630BA
:1034B400ADF808500223ADF80A304FF0010AADF818
:1034C4000CA04FF40073ADF80E303023ADF810307B
:1034D400ADF812500723ADF8143001A93846FFF7B0
:1034E40041FE4FF42043ADF8003018238DF803302B
:1034F40003268DF80260244C69462046FEF7E2FC60
:103504004FF48043ADF8003048238DF8033069460A
:103514002046FEF7D7FC4FF48059ADF800904FF0E9
:1035240010088DF803808DF8026069462046FEF786
:10353400C9FC29463846FFF749FE51463846FFF78D
:1035440031FE49462046FEF713FD4FF40063ADF803
:1035540000308DF803808DF8026069462046FEF73E
:10356400B1FC4FF48063ADF800308DF803808DF822
:10357400026069462046FEF7A5FC284606B0BDE871
:10358400F08700BF00380040000C0140F0B583B064
:1035940001217D20FFF79AFB4FF6FF73ADF804304D
:1035A40000268DF8076001A92348FEF78BFC234F02
:1035B40001A93846FEF786FC214C01A92046FEF7F6
:1035C40081FC01A91F48FEF77DFC01A91E48FEF7F6
:1035D40079FC0425ADF804508DF807500DEB050176
:1035E4003846FEF76FFC3F27ADF804708DF807509E
:1035F4000DEB05012046FEF765FCADF804708DF86F
:1036040007500DEB05012046FEF75CFC4FF4707388
:10361400ADF8043010238DF8073003238DF80630FD
:103624000DEB05012046FEF74DFC31460120FEF767
:10363400A3FC304603B0F0BD00080140000C01407B
:1036440000100140001401400018014070B582B020
:103654000125ADF8045010238DF8073003268DF8AA
:1036640006600C4C01A92046FEF72CFC2946204696
:10367400FEF780FCADF8045000238DF807308DF878
:10368400066001A92046FEF71DFC0220FFF710FC8E
:1036940002B070BD0008014008B504210348FEF7DC
:1036A40061FCB0FA80F0400908BD00BF000C014085
:1036B40008B501460348FEF755FCB0FA80F040090E
:1036C40008BD00BF0010014008B504281FD8DFE87A
:1036D40000F003080D13190040210D48FEF74AFCC1
:1036E40008BD80210A48FEF745FC08BD4FF48071EF
:1036F4000748FEF73FFC08BD4FF400710448FEF78D
:1037040039FC08BD4FF470710148FEF733FC08BD65
:103714000010014008B504281FD8DFE800F00308B2
:103724000D13190040210D48FEF722FC08BD80212D
:103734000A48FEF71DFC08BD4FF480710748FEF7E8
:1037440017FC08BD4FF400710448FEF711FC08BDD6
:103754004FF470710148FEF70BFC08BD00100140E6
:1037640030B585B0FFF7C2FDFFF710FFFFF76AFD24
:10377400FFF74CFDFFF732FEFFF78CFE184C4FF4B9
:1037840000612046FEF7F6FB4FF480612046FEF709
:10379400F1FB0A20FFF78CFB124A01AB1068516859
:1037A40003C3127A1A7000248DF8034001AA21463B
:1037B4000920FFF7C7FB0A20FFF77AFB04AD0223B9
:1037C40005F80D3D2A4621460120FFF7BBFB0120E9
:1037D4008DF803002A462146FFF7B4FB05B030BD3F
:1037E400000C01409C3C0008F0B58BB0044600F08E
:1037F4006FF8324B054693F90060731C0AD02146DA
:103804002046FDF7F7F9074620B900212046FDF7C9
:10381400D3F910B928460BB0F0BD294B20460897C0
:103824000193FCF76FFECDE90401CDE90201C6B9AD
:10383400244B4FF0604220460021CDE90623FDF7DA
:10384400A7F9002832D002230093684600F092F8CA
:10385400A0B1089BBBB9DDE90601FCF7A7FE0BB0DC
:10386400F0BD194B002220460021CDE90623FDF7C7
:103874008FF968B102239E420093E6D100F0C4F9A7
:1038840022230360E5E700F0BFF9089B0360E2E749
:103894000123022E00930BD100F0B6F9212303601B
:1038A4000A4800F069F8CDE90601D2E70123009344
:1038B400684600F05FF80028F2D1EDE778040020B4
:1038C400D43D0008FFFFEFC70000F0FFC43C000830
:1038D40020F0004270B5002A32D000280146034689
:1038E4003CDBB0F1FF4F28DAB0F5000F2EDB0022ED
:1038F400D8157F381044C50F2844C3F31604FCF7C9
:103904005FFF0646C5F17F0044EAC05000F03AF874
:10391400154905463046FCF7A7FF144904462846D6
:10392400FCF7A2FF01462046FCF796FE1049044628
:103934003046FCF799FF01462046FCF78DFE70BD2A
:1039440000214FF04C40FDF743F870BD4FF0984113
:10395400FCF78AFF6FF018020346C9E7FCF77AFE0A
:103964000021FDF735F870BDDB275435D95BDE3E09
:1039740080209A3E0020704700200149704700BF14
:103984000000F87F20F000422DE9F0476AB30028D8
:10399400014603464ADBB0F1FF4F3BDAB0F5000FB6
:1039A4003CDB00248C4AC3F316052A4402F40002CB
:1039B400DB1582F07E507F3B234428434FF07E5139
:1039C40003EBD254FCF746FE05F10F03C3F31603D1
:1039D4000F2B064631DC0021FDF7DAF8002800F051
:1039E40092804CB90020BDE8F08700214FF04C4094
:1039F400FCF7EEFFBDE8F0872046FCF7E1FE7749CF
:103A04000546FCF731FF764904462846FCF72CFFAF
:103A140001462046FCF720FEBDE8F0874FF09841B0
:103A2400FCF722FF6FF018040346BBE7FCF712FE15
:103A34000021FCF7CDFFBDE8F0874FF08041FCF793
:103A44000BFE01463046FCF7C3FF80462046FCF7D8
:103A5400B7FE414681464046FCF706FF01468246D2
:103A6400FCF702FF07465F49FCF7FEFE5E49FCF7E0
:103A7400F3FD3946FCF7F8FE5C49FCF7EDFD3946E9
:103A8400FCF7F2FE5A49FCF7E7FD5146FCF7ECFE61
:103A9400584982463846FCF7E7FE5749FCF7DCFDF7
:103AA4003946FCF7E1FE5549FCF7D6FD3946FCF7EB
:103AB400DBFE01465046FCF7CFFD514FC5F55713C9
:103AC4002F4403F522731F43002F824665DD4FF018
:103AD4007C513046FCF7C8FE3146FCF7C5FE05466E
:103AE400002C32D129465046FCF7B6FD4146FCF77E
:103AF400BBFE01462846FCF7ADFD01463046FCF707
:103B0400A9FDBDE8F0873F493046FCF7ADFE01460C
:103B14004FF07C50FCF79EFD314605463046FCF7DD
:103B2400A3FE01462846FCF79FFE0546002C2ED036
:103B34002046FCF745FE29490746FCF795FE044656
:103B440038462749FCF790FE14E024494846FCF720
:103B54008BFE294604465046FCF77EFD4146FCF7A1
:103B640083FE1F4907464846FCF77EFE0146384659
:103B7400FCF772FD01462846FCF76CFD3146FCF764
:103B840069FD01462046FCF765FDBDE8F087014666
:103B94003046FCF75FFDBDE8F0877CB10F4948462D
:103BA400FCF762FE514604463046FCF753FD41469D
:103BB400FCF75AFE0A4905464846C3E70146304623
:103BC400FCF748FD4146FCF74FFE01463046FCF742
:103BD40041FDBDE8F08700BF20FB4A008071313F02
:103BE400D1F717379788173E25333A3E2549923E39
:103BF400ABAA2A3F4FD01C3E298E633ECDCCCC3E8F
:103C0400305CCFFFABAAAA3E014B1868704700BFD7
:103C14002804002020F0030110F00300C0F100008C
:103C240051F8043B00F1040C4FEACC0C6FF0000295
:103C34001CBF22FA0CF213434FF0010C4CEA0C2C7B
:103C44004CEA0C4CA3EB0C0222EA030212EACC125B
:103C540004BF51F8043B0430F4D0C2F1000102EA7D
:103C64000102B2FA82F2C2F11F0200EBD2007047E5
:103C740054444F412076302E383420416E633A78D4
:103C8400000000004D6F64653A78787878204368C6
:103C9400616E3A78000000003914556D78380C01D3
:103CA4000600000000000020494E495420464149C6
:103CB4004C4544002020494E4954204641494C205B
:103CC40000000000938575634B321D00182D3F4C96
:103CD4005762747A848E0000C6BBB3A38F7F6D5481
:103CE4003B1F00244154616A6E700000897A695850
:103CF400452F190015304F697F93A0A9B2C5000064
:103D0400000000000000CFBC6E69645D5245331BA7
:103D14000015232A313E474C515600000A00160074
:103D2400010006000100020007040009080540081C
:103D340009104008080540081D0400081D04000877
:103D440087008D0007A9022570889B884010080011
:103D54001E265626BEBE0000000001020304000514
:103D64002D001A3152001A339A001A351D011A37E0
:103D74006B003B31BE003B335E013B3596023B3763
:103D8400405C0000A05C0400C06C0800805C04007F
:103D9400E03F1E00E07D1E00000098599859EA514A
:103DA4008E421E45142E0080EA51F4283233E03A44
:103DB400703DE03AC235842BC2353233C235C23548
:103DC400AE47E03A5038A23050380000D8BC00006A
:103DD4006C6F673130660000F8B500BFF8BC08BCF2
:103DE4009E467047F8B500BFF8BC08BC9E467047B5
:083DF4001CCFFF7F010000005D
:083DFC00ED10000809020008A7
:043E0400E5010008CC
:103E080000000000EC02002054030020BC03002046
:103E1800000000000000000000000000000000009A
:103E2800000000000000000000000000000000008A
:103E3800000000000000000000000000000000007A
:103E4800000000000000000000000000000000006A
:103E5800000000000000000000000000000000005A
:103E6800000000000000000000000000000000004A
:103E7800000000000000000000000000000000003A
:103E8800000000000000000000000000000000002A
:103E9800000000000000000000000000000000001A
:103EA8000000000000000000010000000000000009
:103EB8000E33CDAB34126DE6ECDE05000B000000CE
:103EC80000000000000000000000000000000000EA
:103ED80000000000000000000000000000000000DA
:103EE80000000000000000000000000000000000CA
:103EF80000000000000000000000000000000000BA
:1042280000000000000000000000002000A24A0476
:104238000201080204040100000021040202140023
:1042480009090002000081000501080204040100B8
:104258000000210405021400090900020000810081
:104268000100000002040608000000000102030427
:0C42780001020304060708090100000011
:0400000508002D9D25
:00000001FF
