:020000040800F2
:10000000000001207D330008C5330008C533000817
:10001000C5330008C5330008C533000800000000E0
:100020000000000000000000000000000145000882
:10003000C53300080000000091450008D5450008C0
:10004000C5330008C5330008C5330008C5330008B0
:10005000C5330008C5330008C5330008C5330008A0
:10006000C5330008C5330008C5330008C533000890
:10007000C5330008C5330008C5330008C533000880
:10008000C5330008C5330008C5330008C533000870
:10009000C5330008C5330008C5330008A928000887
:1000A000C5330008C5330008C5330008C533000850
:1000B000C5330008C5330008C5330008C533000840
:1000C000C5330008C5330008C5330008C533000830
:1000D000C5330008C5330008C5330008C533000820
:1000E000C5330008C5330008C53300080000000010
:1000F0000000000000000000000000000000000000
:100100000000000000000000C5330008C5330008EF
:10011000C5330008C5330008C5330008C5330008DF
:10012000C5330008C5330008C5330008C5330008CF
:10013000C5330008C5330008C5330008C5330008BF
:10014000C5330008C5330008C5330008C5330008AF
:10015000000000000000000000000000000000009F
:10016000000000000000000000000000000000008F
:10017000000000000000000000000000000000007F
:10018000000000000000000000000000000000006F
:10019000000000000000000000000000000000005F
:1001A000000000000000000000000000000000004F
:1001B000000000000000000000000000000000003F
:1001C000000000000000000000000000000000002F
:1001D000000000000000000000000000000000001F
:0401E0005FF8E0F1F3
:1001F00010B5054C237833B9044B13B10448AFF361
:1002000000800123237010BD000A002000000000C0
:100210005CA00008084B10B51BB108490848AFF3B3
:1002200000800848036803B910BD074B002BFBD0C2
:10023000BDE81040184700BF00000000040A00207D
:100240005CA00008FC0900200000000081F00041D3
:1002500002E000BF83F0004330B54FEA41044FEAAB
:10026000430594EA050F08BF90EA020F1FBF54EA46
:10027000000C55EA020C7FEA645C7FEA655C00F0E2
:10028000E2804FEA5454D4EB5555B8BF6D420CDDB3
:100290002C4480EA020281EA030382EA000083EA36
:1002A000010180EA020281EA0303362D88BF30BDD6
:1002B00011F0004F4FEA01314FF4801C4CEA11312C
:1002C00002D0404261EB410113F0004F4FEA03338B
:1002D0004CEA133302D0524263EB430394EA050F16
:1002E00000F0A780A4F10104D5F1200E0DDB02FA85
:1002F0000EFC22FA05F2801841F1000103FA0EF219
:10030000801843FA05F359410EE0A5F120050EF1DE
:10031000200E012A03FA0EFC28BF4CF0020C43FA0F
:1003200005F3C01851EBE37101F0004507D54FF01C
:10033000000EDCF1000C7EEB00006EEB0101B1F56C
:10034000801F1BD3B1F5001F0CD349085FEA3000B2
:100350004FEA3C0C04F101044FEA445212F5800FBD
:1003600080F09A80BCF1004F08BF5FEA500C50F15A
:10037000000041EB045141EA050130BD5FEA4C0C3D
:10038000404141EB010111F4801FA4F10104E9D1C6
:1003900091F0000F04BF01460020B1FA81F308BFBD
:1003A0002033A3F10B03B3F120020CDA0C3208DD89
:1003B00002F1140CC2F10C0201FA0CF021FA02F164
:1003C0000CE002F11402D8BFC2F1200C01FA02F1D4
:1003D00020FA0CFCDCBF41EA0C019040E41AA2BFF9
:1003E00001EB0451294330BD6FEA04041F3C1CDAC1
:1003F0000C340EDC04F11404C4F1200220FA04F0E1
:1004000001FA02F340EA030021FA04F345EA03018A
:1004100030BDC4F10C04C4F1200220FA02F001FA4C
:1004200004F340EA0300294630BD21FA04F02946CE
:1004300030BD94F0000F83F4801306BF81F4801167
:100440000134013D4EE77FEA645C18BF7FEA655CDA
:1004500029D094EA050F08BF90EA020F05D054EAAC
:10046000000C04BF1946104630BD91EA030F1EBFB1
:100470000021002030BD5FEA545C05D140004941B5
:1004800028BF41F0004130BD14F580043CBF01F5A8
:10049000801130BD01F0004545F0FE4141F470018E
:1004A0004FF0000030BD7FEA645C1ABF1946104669
:1004B0007FEA655C1CBF0B46024650EA013406BF6A
:1004C00052EA033591EA030F41F4002130BD00BF29
:1004D00090F0000F04BF0021704730B54FF48064E6
:1004E00004F132044FF000054FF0000150E700BF67
:1004F00090F0000F04BF0021704730B54FF48064C6
:1005000004F1320410F0004548BF40424FF00001B2
:100510003EE700BF42004FEAE2014FEA31014FEAF5
:1005200002701FBF12F07F4393F07F4F81F0605144
:10053000704792F0000F14BF93F07F4F704730B5B3
:100540004FF4607401F0004521F0004120E700BF46
:1005500050EA010208BF704730B54FF000050AE0CD
:1005600050EA010208BF704730B511F0004502D5CE
:10057000404261EB41014FF4806404F132045FEAD0
:10058000915C3FF4DCAE4FF003025FEADC0C18BF75
:1005900003325FEADC0C18BF033202EBDC02C2F16B
:1005A000200300FA03FC20FA02F001FA03FE40EAFD
:1005B0000E0021FA02F11444C1E600BF4FEA4102E5
:1005C000B2F1E04324BFB3F5001CDCF1FE5C0DD9B1
:1005D00001F0004C4FEAC0024CEA5070B2F1004FFB
:1005E00040EB830008BF20F00100704711F0804FFE
:1005F00021D113F13872BCBF01F00040704741F4C3
:1006000080114FEA5252C2F11802C2F1200C10FAC6
:100610000CF320FA02F018BF40F001004FEAC123AA
:100620004FEAD32303FA0CFC40EA0C0023FA02F34E
:100630004FEA4303CCE77FEA625307D150EA013324
:100640001EBF4FF0FE4040F44000704701F00040F4
:1006500040F0FE4040F40000704700BF80F00040D2
:1006600002E000BF81F0004142001FBF5FEA41038A
:1006700092EA030F7FEA226C7FEA236C6AD04FEA8A
:100680001262D2EB1363C1BFD218414048404140CF
:10069000B8BF5B42192B88BF704710F0004F40F481
:1006A000000020F07F4018BF404211F0004F41F49D
:1006B000000121F07F4118BF494292EA030F3FD069
:1006C000A2F1010241FA03FC10EB0C00C3F120037C
:1006D00001FA03F100F0004302D5494260EB40000B
:1006E000B0F5000F13D3B0F1807F06D340084FEA76
:1006F000310102F10102FE2A51D2B1F1004F40EB6B
:10070000C25008BF20F0010040EA030070474900D2
:1007100040EB000010F4000FA2F10102EDD1B0FA9D
:1007200080FCACF1080CB2EB0C0200FA0CF0AABF92
:1007300000EBC25052421843BCBFD0401843704730
:1007400092F0000F81F4000106BF80F40000013236
:10075000013BB5E74FEA41037FEA226C18BF7FEA0D
:10076000236C21D092EA030F04D092F0000F08BF4F
:100770000846704790EA010F1CBF0020704712F036
:100780007F4F04D1400028BF40F00040704712F175
:1007900000723CBF00F50000704700F0004343F0DA
:1007A000FE4040F4000070477FEA226216BF084610
:1007B0007FEA23630146420206BF5FEA412390EAD3
:1007C000010F40F4800070474FF0000304E000BFC9
:1007D00010F0004348BF40425FEA000C08BF70477A
:1007E00043F0964301464FF000001CE050EA01023E
:1007F00008BF70474FF000030AE000BF50EA010253
:1008000008BF704711F0004302D5404261EB41013F
:100810005FEA010C02BF84460146002043F0B64364
:1008200008BFA3F18053A3F50003BCFA8CF2083A89
:10083000A3EBC25310DB01FA02FC634400FA02FC92
:10084000C2F12002BCF1004F20FA02F243EB020099
:1008500008BF20F00100704702F1200201FA02FCFB
:10086000C2F1200250EA4C0021FA02F243EB0200EE
:1008700008BF20EADC7070474FF0FF0C1CEAD05232
:100880001EBF1CEAD15392EA0C0F93EA0C0F6FD0F3
:100890001A4480EA010C400218BF5FEA41211ED0D1
:1008A0004FF0006343EA501043EA5111A0FB0131BD
:1008B0000CF00040B1F5000F3EBF490041EAD37192
:1008C0005B0040EA010062F17F02FD2A1DD8B3F10E
:1008D000004F40EBC25008BF20F00100704790F07D
:1008E000000F0CF0004C08BF49024CEA502040EACF
:1008F00051207F3AC2BFD2F1FF0340EAC250704795
:1009000040F400004FF00003013A5DDC12F1190FD2
:10091000DCBF00F000407047C2F10002410021FA44
:1009200002F1C2F1200200FA02FC5FEA310040F15C
:10093000000053EA4C0308BF20EADC70704792F0D5
:10094000000F00F0004C02BF400010F4000F013A0D
:10095000F9D040EA0C0093F0000F01F0004C02BF08
:10096000490011F4000F013BF9D041EA0C018FE777
:100970000CEAD15392EA0C0F18BF93EA0C0F0AD07D
:1009800030F0004C18BF31F0004CD8D180EA0100A3
:1009900000F00040704790F0000F17BF90F0004F3C
:1009A000084691F0000F91F0004F14D092EA0C0F1E
:1009B00001D142020FD193EA0C0F03D14B0218BFB1
:1009C000084608D180EA010000F0004040F0FE40F7
:1009D00040F40000704740F0FE4040F44000704793
:1009E0004FF0FF0C1CEAD0521EBF1CEAD15392EA12
:1009F0000C0F93EA0C0F69D0A2EB030280EA010C02
:100A000049024FEA402037D04FF0805343EA11119A
:100A100043EA10130CF000408B4238BF5B0042F1F8
:100A20007D024FF4000C8B4224BF5B1A40EA0C009D
:100A3000B3EB510F24BFA3EB510340EA5C00B3EBCF
:100A4000910F24BFA3EB910340EA9C00B3EBD10FBD
:100A500024BFA3EBD10340EADC001B0118BF5FEA0F
:100A60001C1CE0D1FD2A3FF650AF8B4240EBC25038
:100A700008BF20F0010070470CF0004C4CEA5020F9
:100A80007F32C2BFD2F1FF0340EAC250704740F448
:100A900000004FF00003013A37E792F0000F00F03A
:100AA000004C02BF400010F4000F013AF9D040EAB8
:100AB0000C0093F0000F01F0004C02BF490011F44C
:100AC000000F013BF9D041EA0C0195E70CEAD15344
:100AD00092EA0C0F08D142027FF47DAF93EA0C0F2B
:100AE0007FF470AF084676E793EA0C0F04D14B020F
:100AF0003FF44CAF08466EE730F0004C18BF31F0C1
:100B0000004CCAD130F000427FF45CAF31F00043BA
:100B10007FF43CAF5FE700BF4FF0FF3C06E000BF53
:100B20004FF0010C02E000BF4FF0010C4DF804CD76
:100B30004FEA40024FEA41037FEA226C18BF7FEA86
:100B4000236C11D001B052EA530C18BF90EA010F88
:100B500058BFB2EB030088BFC81738BF6FEAE17017
:100B600018BF40F0010070477FEA226C02D15FEAB3
:100B7000402C05D17FEA236CE4D15FEA412CE1D01F
:100B80005DF8040B704700BF844608466146FFE7E6
:100B90000FB5FFF7C9FF002848BF10F1000F0FBDC8
:100BA0004DF808EDFFF7F4FF0CBF012000205DF8C1
:100BB00008FB00BF4DF808EDFFF7EAFF34BF012046
:100BC00000205DF808FB00BF4DF808EDFFF7E0FFDF
:100BD00094BF012000205DF808FB00BF4DF808ED30
:100BE000FFF7D2FF94BF012000205DF808FB00BF93
:100BF0004DF808EDFFF7C8FF34BF012000205DF875
:100C000008FB00BF4FEA40024FEA41037FEA226C33
:100C100002D15FEA402C08D17FEA236C02D15FEA5F
:100C2000412C02D14FF0000070474FF00100704797
:100C30004FEA4002B2F1FE4F0FD34FF09E03B3EBE9
:100C400012620DD94FEA002343F0004310F0004F29
:100C500023FA02F018BF404270474FF0000070477F
:100C600012F1610F01D1420205D110F0004008BF1E
:100C70006FF0004070474FF000007047844641EA33
:100C8000000313F0030349D1403A23D30B680360F8
:100C90004B6843608B688360CB68C3600B690361FA
:100CA0004B6943618B698361CB69C3610B6A0362E2
:100CB0004B6A43628B6A8362CB6AC3620B6B0363CA
:100CC0004B6B43638B6B8363CB6BC36340304031AF
:100CD000403ADBD230320BD30B6803604B68436081
:100CE0008B688360CB68C36010301031103AF3D248
:100CF0000C3205D351F8043B40F8043B043AF9D2D6
:100D0000043208D0D2071CBF11F8013B00F8013BA8
:100D100001D30B8803806046704700BF082A13D3B5
:100D20008B07B1D010F00303AED0C3F10403D21A85
:100D3000DB071CBF11F8013B00F8013BA4D331F8DD
:100D4000023B20F8023B9FE7043AD9D3013A11F85D
:100D5000013B00F8013BF9D20B7803704B784370EC
:100D60008B7883706046704770B54FF0FF0C4CF481
:100D7000E06C1CEA11541DBF1CEA135594EA0C0FD9
:100D800095EA0C0F00F0DEF82C4481EA030621EA14
:100D90004C5123EA4C5350EA013518BF52EA03354F
:100DA00041F4801143F4801338D0A0FB02CE4FF001
:100DB0000005E1FB02E506F00042E0FB03E54FF031
:100DC0000006E1FB03569CF0000F18BF4EF0010E29
:100DD000A4F1FF04B6F5007F64F5407404D25FEA25
:100DE0004E0E6D4146EB060642EAC62141EA5551D8
:100DF0004FEAC52040EA5E504FEACE2EB4F1FD0C1A
:100E000088BFBCF5E06F1ED8BEF1004F08BF5FEA97
:100E1000500E50F1000041EB045170BD06F0004649
:100E200046EA010140EA020081EA0301B4EB5C04F6
:100E3000C2BFD4EB0C0541EA045170BD41F48011EE
:100E40004FF0000E013C00F3AB8014F1360FDEBF13
:100E5000002001F0004170BDC4F10004203C35DAEF
:100E60000C341BDC04F11404C4F1200500FA05F372
:100E700020FA04F001FA05F240EA020001F0004213
:100E800021F0004110EBD37021FA04F642EB060189
:100E90005EEA430E08BF20EAD37070BDC4F10C04B3
:100EA000C4F1200500FA04F320FA05F001FA04F277
:100EB00040EA020001F0004110EBD37041F1000163
:100EC0005EEA430E08BF20EAD37070BDC4F120056E
:100ED00000FA05F24EEA020E20FA04F301FA05F2D6
:100EE00043EA020321FA04F001F0004121FA04F27E
:100EF00020EA020000EBD3705EEA430E08BF20EA4E
:100F0000D37070BD94F0000F0FD101F00046400087
:100F100041EB010111F4801F08BF013CF7D041EA09
:100F2000060195F0000F18BF704703F0004652000D
:100F300043EB030313F4801F08BF013DF7D043EADE
:100F40000603704794EA0C0F0CEA135518BF95EA94
:100F50000C0F0CD050EA410618BF52EA4306D1D11B
:100F600081EA030101F000414FF0000070BD50EA3A
:100F7000410606BF1046194652EA430619D094EAC4
:100F80000C0F02D150EA013613D195EA0C0F05D1AE
:100F900052EA03361CBF104619460AD181EA030102
:100FA00001F0004141F0FE4141F470014FF00000BA
:100FB00070BD41F0FE4141F4780170BD70B54FF055
:100FC000FF0C4CF4E06C1CEA11541DBF1CEA1355D5
:100FD00094EA0C0F95EA0C0F00F0A7F8A4EB0504B7
:100FE00081EA030E52EA03354FEA013100F08880AE
:100FF0004FEA03334FF0805545EA131343EA126377
:101000004FEA022245EA111545EA10654FEA00262B
:101010000EF000419D4208BF964244F1FD0404F5E4
:10102000407402D25B084FEA3202B61A65EB030540
:101030005B084FEA32024FF480104FF4002CB6EBFD
:10104000020E75EB030E22BFB61A754640EA0C007D
:101050005B084FEA3202B6EB020E75EB030E22BFBD
:10106000B61A754640EA5C005B084FEA3202B6EBFE
:10107000020E75EB030E22BFB61A754640EA9C00BD
:101080005B084FEA3202B6EB020E75EB030E22BF8D
:10109000B61A754640EADC0055EA060E18D04FEA4B
:1010A000051545EA16754FEA06164FEAC30343EAEB
:1010B00052734FEAC2025FEA1C1CC0D111F4801FB8
:1010C0000BD141EA00014FF000004FF0004CB6E7B1
:1010D00011F4801F04BF01430020B4F1FD0C88BF50
:1010E000BCF5E06F3FF6AFAEB5EB030C04BFB6EB5B
:1010F000020C5FEA500C50F1000041EB045170BD4E
:101100000EF0004E4EEA113114EB5C04C2BFD4EB7A
:101110000C0541EA045170BD41F480114FF0000EFE
:10112000013C90E645EA060E8DE60CEA135594EA7A
:101130000C0F08BF95EA0C0F3FF43BAF94EA0C0F7D
:101140000AD150EA01347FF434AF95EA0C0F7FF4F2
:1011500025AF104619462CE795EA0C0F06D152EA46
:1011600003353FF4FDAE1046194622E750EA41062A
:1011700018BF52EA43067FF4C5AE50EA41047FF43B
:101180000DAF52EA43057FF4EBAE12E74FF0FF3CA0
:1011900006E000BF4FF0010C02E000BF4FF0010C71
:1011A0004DF804CD4FEA410C7FEA6C5C4FEA430CEA
:1011B00018BF7FEA6C5C1BD001B050EA410C0CBF39
:1011C00052EA430C91EA030F02BF90EA020F00209B
:1011D000704710F1000F91EA030F58BF994208BF02
:1011E00090422CBFD8176FEAE37040F001007047BF
:1011F0004FEA410C7FEA6C5C02D150EA013C07D116
:101200004FEA430C7FEA6C5CD6D152EA033CD3D060
:101210005DF8040B704700BF8446104662468C465A
:101220001946634600E000BF01B5FFF7B7FF00288D
:1012300048BF10F1000F01BD4DF808EDFFF7F4FFB6
:101240000CBF012000205DF808FB00BF4DF808ED41
:10125000FFF7EAFF34BF012000205DF808FB00BF64
:101260004DF808EDFFF7E0FF94BF012000205DF886
:1012700008FB00BF4DF808EDFFF7CEFF94BF01203B
:1012800000205DF808FB00BF4DF808EDFFF7C4FF34
:1012900034BF012000205DF808FB00BF4FEA410C7D
:1012A0007FEA6C5C02D150EA013C0AD14FEA430C60
:1012B0007FEA6C5C02D152EA033C02D14FF000009D
:1012C00070474FF0010070474FEA410212F50012DB
:1012D00015D211D56FF47873B3EB625212D94FEA7D
:1012E000C12343F0004343EA505311F0004F23FA67
:1012F00002F018BF404270474FF00000704750EABC
:10130000013005D111F0004008BF6FF00040704778
:101310004FF00000704700BF53B94AB9002908BF19
:1013200000281CBF4FF0FF314FF0FF3000F082B9B2
:10133000ADF1080C6DE904CE00F006F8DDF804E02C
:10134000DDE9022304B070472DE9F04F8C460C46CE
:101350000546099E002B4FD18A4217466BD9B2FA37
:1013600082FEBEF1000F0BD0CEF1200520FA05F56C
:1013700001FA0EF345EA030C02FA0EF700FA0EF535
:10138000390CBCFBF1F0BAB201FB10C300FB02F850
:101390004FEA154C4CEA0344A04509D9E41900F181
:1013A000FF3380F02881A04540F2258102383C447B
:1013B000C8EB0404B4FBF1F301FB134C03FB02F292
:1013C000ACB244EA0C418A4209D9C91903F1FF348D
:1013D00080F00F818A4240F20C81023B39448A1A24
:1013E00043EA00400021002E63D022FA0EF20023CF
:1013F00086E80C00BDE8F08F8B4207D9002E56D04E
:10140000002186E811000846BDE8F08FB3FA83F1A9
:10141000002940F09380A34202D3824200F2FE8072
:10142000851A64EB03039C460120002E41D086E818
:101430002010BDE8F08F12B90127B7FBF2F7B7FA19
:1014400087FEBEF1000F36D1E41B4FEA17481FFAA2
:1014500087F90121B4FBF8F308FB134409FB03F2FD
:101460004FEA154C4CEA0444A24207D9E41903F1AF
:10147000FF3002D2A24200F2D3800346A41AB4FB8A
:10148000F8F008FB104809FB00F9ACB244EA084246
:10149000914507D9D21900F1FF3402D2914500F2EB
:1014A000BA802046C9EB020240EA03409BE731467E
:1014B0003046BDE8F08F07FA0EF7CEF1200C24FA83
:1014C0000CF34FEA1748B3FBF8FA1FFA87F908FB49
:1014D0001A3520FA0CFC04FA0EF40AFB09FB4CEA5C
:1014E000040C4FEA1C4242EA05439B4500FA0EF504
:1014F0000AD9DB190AF1FF3280F08B809B4540F25C
:101500008880AAF1020A3B44CBEB0303B3FBF8F05B
:1015100008FB103300FB09F41FFA8CFC4CEA034370
:101520009C4207D9DB1900F1FF326ED29C426CD984
:1015300002383B441C1B40EA0A418BE7C1F1200EF4
:101540008B4022FA0EFC4CEA030C24FA0EF74FEA09
:101550001C49B7FBF9FA1FFA8CF309FB1A7720FA3A
:101560000EF88C400AFB03F548EA04044FEA1448DD
:1015700048EA0747BD4202FA01F200FA01FB09D925
:1015800017EB0C070AF1FF3041D2BD423FD9AAF157
:10159000020A67447F1BB7FBF9F509FB157705FBCA
:1015A00003F3A4B244EA0747BB4208D917EB0C0780
:1015B00005F1FF3027D2BB4225D9023D674445EAF9
:1015C0000A40A0FB0289FF1A4F4545464C4614D3FA
:1015D00029D066B3BBEB050367EB040707FA0EFEE1
:1015E000CB40CF404EEA030386E888000021BDE8E7
:1015F000F08F2346F3E61846DAE6B8EB020569EB0E
:101600000C040138E5E70546D9E7104692E7824623
:10161000C0E7924678E702383A4443E7084604E7D1
:10162000023B3C442AE7C345E7D33C46D1E7314679
:10163000BDE8F08F704700BF70B50F4E0F4D761BA1
:10164000B61018BF002405D0013455F8043B984764
:10165000A642F9D10A4E0B4D08F000FD761BB610DC
:1016600018BF002406D0013455F8043B9847A64221
:10167000F9D170BD70BD00BF7CA000087CA000083F
:1016800084A000087CA0000870B4840746D0541ED3
:10169000002A41D0CDB2034602E0621EE4B31446F4
:1016A00003F8015B9A07F8D1032C2ED9CDB245EA95
:1016B00005250F2C45EA054519D9264603F11002E8
:1016C000103E0F2E42F8105C42F80C5C42F8085CA9
:1016D00042F8045C02F11002F2D8A4F1100222F0E8
:1016E0000F0204F00F041032032C13440DD91E46D0
:1016F0002246043A032A46F8045BFAD8221F22F055
:1017000003020432134404F003042CB1C9B21C4494
:1017100003F8011BA342FBD170BC7047144603467B
:10172000C2E700BF024B13B1024800F005B8704792
:101730000000000045170008002301461A4618461D
:1017400000F014B838B5074D074C2C1BA41005D079
:10175000013C55F8043D9847002CF9D1BDE83840CC
:1017600008F082BC88A0000884A000082DE9F0479A
:10177000254C064625688846D5F848419246994644
:10178000C4B360681F2817DC411C76B104EB8003EA
:10179000C3F888A0D4F88851012282401543022E54
:1017A000C4F88851C3F808911ED0831C61600020E2
:1017B00044F82380BDE8F087144B03B34FF4C8709E
:1017C000AFF300800446D0B1D5F84831002784E853
:1017D00088003846C5F848410121C4F88871C4F82A
:1017E0008C71002EE1D0D1E7D4F88C311A43C4F8C3
:1017F0008C21DAE705F5A674C5F84841C1E74FF03A
:10180000FF30BDE8F08700BF289B00080000000003
:10181000EFF308800046704782B0484B1A6842F0E8
:1018200001021A605968464A0A405A601A6822F052
:10183000847222F480321A601A6822F480221A60BC
:101840005A6822F4FE025A601A6822F0A0521A6006
:101850004FF47F029A600022DA62009201921A68C5
:1018600042F480321A601A46136803F4003301937D
:10187000009B01330093019B1BB9009BB3F5A06F44
:10188000F2D12E4B1B6813F4003F14BF0123002339
:101890000193019B012B4AD12A4B1A6842F0100296
:1018A0001A601A6822F003021A601A6842F00202F3
:1018B0001A60A3F580535A685A605A685A605A6889
:1018C00042F480625A60D96A1F4A0A40DA62DA6AD0
:1018D00042F4833242F04402DA621A6842F08062D3
:1018E0001A601A46136813F0006FFBD0134B5A6846
:1018F00022F47C125A605A6842F4E8125A601A685C
:1019000042F080721A601A46136813F0007FFBD011
:101910000A4B5A6822F003025A605A6842F00202E7
:101920005A601A46536803F00C03082BFAD14FF0A3
:101930000062064B9A6002B0704700BF0010024080
:101940000000FFF00020024000F0FEFF00ED00E08C
:1019500010B582B029B960F07F008DF80400012035
:1019600012E00C4660F03F008DF804007F2903D898
:101970008DF80510022007E061F07F018DF8051059
:10198000E4098DF80640032001A900F04BFD02B0E8
:1019900010BD00BF1318B3F5806F09DC10B51446F5
:1019A0000B46821E21460920FFF7D2FF002010BD02
:1019B0004FF0FF30704700BF10B582B019B98DF8F5
:1019C0000400012012E00C4640F040008DF80400B5
:1019D0007F2903D88DF80510022007E061F07F0110
:1019E0008DF80510E4098DF80640032001A900F0E8
:1019F00051FD02B010BD00BF10B5144603460A46A3
:101A000021461120FFF7D8FF10BD00BF08B50346DF
:101A1000052200211520FFF7CFFF08BD08B50346BA
:101A2000052200210620FFF7C7FF08BD10B582B0D0
:101A300001AC2346042289B280B2FFF7BDFF02AA9F
:101A40002346002012F8011D01EB00209A42F9D133
:101A500002B010BD08B500210846FFF7E7FF08BD3A
:101A600000B583B001AB022289B280B2FFF7A4FFB8
:101A70009DF805009DF8043003EB002080B203B010
:101A80005DF804FB00B583B00DF10703012289B2B4
:101A900080B2FFF791FF9DF8070003B05DF804FBEB
:101AA00000B583B002AB03F8012D012289B280B2E8
:101AB000FFF74EFF03B05DF804FB00BF00B583B035
:101AC0008DF80420120A8DF8052001AB022289B29C
:101AD00080B2FFF73DFF03B05DF804FB08B5024696
:101AE00041F604012E20FFF7E9FF08BD08B50246C4
:101AF00000211820FFF7E2FF08BD00BF00B583B04A
:101B00008DF80420130A8DF80530130C8DF806307B
:101B1000120E8DF8072001AB042289B280B2FFF7C4
:101B200017FF03B05DF804FB08B5064BDB6843EA1A
:101B3000C232024342EA815200210820FFF7DEFF51
:101B400008BD00BF1C0A002008B582B204212D2068
:101B5000FFF7B4FF032206212D20FFF7A1FF00228B
:101B600006212D20FFF79CFF0A212D20FFF75EFFA5
:101B700008BD00BF08B5002202212C20FFF790FF0E
:101B8000022211462C20FFF78BFF08BD10B504463A
:101B90006D2240F606012E20FFF782FF3CB140F295
:101BA000076241F606012E20FFF788FF10BD41F2C3
:101BB000076241F606012E20FFF780FF10BD00BF2F
:101BC0002DE9F041044605784279724B33F81280D2
:101BD0004678013EF6B2042D04D0072D14BF00272D
:101BE000012700E00127E3793BB96B4A536943F4CD
:101BF000800353614FEAD80804E0674A536923F42D
:101C000080035361237A64490B724A6922F440339A
:101C10004B61227A120402F440321A434A610021D5
:101C20000420FFF76BFF424642F604012E20FFF727
:101C300045FF3046FFF7AAFF584B13F80580584B75
:101C400053F8282007212B20FFF758FF554B13F896
:101C500008200B212B20FFF723FFFFB2524BDA5D48
:101C60000B212820FFF71CFF504B53F828200C2194
:101C70002820FFF743FFE279A37903EB42034C4AA4
:101C800032F8132002212720FFF718FF494B33F8C1
:101C9000162004212720FFF711FFE3792BB96422D6
:101CA00006212720FFF70AFF17E0A378042B0AD1AB
:101CB000102206212720FFF701FF102226212720CE
:101CC000FFF7EEFE09E0202206212720FFF7F6FEAF
:101CD000282226212720FFF7E3FEE37803EB860383
:101CE000354A52F8232008212720FFF707FF638990
:101CF00013B941F241036381628920212720FFF754
:101D0000DDFE2E4F3A680C212320FFF7F7FE07EB8C
:101D10004606B28804212320FFF7D0FEA3794BB1F9
:101D2000E379274AD25C00212120FFF7B9FE012286
:101D3000032101E000221146607905F00F0343EA18
:101D4000C0632D01EDB21D4363789B0403F440236F
:101D50001D4323799B0503F0F8631D4345EA0155B4
:101D600045EA424200211F20FFF7C8FEA2786378AF
:101D70001A43E3795B0343EA0242074BDA6000212E
:101D80000820FFF7BBFE422200210D20FFF788FE4E
:101D9000BDE8F081949D00081C0A0020549D0008B5
:101DA000249D00084C9D0008C89D00087C9D0008EB
:101DB000189D00083C9D00085C9D0008409D00089F
:101DC000489D000810B5044600210420FFF72EFEB0
:101DD00024B120F48020074B586103E040F48020B8
:101DE000044B5861034B5A6900210420FFF786FE1B
:101DF00010BD00BF1C0A002010B4034CA062E162B9
:101E00002263636310BC70471C0A002010B510F0F9
:101E1000010F1AD0044600212620FFF707FE20F408
:101E2000705242F4A05200212620FFF767FE0021E5
:101E30003620FFF7FBFD40F4040200213620FFF7B7
:101E40005DFE14F0020F12D10AE000212620FFF7F8
:101E5000EDFD20F4705200212620FFF74FFE10BD4B
:101E60004FF4887228213620FFF748FE10BD064A3D
:101E700028213620FFF742FE4FF4887228213620B1
:101E8000FFF73CFE10BD00BF10010F0010B582B07F
:101E9000044601AB022200213620FFF78DFD0E2CF7
:101EA0005ED8DFE804F012081B5D5D5D5D24335DE4
:101EB0005D40474E570000238DF804309DF80530F3
:101EC00023F001038DF805304AE09DF8043023F03B
:101ED000030343F001038DF8043041E09DF8043022
:101EE00023F0030343F002038DF8043038E09DF83B
:101EF000043023F04C0343F048038DF804309DF880
:101F0000053063F07F038DF8053029E09DF804303B
:101F100023F04C038DF804309DF8053003F07F0367
:101F20008DF805301CE09DF8053043F002038DF874
:101F3000053015E09DF8053023F002038DF80530DB
:101F40000EE09DF8043023F0300343F020038DF8B9
:101F5000043005E001238DF8043003238DF80530AB
:101F600001AB012200213620FFF7F2FC0DF1050341
:101F7000012211463620FFF7EBFC02B010BD00BF76
:101F800008B50E20FFF782FF4FF4004206212D20F6
:101F9000FFF794FD012001F037FF0120FFF776FFE6
:101FA00008BD00BF08B50020FFF770FF0022042124
:101FB0003620FFF783FD08BD08B5024601210A203F
:101FC000FFF79CFD08BD00BF10B5044610F0020FDE
:101FD00009D0802200210D20FFF762FD0122154B60
:101FE0009A76802200E0002214F0010F17D042F010
:101FF000060200210D20FFF753FD03210F20FFF7FC
:102000002FFD10F4816F12D0402200210D20FFF728
:1020100047FD0022074B9A764FF0FF3010BD42F08B
:10202000020200210D20FFF73BFD002010BD002023
:1020300010BD00BF1C0A002008B503210F20FFF7C8
:1020400021FD80EA400010F0800F04D0012203211E
:102050000D20FFF725FD08BD38B500210E20FFF744
:10206000E5FC054601F09EFE0446002211460E20C6
:10207000FFF744FD402200210D20FFF711FD094A22
:1020800000210F20FFF73AFDFFF7D6FF2A46002177
:102090000E20FFF733FD204601F094FE0022024B94
:1020A0009A7638BDF8FF27241C0A002038B504466C
:1020B00010F0040F01D1FFF7BFFF14F0010511D19B
:1020C0001FE0FFF7C9FF14F0020F08D14FF4807230
:1020D00000210D20FFF7F2FC4FF0FF3517E04FF025
:1020E000FF3514E04FF4407200210D20FFF7E6FCAD
:1020F00003210F20FFF7C6FC10F0080FE1D10025E7
:1021000005E04FF4807200210D20FFF7D7FC284630
:1021100038BD00BF38B5054603210420FFF7B2FCE7
:1021200004468DB12A4600210C20FFF7C7FC0C4A5B
:10213000536943F08053536144F01002D2B203213B
:102140000420FFF7ADFC38BD054A536923F08053E6
:10215000536100F0EF0203210420FFF7A1FC38BD1A
:102160001C0A002070B505460E4601F01BFE044611
:1021700000210E20FFF75AFC16B140EA050201E0EB
:1021800020EA050200210E20FFF7B8FC204601F0EE
:1021900019FE70BD08B5E02203213620FFF780FC50
:1021A000F02203213620FFF77BFC08BD38B5002163
:1021B0000F20FFF73BFC0446464BD86110F4804FDC
:1021C00047D04FF4DE4200210F20FFF797FC414D2E
:1021D000002185F824101020FFF742FC2B7A13B160
:1021E000C0F3090201E000F07F023A4B1A8410F4B8
:1021F000004F06D01A4693F8243043F0010382F8CA
:102200002430354B022200211120FFF7D5FB14F0BA
:10221000080F11D02F4B93F8223013F0200F0BD161
:10222000082200210F20FFF769FC2A4BDA6922F00F
:102230000802DA6100229A76264BDB6A0BB1274846
:102240009847244B5B7C23B1012203210D20FFF72B
:1022500027FC14F0800F13D0F82200210F20FFF785
:102260004DFC14F0080F06D01A4B9B7E1BB1FFF7F4
:10227000F3FEFFF78FFF174B9B6A0BB11748984788
:1022800014F4081F11D04FF4003200210F20FFF783
:1022900035FC104D0023AB76FFF7DEFEFFF77AFF2B
:1022A0002B6B13B105F11C0098470D4B1C4210D04D
:1022B0001A4600210F20FFF721FC064C0023A376CD
:1022C000FFF7CAFEFFF766FF636B13B104F11C0052
:1022D000984738BD1C0A00203E0A0020380A00201A
:1022E0000090052408B5FFF75DFE002211462C2062
:1022F000FFF7E4FB002206212C20FFF7D1FBFFF7BC
:1023000039FC002203213620FFF7CAFB012001F02F
:102310007BFDF02203213620FFF7C2FB0022014B98
:102320009A7608BD1C0A002008B500F01F0242F092
:1023300060020E212B20FFF7B3FB08BD70B50646E7
:10234000364B00225A749A761A839A62DA621A63BA
:102350005A63FFF77FFB324B98425BD1FFF7C2FF16
:102360000020FFF793FD042200212420FFF798FBB3
:102370001E20FFF7E9FB0446C0F30722274B5A72E1
:102380000420FFF7E1FBC0B248B1022212212D2048
:10239000FFF786FB214A138B43F4805313830620F7
:1023A000FFF7D2FB1D4D28600720FFF7CDFB6860CB
:1023B00014F01F0401D02C7402E01022174B1A7481
:1023C000164B187CFFF7B0FF16F0010F07D0FFF790
:1023D000D7FD124A138B43F4006313830AE00521EF
:1023E0003620FFF73DFB4FF6FF5202400521362015
:1023F000FFF764FB0120FFF749FD00220A212C2092
:10240000FFF74EFB00210420FFF710FB034B586140
:10241000002070BD4FF0FF3070BD00BF1C0A0020CF
:102420003001CADE2DE9F041804617461E460C46B3
:1024300001F0B8FC154B10225A61B8F1000F0ED014
:10244000134D2146AE4604EB080211F8013BAB8167
:102450002C89E407FCD58A42BEF80C30F5D167B16F
:102460000B4933460D46F41913F8012B8A810A896A
:10247000D207FCD5A342AA89F6D1044B10221A61D7
:1024800001F0A0FC0020BDE8F08100BF0008014081
:10249000003001402DE9F041804617461E460C46AB
:1024A00001F080FC164B10225A61B8F1000F0FD0DA
:1024B000144D2146AE4604EB080211F8013BAB81F6
:1024C0002C89E407FCD5BEF80C3091423370F4D16E
:1024D00077B10C4933464FF000050E46DC198D816B
:1024E0000A89D207FCD5B28903F8012B9C42F6D1A8
:1024F000034B10221A6101F065FC0020BDE8F08159
:102500000008014000300140F0B5CB7803F00F0621
:1025100013F0100F1CBF8B781E430B78F3B10568C6
:10252000002301274FF00F0C07FA03F20C8832EA60
:1025300004040FD19C000CFA04FE25EA0E0506FAED
:1025400004F42543CC78282C01D1426102E0482CC8
:1025500008BF02610133082BE6D105600B88FF2B11
:1025600020D94568002301274FF00F0E03F1080220
:1025700007FA02F20C8832EA04040FD19C000EFA2A
:1025800004FC25EA0C0506FA04F42543CC78282C33
:1025900008BF4261CC78482C08BF02610133082B88
:1025A000E4D14560F0BD00BF8368194214BF01202B
:1025B00000207047016170474161704730B40028C6
:1025C000184BB4BFDB695B6882B200F44014B4F509
:1025D000401F07D123F07063124D6C6824F07064C3
:1025E0006C6013E010F4801F08D0C0F3034503248F
:1025F000AC4023EA040343F0706307E0440D240178
:1026000002FA04F423EA040343F0706319B1410DA4
:1026100009018A4013430028024AB4BFD3615360C2
:1026200030BC70470000014010B401F003039B0070
:1026300001F0FC0101F1804101F580318C680F222D
:102640009A4024EA02028A608A68984010438860AF
:1026500010BC704708B50D4E0D4D00233268194669
:102660000C48006801F04AFE48B12024FFF79EFDA7
:1026700021462846FFF798FF0128F7D0EDE7002014
:1026800000F0D8FB4FF0FF333360E6E7581300202B
:10269000000C01405013002008B5104802F0F0F97A
:1026A00002F0B4FB02F06EFA0120FFF747FEB0F132
:1026B000FF3F03D10A4802F0AFF8FEE702F068FAE4
:1026C000FFF7C8F9074B984204D10748FFF778FA9B
:1026D000044808BD4FF0FF3008BD00BFAD21000821
:1026E0002C9B00083001CADE3C04002070B588B085
:1026F000042002F0C9FB02F019FC03230093474BAE
:1027000000221146012001F05BFD454B18600020BE
:1027100002F0A2FB0446012002F0AAFB800040EA7E
:10272000440464B2022002F0A3FB44EAC00044B2B5
:10273000042002F09DFB44EA001044B2082002F09D
:1027400097FB44EA401044B2102002F091FB44EAA7
:10275000801044B2202002F08BFB324D44EAC010BE
:1027600028704FF40002304BC3F88020042002F0A0
:102770008BFB2878FFF790FFB0F1FF3F06D10420D4
:1027800002F0A8FB294802F047F844E0284B04ACCB
:102790000FCB84E80F00234D2B789A0002F0400203
:1027A00003F020010A449B1003F0100313441B1193
:1027B00030338DF81F30204602F02EF81D4928785E
:1027C00000F090F81D240426C82514F0010F03D052
:1027D000304602F059FB02E0304602F07BFB28460F
:1027E00001F006FB013CB4F1FF3FEED1042002F002
:1027F0004BFB4FF400020C4B1A600F4B02930F4B34
:1028000001930623009300234FF480620C490D4886
:1028100000F08CFEFEE708B070BD00BF041300207E
:10282000501300205413002000E100E0389B000802
:10283000089B00083C040020AC120020B4130020C8
:10284000489B00085526000800B585B002F068FBDB
:10285000074B0293074B01930523009300234FF48A
:1028600000720549054800F061FE00F049FFFEE7EF
:102870005C130020B42300204C9B0008ED260008C8
:10288000034B0360034B0B604FF4007313607047FE
:10289000540A0020AC0A002008B50246014802F0A4
:1028A0009BFDFEE7549B000800B583B002A90023FE
:1028B00041F8043D094B186801F0C2FC202000F0EB
:1028C000CBFD019B3BB14FF08052054B1A60BFF32B
:1028D0004F8FBFF36F8F03B05DF804FB50130020E0
:1028E00004ED00E038B504460D461A4B1A4A1B4960
:1028F0001B48FFF781FA01211A48FFF733FC00203B
:10290000FFF7ECF80020FFF7F1F80120FFF75AFA83
:102910000120FFF77BFA1448A30003F0400304F002
:1029200020021344A41004F010041C442411047069
:1029300000214170072303714171C17040221030A2
:10294000FEF7A2FE6A78094B1A702A78084B1A70B3
:1029500038BD00BFA12E0008352E0008692F0008E1
:10296000FD2E000880D02304382E0020B92E002030
:10297000B82E002030B583B00F494C79002343EACC
:102980005413E206D1E9020112184B41CDE90023AC
:10299000FA20FFF7BFFBDDF80100FFF70DFB012078
:1029A000FFF784FB28B1FA20FFF7B4FB0020FFF704
:1029B0007DFB03B030BD00BF382E00200B4A537999
:1029C00013710133DBB25371072B03D90022074B7C
:1029D0005A7100E043B90549D1E9022312F180425E
:1029E00043F10003C1E90223704700BF382E0020E5
:1029F00010B5184B1B78B3B1174B184A144603CCCB
:102A0000C3F80D00C3F8111015490978597303CAAA
:102A1000C3F80500C3F80910FF225A7121225A7524
:102A200000220C4B1A700C480D4AD378837500F1C4
:102A3000170310323F30116819601179197105338D
:102A400008328342F7D1002203493F20FEF7A2FF5C
:102A500010BD00BF60040020642C0020949B00087F
:102A6000382E0020000000002DE97003104BD3E940
:102A700002450DA3D3E90023A4185D414FEAE17993
:102A80004FEAC96343EA5113CA0612196B41C0E900
:102A9000002322F4FF7222F0010202F500720260AC
:102AA000BDE87003704700BFA7F97F000000000079
:102AB000382E0020F0B583B0134C2678B71C61790E
:102AC0006846FFF7D1FF04EBC7049DE8030084E8E4
:102AD00003001EB90C4AD3780133D370FFF788FF87
:102AE000002211463F20FFF71FF8074B1A780232E9
:102AF00003EBC203D3F80100FFF75EFA0120FFF7F2
:102B000063FA03B0F0BD00BF382E002070B5054653
:102B10000846144B1B78012B19BF134E134C144E4F
:102B2000144CFDF7A9FE01462846FDF759FF02F0B7
:102B30003DFA1149FDF7A0FE2146FDF793FD04463D
:102B40000E49FEF741F858B90D492046FDF78CFDB6
:102B50003146FDF791FE01462046FDF785FD70BD2B
:102B6000204670BDB92E00206D56953FE17AF342A4
:102B70006D561540A470E742000020410000B0C22D
:102B80000000B04230B583B006211220FEF768FF86
:102B9000054601AB042200211020FEF70DFF9DF831
:102BA00006009DF807301B0143EA1010FDF70CFEEC
:102BB00004462846FDF708FE4FF09041FDF75CFE05
:102BC0002146FFF7A3FF03B030BD00BFF8B50646AE
:102BD000FFF7D8FF4A49FDF747FD00F100404FF0ED
:102BE0007C51FDF749FE044620F000454549284642
:102BF000FEF708F8002840F0818042492846FDF79A
:102C0000F7FF00287AD12046FEF712F8002805DBEE
:102C1000431C112B04DD1123184601E00023184644
:102C2000394A1278042A01D0072A1FD1374A12786C
:102C3000012A0CD1062B364AD75CD8BF7F427F00D1
:102C40000628334B1D5CD8BF6D426D002FE0022A71
:102C500028D1062B2F4AD75CD8BF7F427F00062899
:102C60002C4B1D5CD8BF6D426D0020E0274A1278C6
:102C7000012A0AD1092B284AD75CD8BF7F420928EC
:102C8000254B1D5CD8BF6D4211E0022A0DD1072BE8
:102C9000224AD75CD8BF7F420728204B1D5CD8BF93
:102CA0006D4204E000252F4601E000252F46FDF788
:102CB0008FFD01462046FDF7D5FC0446781BFDF745
:102CC00087FD01462046FDF7D7FD04462846FDF75F
:102CD0007FFD01462046FDF7C7FC1149FDF7CCFDFD
:102CE0001049FDF7C9FDFDF7A3FFD6E9002314182D
:102CF00043EBE07520462946C6E90001F8BD00BF58
:102D000000007442FFFF7F7FB82E0020B92E002004
:102D1000809B00089C9B00086C9B0008B09B0008EF
:102D2000B32355436F12833A30B585B03F4B9B7840
:102D300013B1012B71D075E00446002950D104ADC8
:102D40000022002365E904232846FEF75FFE28469B
:102D5000FFF73CFF0022A1883548FEF74DFEA3880F
:102D60004BB1334B5B7D212B05D1314B5B7B2F4A24
:102D700012799A420DD02D4B1A79911C03EBC103A5
:102D800000200021C3E90001002A35D1274B5A70E9
:102D900032E09A1C254901EBC2029DE8030082E85B
:102DA00003004BBB04AA0020002162E90201204C71
:102DB00003EB8303234453F8170F02901B7913711D
:102DC0001A4DDDE9022322F040400021DDE9002315
:102DD000121A63EB0103C5E90223A37DEB700BE03C
:102DE000124B1A79911C03EBC10300200021C3E9A7
:102DF00000010AB90D4B5A700C4B5A791B789A4254
:102E000005D1FFF757FE0122084B9A700AE0FFF741
:102E1000B1FD0022054B9A7004E0FFF7ABFD0022E4
:102E2000024B9A70FFF7CAFD05B030BD382E002066
:102E30000C2C002010B50446042002F025F80020D8
:102E400002F048F8144B5B78022B04D10121204694
:102E5000FFF76AFF10BD104B1B78B3B90F4C20462B
:102E6000FEF7DCFD74E8022302F0404212F100425A
:102E700043F10003C4E9022302236370FFF71AFE43
:102E80000123A370FFF79AFD10BDFA20FFF742F966
:102E90000020FFF70BF910BD382E0020402E002037
:102EA00010B5144B5B78022B03D10221FFF73CFFD6
:102EB00010BD104B1B78B3B90F4C2046FEF7AEFD8A
:102EC00074E8022302F0404212F1004243F1000391
:102ED000C4E9022302236370FFF7ECFD0123A37012
:102EE000FFF76CFD10BDFA20FFF714F90020FFF783
:102EF000DDF810BD382E0020402E002010B504460D
:102F0000042001F0C1FF032001F0E4FF144B5B78C3
:102F1000022B04D103212046FFF706FF10BD104B02
:102F20001B78B3B90F4C2046FEF778FD74E80223F6
:102F300002F0404212F1004243F10003C4E90223CF
:102F400002236370FFF7B6FD0123A370FFF736FD80
:102F500010BDFA20FFF7DEF80020FFF7A7F810BD3C
:102F6000382E0020402E002030B585B005460420C4
:102F700001F08AFF012001F0ADFF344B5B78022B9A
:102F800004D100212846FFF7CFFE5DE02F4B1B78D0
:102F9000B3B92F4C2046FEF741FD74E8022302F03E
:102FA000404212F1004243F10003C4E9022302232C
:102FB0006370FFF77FFD0123A370FFF7FFFC43E081
:102FC00004AC0022002364E904232046FEF71EFD22
:102FD0002046FFF7FBFD1F4C0022A9882046FEF784
:102FE0000BFD637B53BB637D212B27D104AB0020FA
:102FF000002163E902012546224652F8170F02908C
:1030000012791A71114CDDE9002312F1804243F16B
:103010000003DDE9020120F040400021121A63EBB9
:103020000103C4E90223AB7DE370FFF743FD0023F6
:10303000A37002236370FFF7C1FC05E0FA20FFF7DD
:1030400069F80020FFF732F805B030BD382E0020B7
:10305000402E0020B42B0020104B1A6842F00102D1
:103060001A6059680E4A0A405A601A6822F084723F
:1030700022F480321A601A6822F480221A605A6898
:1030800022F4FE025A601A6822F0A0521A604FF42D
:103090007F029A600022DA62704700BF001002408F
:1030A0000000FFF00D4B1A6822F480321A601A6893
:1030B00022F480221A60B0F5803F03D0B0F5802F53
:1030C00006D07047054A136843F480331360704795
:1030D000024A136843F4A0231360704700100240B3
:1030E000034A536823F4741319430843506070472C
:1030F00000100240014B1860704700BF6000424260
:10310000044AD36A23F4803323F00F03194308439E
:10311000D062704700100240034AD36A23F0F003E4
:103120001843D062704700BF00100240034AD36AC0
:1031300023F470631843D062704700BF0010024050
:10314000014B1860704700BF68004242034A536851
:1031500023F0030318435060704700BF0010024083
:10316000024B586800F00C00704700BF001002408E
:10317000034A536823F0F00318435060704700BFC0
:1031800000100240034A536823F4E0631843506080
:10319000704700BF00100240034A536823F4605395
:1031A00043EAC0005060704700100240034A536871
:1031B00023F4404318435060704700BF00100240A2
:1031C00030B4354B5B6803F00C03042B06D0082B9E
:1031D00007D0002B3AD1314B036039E0304B03600C
:1031E00036E02D4A5368526802F48032C3F38343B9
:1031F0000D2B14BF0233062322B92A4A02FB03F324
:10320000036025E0244AD16AD26A02F00F0201323B
:1032100011F4803F06D12249B1FBF2F203FB02F325
:10322000036015E01C49CC6AC96AC4F30314013475
:103230001B4DB5FBF4F4C1F30321023101FB04F192
:10324000B1FBF2F203FB02F3036001E0134B0360F6
:1032500011494B68C3F30313134CE35CDAB2036800
:10326000D34043604A68C2F30222A25CD2B223FA7E
:1032700002F282604A68C2F3C222A25CD2B2D34098
:10328000C3604A68C2F3813208498A5CD2B2B3FB98
:10329000F2F3036130BC70470010024000127A0064
:1032A000001BB70000093D006804002064040020F2
:1032B00021B1054B9A69104398617047024A93699E
:1032C00023EA0000906170470010024021B1054BD5
:1032D000DA691043D8617047024AD36923EA0000D3
:1032E000D06170470010024021B1054BDA681043ED
:1032F000D8607047024AD36823EA0000D060704764
:103300000010024021B1054B1A6910431861704743
:10331000024A136923EA000010617047001002405E
:103320004309012B02D1074B1B6804E0022B054B1C
:103330000CBF1B6A5B6A00F01F0023FA00F000F06C
:10334000010070470010024010B582B000230193C5
:1033500031242046FFF7E4FF019B01330193019BD9
:10336000B3F5A06F01D00028F3D03120FFF7D8FFCC
:10337000003018BF012002B010BD00BF002103E0E3
:103380000B4B5B58435004310A480B4B42189A428E
:10339000F6D30A4A02E0002342F8043B084B9A4263
:1033A000F9D3FEF739FAFEF747F9FFF74DFA704700
:1033B00088A0000800000020FC090020000A00206E
:1033C000D02E0020FEE700008379002B34D010B40B
:1033D000204B1A68016822EA01021A605A680168E3
:1033E00022EA01025A60027902F1804202F5823239
:1033F00014680168214311609A68016822EA010299
:103400009A60DA68016822EA0102DA604379102BD7
:1034100009D1104B996802680A439A60D96802681A
:103420000A43DA6013E003F1804303F5823319683D
:1034300002680A431A600AE0037903F1804303F546
:1034400082331A68016822EA01021A60704710BCD0
:10345000704700BF00040140014B5861704700BF36
:1034600000040140084B1B681B6823B94FF0FF3272
:10347000064B1A607047044B1B68DB68DB685A68B0
:10348000024B1A60704700BFC02C00208C2D00201A
:1034900070B504460E461E4B1D681E4B1A6800216F
:1034A00082F855101868043000F0E8FC48B9194B50
:1034B0001B6819490A68D86A0123834022EA03037A
:1034C0000B60B4F1FF3F07D136B1124B19680431DC
:1034D000124800F0ADFC70BD2C440E4B1B685C60C4
:1034E000A54207D90E4B18680A4B1968043100F041
:1034F000ABFC70BD0B4B1868064B1968043100F02B
:10350000A3FC094B1B689C423CBF074B1C6070BD71
:10351000942D0020982D0020E02D0020CC2D00209F
:10352000E02C0020C02C00208C2D00202DE9F84F2D
:1035300083460B980C9C002840F0BE80614940F205
:103540005520FFF7A9F9002C40F0AD805D4940F20D
:103550005620FFF7A1F90020BDE8F88F2063950001
:103560002A46A521FEF790F8043D236B1D4425F063
:10357000070598F8003084F8343098F8003063B1CB
:10358000434604F1340208F10F0813F8010F02F862
:10359000010F187808B14345F7D1002684F843603D
:1035A0000A9B062B28BF06231F46E3626364A664BA
:1035B00004F1040A504600F037FC04F1180000F052
:1035C00033FC2461C7F10703A3616462E6642665E6
:1035D00084F8546084F855604A465946284600F0FD
:1035E00079FF206000F09EFF374A136801331360B3
:1035F000364B1B681BBB354B1C601368012B29D154
:10360000334D05F18C06284600F002FC1435B54216
:10361000F9D1304E304600F0FBFB2F4D284600F02C
:10362000F7FB2E4800F0F4FB2D4800F0F1FB2D488D
:1036300000F0EEFB2C4B1E602C4B1D600AE02C4B67
:103640001B683BB9214B1B68DA6AE36A9A429CBF4C
:103650001E4B1C60274A136801331360E06A264939
:103660000A680123834013430B6000EB800051463E
:10367000174B03EB800000F0DBFB00F073FF1C4BEB
:103680001B689BB1114B1B68DA6AE36A9A4210D23D
:103690004FF08052194B1A60BFF34F8FBFF36F8FFB
:1036A0002046BDE8F88F0020BDE8F88F2046BDE831
:1036B000F88F2046BDE8F88F88469946002C7FF4A5
:1036C0004DAF43E7C49B0008B42D0020982D002087
:1036D000E82C0020CC2C0020B82D00209C2D0020B0
:1036E000742D0020CC2D0020C02C0020E02C0020C8
:1036F000C42C0020B02D0020E02D002004ED00E0BF
:1037000010B588B000240594069407AA06A905A858
:10371000FFF7B6F8059B0293069B0193009423469E
:10372000079A0E490E48FFF701FF0E4B186090B143
:103730004FF0BF0383F31188BFF36F8FBFF34F8F39
:103740004FF0FF32084B1A600122084B1A60084BF9
:103750001C6000F061FF08B010BD00BF2C9C000889
:10376000B1390008902D00208C2D0020C42C0020A1
:10377000942D0020024A136801331360704700BF84
:10378000C82C00202DE9F0473F4B1B68002B6CD163
:103790003E4B1A6802F10108C3F80080B8F1000F2F
:1037A00014D13B4B1B681B6823B13A4940F6D91032
:1037B000FFF772F8364A1168374B186810601960C5
:1037C000364A136801331360FFF74CFE344B1B6815
:1037D000984501D2002637E000262D4FDFF8D4901F
:1037E000DFF8C4A03B681B6823B94FF0FF322C4BB5
:1037F0001A6029E03B68DB68DC686368984502D2A0
:10380000274A136020E0251D284600F037FBA36AF5
:103810001BB104F1180000F031FBE06AD9F8002078
:10382000012383401343C9F8003000EB8000294690
:103830000AEB800000F0FCFA1A4B1B68E26ADB6AB4
:103840009A4228BF0126CDE7164B1B68DB6A03EBC3
:103850008303154A52F82330022B28BF0126134B4D
:103860001B684BB900F09AFB06E0104A136801335D
:10387000136000F093FB00260D4B1B68002B0CBF60
:1038800030460120BDE8F087C82C0020942D002090
:10389000C02C0020C49B0008E02C0020BC2C002081
:1038A0008C2D0020982D0020E82C0020E42C0020F6
:1038B000E42D0020E02D00202DE9F041324B1B6863
:1038C00023B932494FF4FD60FEF7E6FF00F02AFE0F
:1038D0002D4B1A68013A1A601B68002B4BD12C4BF8
:1038E0001B6813BB002449E0F368DC6804F118008E
:1038F00000F0C4FA251D284600F0C0FAE06A3A68D4
:103900000123834013433B6000EB8000294608EB12
:10391000800000F08DFA1F4B1B68E26ADB6A9A4256
:1039200008D301221C4B1A6004E000241B4E1C4FDC
:10393000DFF878803368002BD6D10CB1FFF792FD09
:10394000184B1C6854B1144E0125FFF71BFF00B142
:103950003560013CF9D10022124B1A600E4B1B68F6
:103960005BB14FF08052104B1A60BFF34F8FBFF323
:103970006F8F012402E0002400E0002400F0F2FD3B
:103980002046BDE8F08100BFC82C0020C49B000881
:10399000B42D0020982D0020E42D00209C2D002027
:1039A000E02D0020E42C002004ED00E0E82C0020B5
:1039B00080B5144D144E154F15E0FFF7DBFE34684B
:1039C000FFF77AFF7CB100F0ADFDF368D8680430F2
:1039D00000F054FA0E4A1368013B13602B68013B58
:1039E0002B6000F0BFFD2B68002BE6D1094B1B6854
:1039F000012BF8D94FF080533B60BFF34F8FBFF3DB
:103A00006F8FF0E7882D0020742D002004ED00E07A
:103A1000B42D0020E82C00201C4B1B681BB1012298
:103A20001B4B1A60704710B50022194B1A60194BD6
:103A30001C68B4FA84F4E4B2C4F11F0404EB8402F9
:103A4000154B53F8223023B9144940F6F620FEF7FF
:103A500023FF114BA200111903EB81014868406854
:103A600048600B460833984206D1416804EB840352
:103A7000094A02EB8303596004EB8404064B03EB11
:103A800084046368DA68064B1A6010BDC82C0020F5
:103A9000E42D0020E02D0020E82C0020C49B00082D
:103AA000982D002038B50C46054620B9074940F648
:103AB0000630FEF7F1FE064B19681831284600F073
:103AC000C3F901212046FFF7E3FC38BDC49B000881
:103AD000982D002038B5C368DC6824B9174940F632
:103AE0006130FEF7D9FE04F11805284600F0C6F94A
:103AF000134B1B689BB9251D284600F0BFF9E06AEF
:103B000010490A680123834013430B6000EB8000D7
:103B100029460D4B03EB800000F08AF903E02946AB
:103B20000A4800F085F90A4B1B68E26ADB6A9A4290
:103B300083BF0120074B1860002038BDC49B0008DC
:103B4000C82C0020E02D0020E82C00209C2D002017
:103B5000982D0020E42D002010B5044620B9064918
:103B600040F6C130FEF798FE044B1B682360044BFF
:103B70001B68636010BD00BFC49B0008BC2C002004
:103B8000942D002038B50C46054620B91D4940F655
:103B9000CB30FEF781FE24B91A4940F6CC30FEF74F
:103BA0007BFE00F0BFFC184B1A68184B1B6893F89B
:103BB000553033B1154B1B68002283F85520012482
:103BC0001CE02368B3F1FF3F13D01149096828684E
:103BD000884202D069688A420DD26968501A8342CD
:103BE0000BD98A1A134423602846FFF7B5FF002437
:103BF00004E0002402E0012400E0012400F0B2FC13
:103C0000204638BDC49B0008942D0020982D00202C
:103C1000BC2C00200122014B1A607047E42D0020CB
:103C2000054B1B6833B1054B1B68002B0CBF0220F2
:103C30000020704701207047C42C0020C82C0020B1
:103C4000002845D038B50346C26A22490968C96AC6
:103C50008A423CD28169002905DB1E490968C96A8C
:103C6000C1F10701816102EB82021B4901EB820273
:103C70005969914227D11C461D1D284600F0FEF8C7
:103C800070B9E36A03EB8301134A52F821203AB971
:103C900012480268012101FA03F322EA03030360D8
:103CA0000C4B1B68D86AE0620C490A680123834008
:103CB00013430B6000EB80002946074B03EB8000A9
:103CC00000F0B6F838BD034A1268D26ADA6238BD2D
:103CD000704700BF982D0020E82C0020E02D002028
:103CE000002843D038B50446234B1B68984204D0C3
:103CF000224940F6C760FEF7CFFDA36C23B91F49E8
:103D000040F6C960FEF7C8FDA36C013BA364E16AFD
:103D1000626C91422CD06BBB251D284600F0AEF89A
:103D200070B9E36A03EB8301154A52F821203AB9CE
:103D300014480268012101FA03F322EA0303036035
:103D4000606CE062C0F10703A3610E4A13680124AE
:103D500004FA00F10B43136000EB80002946084B86
:103D600003EB800000F064F8204638BD0020704767
:103D7000002038BD002038BD982D0020C49B0008CD
:103D8000E82C0020E02D0020054B1B6823B1044BDC
:103D90001A68936C01339364014B1868704700BF35
:103DA000982D002008B5172000F060FE034620B1D2
:103DB0004FF40001024AC2F88010184608BD00BF47
:103DC00000E100E018B14FF40002014B1A607047A7
:103DD00000E100E0C1F30801818070478088C0F3F2
:103DE000080070470388194214BF01200020704763
:103DF00010B5044600F0E4FD044400F0E1FD001BB2
:103E00000028FADD10BD00BF08B5FFF7F1FF08BDBF
:103E100000F1080343604FF0FF328260C36003612A
:103E200000230360704700BF00230361704700BF99
:103E300043684B609A688A609A685160996008612B
:103E4000036801330360704730B40D68B5F1FF3F7C
:103E500001D1026907E000F1080200E01A46536848
:103E60001C68A542FAD253684B6099608A60516021
:103E7000086103680133036030BC7047036942681E
:103E8000816891608268416851605A68904204BFBD
:103E900082685A6000220261186801381860704711
:103EA00070B50446094B1B6813B9094A074B1A60E1
:103EB000064E3568FDF7ACFC3368234483429DBF52
:103EC0003246136028464FF0FF3070BDE82D0020C9
:103ED000D02E0020B8B92DE9F0410E4690467AB1B7
:103EE0008F182025094C29462046FFF77BFF002824
:103EF000F9D02046FFF772FF06F8010BBE42F2D15F
:103F00004046BDE8F0814FF0FF307047004400406C
:103F10000138012817D82DE9F0410F4690467AB1B3
:103F200016468025094C29462046FFF75BFF0028EE
:103F3000F9D017F8011B2046FFF74CFF013EF2D1E4
:103F40004046BDE8F0814FF0FF307047004400402C
:103F5000002070474FF400534B600020704700BFB3
:103F600002288CBF00200120704700BF002070474E
:103F7000034A136803F0380318431060704700BF0A
:103F800000200240044B1A6822F010021A601A68DE
:103F900010431860704700BF00200240024A1368B7
:103FA00001331360704700BFC82E002070B504466F
:103FB0001646856B026C42B9036800206BBB6068D3
:103FC000FFF78EFE0023636027E06EB98068FCF780
:103FD00055FEA268236C1344A3606268934217D312
:103FE0002368A360002018E0C068FCF747FE236C3C
:103FF0005B42E2681A44E26021688A4202D2626847
:104000001344E360022E05D135B1013D002004E0E8
:10401000002002E0002000E000200135A56370BD13
:1040200070B582B001900E46846C24B9184940F6F0
:10403000CE10FEF731FCA26BE36B9A4204D3144915
:1040400040F6CF10FEF728FCA26BE36B9A421AD21F
:1040500094F845506DB2324601A92046FFF7A6FFFD
:104060000646B5F1FF3F09D1636A6BB104F1240044
:10407000FFF730FD002818BF012605E001356DB2BD
:1040800084F8455000E00026304602B070BD00BF05
:10409000349C0008026C72B110B5C3681344C3604D
:1040A0004468A34224BF0368C3600C46C16820462D
:1040B000FCF7E4FD10BD7047F8B5054600F032FA94
:1040C00095F8454064B2002C18DD002605F1240760
:1040D000AB6C3BB131462846FFF7A2FF50B1FFF76A
:1040E00099FD07E06B6A4BB13846FFF7F3FC08B166
:1040F000FFF790FD013C64B2002CE9D1FF2385F865
:10410000453000F02FFA00F00DFA95F8444064B203
:10411000002C11DD2B6905F110061BB90CE02B6991
:1041200003B909E03046FFF7D5FC08B1FFF772FD8F
:10413000013C64B2002CF2D1FF2385F8443000F03A
:1041400011FAF8BD38B50D46044620B91A4940F2B7
:104150001B10FEF7A1FB00F0E5F92268216CE36B70
:1041600003FB01F3D01860600020A063A2605B1A1B
:104170001344E360FF2384F8443084F845307DB96C
:104180002369ABB104F11000FFF7A4FC80B14FF03C
:1041900080520A4B1A60BFF34F8FBFF36F8F07E057
:1041A00004F11000FFF734FE04F12400FFF730FEA5
:1041B00000F0D8F9012038BD349C000804ED00E07F
:1041C000F0B583B00E4615461C46074620B91B497C
:1041D0004FF4A970FEF760FB24B918494FF4AB7097
:1041E000FEF75AFB1DB356B914494FF4AD70FEF7F4
:1041F00053FB04E0114940F25B10FEF74DFB4C23EA
:104200000193019B4C2B04D00C4940F26310FEF744
:1042100043FB7CB1002E08BF25462560E76326647A
:1042200001212046FFF78EFF0023A36402E0002E49
:10423000E0D1E4E7204603B0F0BD00BF349C0008A5
:1042400070B50E46044620B92B4940F23C40FEF7BB
:1042500023FB236C23B128494FF48860FEF71CFB35
:10426000236833B9636823B1234940F24540FEF720
:1042700013FB00F023FAEFF311854FF0BF0383F334
:104280001188BFF36F8FBFF34F8FA26BE36B9A421E
:1042900023D294F845305BB20132A263B3F1FF3F01
:1042A00015D1A36C43B100212046FFF7B9FEB0B190
:1042B000BEB1012030601BE0636AA3B104F12400A9
:1042C000FFF708FC88B196B10120306010E001339F
:1042D0005BB284F8453001200AE0002008E00120AC
:1042E00006E0012004E0012002E0012000E00120BE
:1042F00085F3118870BD00BF349C00082DE9F0479C
:1043000084B0884601929946044620B95B4940F240
:10431000DC40FEF7C1FAB8F1000F06D1236C23B1DF
:10432000564940F2DD40FEF7B7FAFFF779FC30B9A5
:10433000019B23B151494FF49C60FEF7ADFA002573
:104340004FF0010A4E4F00F0EDF8A66B96B3E5680A
:1043500041462046FFF79EFEB9F1000F16D1731EAD
:10436000A363236813B9FFF70FFD60602369EBB106
:1043700004F11000FFF7AEFBC0B14FF08052404B8C
:104380001A60BFF34F8FBFF36F8F0FE0E560636A72
:1043900063B104F12400FFF79DFB38B14FF0805268
:1043A000374B1A60BFF34F8FBFF36F8F00F0DAF80F
:1043B000012060E0019B1BB900F0D4F800205AE016
:1043C0001DB902A8FFF7C8FB554600F0CBF8FFF770
:1043D000D1F900F0A7F894F844305BB2B3F1FF3F95
:1043E00004BF002384F8443094F845305BB2B3F145
:1043F000FF3F04BF002384F8453000F0B3F801A963
:1044000002A8FFF7BFFB40BB00F08CF8A66B00F0E2
:10441000A9F8E6B9236833B900F084F86068FFF7BB
:104420000FFC00F09FF8019904F12400FFF73AFB1C
:104430002046FFF741FEFFF73FFA002883D14FF0F7
:1044400080533B60BFF34F8FBFF36F8F7BE72046F6
:10445000FFF732FEFFF730FA75E72046FFF72CFE34
:10446000FFF72AFA00F05EF8A66B00F07BF8002E4A
:104470007FF469AF002004B0BDE8F087349C0008E9
:1044800004ED00E006480068006880F3088862B622
:1044900061B6BFF34F8FBFF36F8F00DF00BF000027
:1044A00008ED00E008B5094B1B68B3F1FF3F03D0EE
:1044B0000749F220FEF7F0F94FF0BF0383F31188AC
:1044C000BFF36F8FBFF34F8FFEE700BF780400206C
:1044D0009C9C00084FF0807340F8043C21F00101DF
:1044E00040F8081C034B40F80C3C40F8202C4038A6
:1044F000704700BFA5440008000000000000000055
:10450000074B19680868B0E8F00F80F30988BFF31B
:104510006F8F4FF0000080F311884EF00D0E704742
:10452000982D002008B54FF0BF0383F31188BFF327
:104530006F8FBFF34F8F084A136801331360012B4D
:1045400009D1064B1B6813F0FF0F04D0044940F259
:104550007F10FEF7A1F908BD7804002004ED00E00B
:104560009C9C000808B5084B1B6823B907494FF409
:10457000C370FEF791F9044A1368013B13600BB94D
:1045800083F3118808BD00BF780400209C9C0008BC
:10459000EFF30980BFF36F8F0D4B1A6820E9F00F1E
:1045A00010602DE908404FF0BF0080F31188FFF73D
:1045B00033FA4FF0000080F31188BDE80840196815
:1045C0000868B0E8F00F80F30988BFF36F8F704779
:1045D000982D002008B54FF0BF0383F31188BFF377
:1045E0006F8FBFF34F8FFFF7CDF818B14FF08052A8
:1045F000024B1A60002383F3118808BD04ED00E02C
:10460000034A044B1A600722043B1A60704700BF3C
:104610003F19010014E000E000B583B0224B1A7886
:10462000D2B20192FF221A701B78DBB28DF80330F0
:104630009DF8033003F0BF031C4A137007221C4B84
:104640001A609DF8033013F0800F10D0062200E0AE
:104650000A469DF803305B00DBB28DF803309DF80D
:104660000330511E13F0800FF2D1114B1A60104A23
:1046700013681B0203F4E0631360019BDBB20A4A78
:1046800013700C4B1A6842F47F021A601A6842F0E9
:104690007F421A60FFF7B4FF0022074B1A60FFF752
:1046A000F1FEFFF7FFFE00BF00E400E0EC2D00206C
:1046B000F02D002020ED00E07804002008B5EFF395
:1046C00005830F2B0BD90D4A9B5CDBB20C4A127889
:1046D0009A4204D90B4940F29E20FEF7DDF80A4BBE
:1046E0001B6803F4E063094A1268934204D9054940
:1046F00040F2AE20FEF7D0F808BD00BFF0E300E0C6
:10470000EC2D00209C9C00080CED00E0F02D00201A
:104710002DE9F8438046174681B13D4C4FF40061C6
:104720002046FDF747FF4FF480512046FDF744FF38
:104730004FF00009B8F1000F17D13EE0012856D123
:1047400092F8009019F0030918BF4FF00109304C9E
:104750004FF400612046FDF72FFF4FF480512046B3
:10476000FDF72AFF01E04FF00009013F0026294C28
:10477000012517F8011F204600F008F929462046B8
:1047800000F018F90028F9D0204600F001F90136B0
:104790004645EED31E4C4FF400612046FDF70CFF5A
:1047A0004FF480512046FDF705FFB9F1000F2DD0E1
:1047B0000220FFF71DFBBDE8F883154C4FF40061A4
:1047C0002046FDF7F9FE4FF480512046FDF7F2FE3A
:1047D000BDE8F8830E4C4FF400612046FDF7ECFE77
:1047E0004FF480512046FDF7E5FEBDE8F883084C04
:1047F0004FF400612046FDF7DFFE4FF48051204664
:10480000FDF7DAFEB8F1000FADD1E3E7BDE8F883BC
:10481000000C01400038004070B582B0064602AC82
:10482000022304F8013D224600210120FFF770FF1A
:1048300001258DF80750224600212846FFF768FF22
:10484000304600F0DDFD32462946FFF761FF02B039
:1048500070BD00BF40F0BF6040F40030014BD86035
:10486000704700BF00ED00E0C378FBB1154BDA687C
:10487000D243C2F30222C2F10401437803FA01F1E8
:104880000F23D340827813400B4302781B01DBB225
:104890000D490A4482F800330378580903F01F03D6
:1048A000012202FA03F341F82030704703785A09D5
:1048B00003F01F03012101FA03F32032024941F8FA
:1048C0002230704700ED00E000E100E008B5154B34
:1048D00098420AD101214FF48050FEF705FD0021D6
:1048E0004FF48050FEF700FD08BD0F4B98420AD1EF
:1048F00001214FF48040FEF705FD00214FF4804078
:10490000FEF700FD08BD094B984209D101214FF483
:104910000040FEF7F7FC00214FF40040FEF7F2FCE8
:1049200008BD00BF0030014000380040003C00409E
:1049300010B4038803F441540A884B8813438A88CF
:104940001343CA8813430A8913434A8913438A8944
:104950001343CA89134323439BB20380838B23F4FD
:1049600000631B041B0C83830B8A038210BC7047FB
:1049700029B103889BB243F040030380704703884A
:1049800023F040031B041B0C038070478181704798
:10499000808980B2704700BF29B183889BB243F001
:1049A000040383807047838823F004031B041B0CDB
:1049B000838070470389194214BF0120002070478B
:1049C000014B1868704700BFC82E0020094B1B68B8
:1049D000094AA2FB03239B09013B084A5360084B89
:1049E000F02183F82310002090600721116083F8E4
:1049F000230070472C040020D34D621010E000E02B
:104A000000ED00E030B585B02024ADF80C4028233F
:104A10008DF80F3003A91448FDF776FD052101201C
:104A2000FDF702FE019400248DF8084008238DF85C
:104A3000093001258DF80A5001A8FEF7C5FC4FF496
:104A40004070FFF707FF17238DF800300F238DF814
:104A500001308DF802408DF803506846FFF704FFDF
:104A6000204605B030BD00BF000C0140034B1B6861
:104A7000034214BF01200020704700BF0004014022
:104A800010B504461720FFF7F1FF40B1054B4FF476
:104A90000002C3F8802004490C601A6010BD024B6C
:104AA0001C6010BD00E100E0F42D002010B586B0C0
:104AB000FEF7D2FA4FF48030FEF7F4FAFEF744FC2A
:104AC00000283ED01020FFF75DFA0220FFF750FAD1
:104AD0000020FEF74DFB0020FEF75EFB4FF48060E8
:104AE000FEF750FB4FF40040FEF760FB3020FEF76E
:104AF00013FB4FF4C060FEF719FB0120FEF720FB0B
:104B00003B242046FEF70CFC0028FAD002214FF48B
:104B10008030FEF7F5FA4FF4E0114FF48030FEF7E5
:104B2000DFFA0120FEF7E6FA39242046FEF7F8FB0B
:104B30000028FAD00220FEF709FBFEF711FB082837
:104B4000FBD101A8FEF73CFB01214FF48050FEF79A
:104B5000AFFB01214FF48040FEF7B8FB01217D201F
:104B6000FEF7A6FB002006B010BD00BF044A138864
:104B700023F038031B041B0C18431080704700BF40
:104B80000030014008B52020FFF7F0FF08BD00BF4E
:104B900008B50820FFF7EAFF08BD00BF2DE9F04186
:104BA00086B02A4F3846FFF791FE0024ADF8044046
:104BB0004FF48273ADF80630ADF80840ADF80A4006
:104BC000ADF80C404FF40073ADF80E301026ADF880
:104BD0001060ADF812400723ADF8143001A9384633
:104BE000FFF7A6FEA023ADF8003018238DF80330A0
:104BF0004FF003088DF80280154D69462846FDF7F1
:104C000083FC4023ADF8003048238DF8033069461B
:104C10002846FDF779FCADF800608DF803608DF84B
:104C2000028069462846FDF76FFC21463846FFF7AB
:104C3000B3FE01213846FFF79BFE31462846FDF7BB
:104C4000B9FC204606B0BDE8F08100BF003001404D
:104C5000000801402DE9F04786B03A4F3846FFF78B
:104C600035FE0025ADF804504FF48273ADF80630E0
:104C7000ADF808500223ADF80A304FF0010AADF844
:104C80000CA04FF40073ADF80E303023ADF81030A7
:104C9000ADF812500723ADF8143001A93846FFF7DC
:104CA00047FE4FF42043ADF8003018238DF8033051
:104CB00003268DF80260244C69462046FDF724FC4B
:104CC0004FF48043ADF8003048238DF80330694637
:104CD0002046FDF719FC4FF48059ADF800904FF0D5
:104CE00010088DF803808DF8026069462046FDF7B4
:104CF0000BFC29463846FFF74FFE51463846FFF772
:104D000037FE49462046FDF755FC4FF40063ADF8E9
:104D100000308DF803808DF8026069462046FDF76B
:104D2000F3FB4FF48063ADF800308DF803808DF80D
:104D3000026069462046FDF7E7FB284606B0BDE85D
:104D4000F08700BF00380040000C0140F0B583B090
:104D500001217D20FEF7ACFA4FF6FF73ADF8043069
:104D600000268DF8076001A92348FDF7CDFB234FEE
:104D700001A93846FDF7C8FB214C01A92046FDF7E3
:104D8000C3FB01A91F48FDF7BFFB01A91E48FDF7A2
:104D9000BBFB0425ADF804508DF807500DEB050161
:104DA0003846FDF7B1FB3F27ADF804708DF807508A
:104DB0000DEB05012046FDF7A7FBADF804708DF85B
:104DC00007500DEB05012046FDF79EFB4FF4707375
:104DD000ADF8043010238DF8073003238DF806302A
:104DE0000DEB05012046FDF78FFB31460120FDF755
:104DF000E5FB304603B0F0BD00080140000C014067
:104E000000100140001401400018014070B582B04C
:104E10000125ADF8045010238DF8073003268DF8D6
:104E200006600C4C01A92046FDF76EFB2946204682
:104E3000FDF7C2FBADF8045000238DF807308DF864
:104E4000066001A92046FDF75FFB0220FEF7D0FFB8
:104E500002B070BD0008014008B504210348FDF709
:104E6000A3FBB0FA80F0400908BD00BF000C014070
:104E700008B501460348FDF797FBB0FA80F04009FA
:104E800008BD00BF0010014008B504281FD8DFE8A6
:104E900000F003080D13190040210D48FDF78CFBAD
:104EA00008BD80210A48FDF787FB08BD4FF48071DB
:104EB0000748FDF781FB08BD4FF400710448FDF77A
:104EC0007BFB08BD4FF470710148FDF775FB08BD11
:104ED0000010014008B504281FD8DFE800F00308DF
:104EE0000D13190040210D48FDF764FB08BD80211A
:104EF0000A48FDF75FFB08BD4FF480710748FDF7D6
:104F000059FB08BD4FF400710448FDF753FB08BD81
:104F10004FF470710148FDF74DFB08BD00100140D2
:104F200008B5FFF7C3FDFFF751FD08BD30B585B0EB
:104F3000FFF70CFFFFF766FDFFF730FEFFF78AFE75
:104F4000184C4FF400612046FDF736FB4FF48061AA
:104F50002046FDF731FB0A20FEF74AFF124A01AB5B
:104F60001068516803C3127A1A7000248DF8034048
:104F700001AA21460920FFF7CBFB0A20FEF738FFE4
:104F800004AD022305F80D3D2A4621460120FFF716
:104F9000BFFB01208DF803002A462146FFF7B8FB2E
:104FA00005B030BD000C01401C9B0008F0B58BB073
:104FB000044600F06FF8324B054693F90060731C0D
:104FC0000AD021462046FBF71DFE074620B90021E6
:104FD0002046FBF7F9FD10B928460BB0F0BD294B70
:104FE000204608970193FBF795FACDE90401CDE936
:104FF0000201C6B9244B4FF0604220460021CDE9A2
:105000000623FBF7CDFD002832D00223009368462B
:1050100000F092F8A0B1089BBBB9DDE90601FBF7EF
:10502000CDFA0BB0F0BD194B002220460021CDE98E
:105030000623FBF7B5FD68B102239E420093E6D13B
:1050400000F0C4F922230360E5E700F0BFF9089BF4
:105050000360E2E70123022E00930BD100F0B6F9C2
:10506000212303600A4800F069F8CDE90601D2E780
:1050700001230093684600F05FF80028F2D1EDE7C5
:105080007C040020CC9D0008FFFFEFC70000F0FF6C
:10509000449B000820F0004270B5002A32D000285E
:1050A000014603463CDBB0F1FF4F28DAB0F5000FB4
:1050B0002EDB0022D8157F381044C50F2844C3F3D7
:1050C0001604FBF785FB0646C5F17F0044EAC05095
:1050D00000F03AF8154905463046FBF7CDFB144978
:1050E00004462846FBF7C8FB01462046FBF7BCFAFE
:1050F000104904463046FBF7BFFB01462046FBF74C
:10510000B3FA70BD00214FF04C40FBF769FC70BD55
:105110004FF09841FBF7B0FB6FF018020346C9E768
:10512000FBF7A0FA0021FBF75BFC70BDDB275435D1
:10513000D95BDE3E80209A3E002070470020014966
:10514000704700BF0000F87F20F000422DE9F047D3
:105150006AB30028014603464ADBB0F1FF4F3BDA51
:10516000B0F5000F3CDB00248C4AC3F316052A443B
:1051700002F40002DB1582F07E507F3B234428437B
:105180004FF07E5103EBD254FBF76CFA05F10F039D
:10519000C3F316030F2B064631DC0021FBF700FD9D
:1051A000002800F092804CB90020BDE8F087002173
:1051B0004FF04C40FBF714FCBDE8F0872046FBF7AE
:1051C00007FB77490546FBF757FB76490446284617
:1051D000FBF752FB01462046FBF746FABDE8F08795
:1051E0004FF09841FBF748FB6FF018040346BBE70C
:1051F000FBF738FA0021FBF7F3FBBDE8F0874FF02F
:105200008041FBF731FA01463046FBF7E9FB804667
:105210002046FBF7DDFA414681464046FBF72CFB72
:1052200001468246FBF728FB07465F49FBF724FB54
:105230005E49FBF719FA3946FBF71EFB5C49FBF7A1
:1052400013FA3946FBF718FB5A49FBF70DFA51469A
:10525000FBF712FB584982463846FBF70DFB5749CE
:10526000FBF702FA3946FBF707FB5549FBF7FCF958
:105270003946FBF701FB01465046FBF7F5F9514F64
:10528000C5F557132F4403F522731F43002F8246A1
:1052900065DD4FF07C513046FBF7EEFA3146FBF707
:1052A000EBFA0546002C32D129465046FBF7DCF9D3
:1052B0004146FBF7E1FA01462846FBF7D3F90146E0
:1052C0003046FBF7CFF9BDE8F0873F493046FBF7A2
:1052D000D3FA01464FF07C50FBF7C4F9314605463E
:1052E0003046FBF7C9FA01462846FBF7C5FA0546E2
:1052F000002C2ED02046FBF76BFA29490746FBF716
:10530000BBFA044638462749FBF7B6FA14E02449AD
:105310004846FBF7B1FA294604465046FBF7A4F984
:105320004146FBF7A9FA1F4907464846FBF7A4FA8E
:1053300001463846FBF798F901462846FBF792F9F3
:105340003146FBF78FF901462046FBF78BF9BDE8A4
:10535000F08701463046FBF785F9BDE8F0877CB160
:105360000F494846FBF788FA514604463046FBF79A
:1053700079F94146FBF780FA0A4905464846C3E7F2
:1053800001463046FBF76EF94146FBF775FA0146D8
:105390003046FBF767F9BDE8F08700BF20FB4A0005
:1053A0008071313FD1F717379788173E25333A3E42
:1053B0002549923EABAA2A3F4FD01C3E298E633E20
:1053C000CDCCCC3E305CCFFFABAAAA3E014B1868D7
:1053D000704700BF280400200FB410B5074B82B0FF
:1053E00004AC54F8042B186823468168019400F03B
:1053F00035F802B0BDE8104004B070472804002022
:1054000020F0030110F00300C0F1000051F8043B4C
:1054100000F1040C4FEACC0C6FF000021CBF22FA22
:105420000CF213434FF0010C4CEA0C2C4CEA0C4CE0
:10543000A3EB0C0222EA030212EACC1204BF51F8D9
:10544000043B0430F4D0C2F1000102EA0102B2FAD6
:1054500082F2C2F11F0200EBD20070472DE9F04F3B
:10546000C1B01C460891164605460A9002F0BAFEE5
:1054700003680E9418461793FFF7C2FF16901DB1EC
:10548000AB6B002B00F0BD830898B0F90C2093B2F1
:10549000990407D4416E42F4005321F400518381F2
:1054A00041669BB21A0740F1E482089A1269002A09
:1054B00000F0DF8203F01A030A2B00F0E8820023D9
:1054C0001A46B0460DF1C00ADFF85C9412931993A6
:1054D0000B9325932493CDF88CA01492159298F8F1
:1054E00000304446EBB1252B02D11AE0252B03D026
:1054F00014F8013F002BF9D1C8EB04058DB1249BB2
:10550000259A01332A44072BCAF80080CAF80450B0
:105510002592249300F330830AF1080A0B9B2B4455
:105520000B932378002B00F0EA814FF0FF3B5D46A0
:1055300000231A468DF86F3019460C930793637851
:1055400004F1010808F10108A3F12000582800F235
:105550004086DFE810F0DC053E063E06E5053E0627
:105560003E063E063E063E063E065900AA053E069B
:105570006600AA033E06C603CD03CD03CD03CD03CB
:10558000CD03CD03CD03CD03CD033E063E063E063F
:105590003E063E063E063E063E063E063E06DD034F
:1055A00057053E0657053E063E063E063E06A20548
:1055B0003E063E06BC043E063E063E063E063E064F
:1055C000E4043E063E0611053E063E063E063E0645
:1055D0003E063E063E063E063E063E0644058D0459
:1055E00057055705570595048D043E063E069D0454
:1055F0003E06A8044A046D00B0053E06B8053E0606
:1056000021043E063E06ED050E9C236818460C93C9
:105610002346002803F104030E9306DA0C9B5B4239
:105620000C93079B43F00403079398F8003089E735
:10563000AB460E9A0027079830217823BB451468A3
:105640008DF8701002F104024FF000058DF87130F2
:105650008DF86F7040F00201C0F2D18520F080011A
:1056600041F00201079154EA05010E921193AC48F2
:1056700000F0318130AE230943EA0573290904F0B3
:105680000F020D461C46835C06F8013D54EA0503F3
:10569000F1D130AB9B1B0D930D9B5B45B8BF5B46B7
:1056A00009930023139317B1099B01330993079BB7
:1056B00013F002030F9302D0099B02330993079B57
:1056C00013F08403109340F018810C9B099A9D1AE3
:1056D000002D40F31281102D2599249A914F27DD3A
:1056E000189650461024BA46089E2F460A9D04E09C
:1056F000103F102F00F1080016DD0132894B1031E8
:10570000072A2591249280E81800F1DD23AA31466A
:10571000284603F087FC002840F0F880103F102F47
:1057200030A82599249AE8DC3D4657468246189EC3
:1057300001326C18072A25942492CAF80070CAF81E
:10574000045000F3D0809DF86F700AF1080A77B119
:10575000249B013401330DF16F010122072B2594A5
:1057600024938AE8060000F31E820AF1080A0F9BC0
:105770006BB1249B023401331CA90222072B259410
:1057800024938AE8060000F31A820AF1080A109BA3
:10579000802B00F02A810D9BC3EB0B07002F33DD1C
:1057A000614A102F249B0F9222DD22464FF0100BEE
:1057B0000A9D089C04E0103F102F0AF1080A16DD2C
:1057C00001331032072B259224938AE8000AF2DD78
:1057D00023AA2146284603F025FC002840F09680A5
:1057E000103F102F0DF1C00A259A249BE8DC1446C7
:1057F00001330F9A3C44072B259424938AE88400B4
:1058000000F3C5810AF1080A079BDD0500F18E80CF
:10581000249B0D9901330C44072B2594CAF8006092
:10582000CAF80410249300F3E0810AF1080A079BE8
:10583000580736D50C9B099A9D1A002D31DD102D85
:10584000249B384F22DD22461026DDF828B0089C24
:1058500004E0103D102D0AF1080A16DD013331492C
:105860001032072B259224938AE84200F1DD23AA07
:105870002146584603F0D6FB002847D1103D102D95
:105880000DF1C00A259A249BE8DC144601332C4410
:10589000072B25942493CAF80070CAF8045000F32B
:1058A0008D840B9B0C9A09998A42ACBF9B185B189C
:1058B0000B93002C40F05781002324930DF1C00A74
:1058C0000DE60027BB458DF86F70C0F2A284079BE0
:1058D00023F080030793BBF1000F00F067840024DE
:1058E00000250027C6E623AA08990A9803F09AFB28
:1058F00060B99DF86F700DF1C00A259C27E7259BC4
:1059000023B10A9823AA089903F08CFB089B9B8972
:10591000590600F10F870B9841B0BDE8F08F00BF2A
:10592000089E0008289E0008D49D0008119B652B46
:1059300040F3BB801498159900220023FBF77CFCF0
:10594000002800F06781249BB04901330134012213
:10595000072B259424938AE8060000F38B860AF12E
:10596000080A1D9B129A934203DB079BD8077FF519
:105970005EAF249B16990133179A0C44072B25948C
:10598000CAF80020CAF80410249300F331870AF102
:10599000080A129B5D1E002D7FF749AF9C4A102D0F
:1059A000249B0F9240F3178110260A9FDDF820B048
:1059B00005E00AF1080A103D102D40F30C81013377
:1059C0001034072B25942493CAF80090CAF8046079
:1059D000EFDD23AA5946384603F024FB002895D171
:1059E0000DF1C00A259C249BE5E70C9B099A9F1AA0
:1059F000002F7FF7D0AE864A102F249B0F922BDD0D
:105A000052462146BA46102537460A9C089E06E0B3
:105A1000AAF1100ABAF1100F02F1080218DD0133E1
:105A20001031072B25912493C2F800905560EFDDCB
:105A300023AA3146204603F0F5FA00287FF466AF2A
:105A4000AAF1100ABAF1100F30AA2599249BE6DCBE
:105A50003E460C465746924601330F9A3C44072B6C
:105A6000259424938AE8840000F3D6840AF1080A76
:105A700091E608990A9801F0F3F8002840F05A8658
:105A8000089B9B8903F01A030A2B7FF418AD089931
:105A9000B1F90E30002BFFF612AD234632460A98BC
:105AA00001F0A8F841B0BDE8F08F129B249D012BB6
:105AB00004F1010405F1010540F35D840123072D84
:105AC0002594CAF800602495CAF8043000F36E8467
:105AD0000AF1080A169A0135179B1444072D2594DC
