:020000040800F2
:1000000000000120494E0008B954000801550008BD
:10001000215500082955000831550008000000004E
:10002000000000000000000000000000395500083A
:100030004555000800000000515500087D55000896
:10004000914E0008914E0008914E00085D55000841
:10005000914E0008914E0008914E0008914E000804
:10006000914E0008914E0008914E0008914E0008F4
:10007000914E0008914E0008914E0008914E0008E4
:10008000914E0008914E0008914E0008914E0008D4
:10009000914E0008914E0008914E000899550008B5
:1000A000914E0008914E0008914E0008914E0008B4
:1000B000914E0008914E0008914E0008914E0008A4
:1000C000914E0008914E0008914E0008914E000894
:1000D000914E0008914E0008914E0008914E000884
:1000E000914E0008914E0008C55500080000000020
:1000F0000000000000000000000000000000000000
:100100000000000000000000914E0008914E000821
:10011000914E0008914E0008914E0008914E000843
:10012000914E0008914E0008914E0008914E000833
:10013000914E0008914E0008914E0008914E000823
:10014000914E0008914E0008914E0008FD550008A0
:10015000000000000000000000000000000000009F
:10016000000000000000000000000000000000008F
:10017000000000000000000000000000000000007F
:10018000000000000000000000000000000000006F
:10019000000000000000000000000000000000005F
:1001A000000000000000000000000000000000004F
:1001B000000000000000000000000000000000003F
:1001C000000000000000000000000000000000002F
:1001D000000000000000000000000000000000001F
:0401E0005FF8E0F1F3
:1001E80010B5054C237833B9044B13B10448AFF369
:1001F80000800123237010BDA0050020000000002E
:10020800988F0008084B10B51BB108490848AFF390
:1002180000800848036803B910BD074B002BFBD0CA
:10022800BDE81040184700BF00000000A4050020EA
:10023800988F0008A00500200000000081F0004110
:1002480002E000BF83F0004330B54FEA41044FEAB3
:10025800430594EA050F08BF90EA020F1FBF54EA4E
:10026800000C55EA020C7FEA645C7FEA655C00F0EA
:10027800E2804FEA5454D4EB5555B8BF6D420CDDBB
:100288002C4480EA020281EA030382EA000083EA3E
:10029800010180EA020281EA0303362D88BF30BDDE
:1002A80011F0004F4FEA01314FF4801C4CEA113134
:1002B80002D0404261EB410113F0004F4FEA033393
:1002C8004CEA133302D0524263EB430394EA050F1E
:1002D80000F0A780A4F10104D5F1200E0DDB02FA8D
:1002E8000EFC22FA05F2801841F1000103FA0EF221
:1002F800801843FA05F359410EE0A5F120050EF1E7
:10030800200E012A03FA0EFC28BF4CF0020C43FA17
:1003180005F3C01851EBE37101F0004507D54FF024
:10032800000EDCF1000C7EEB00006EEB0101B1F574
:10033800801F1BD3B1F5001F0CD349085FEA3000BA
:100348004FEA3C0C04F101044FEA445212F5800FC5
:1003580080F09A80BCF1004F08BF5FEA500C50F162
:10036800000041EB045141EA050130BD5FEA4C0C45
:10037800404141EB010111F4801FA4F10104E9D1CE
:1003880091F0000F04BF01460020B1FA81F308BFC5
:100398002033A3F10B03B3F120020CDA0C3208DD91
:1003A80002F1140CC2F10C0201FA0CF021FA02F16C
:1003B8000CE002F11402D8BFC2F1200C01FA02F1DC
:1003C80020FA0CFCDCBF41EA0C019040E41AA2BF01
:1003D80001EB0451294330BD6FEA04041F3C1CDAC9
:1003E8000C340EDC04F11404C4F1200220FA04F0E9
:1003F80001FA02F340EA030021FA04F345EA030193
:1004080030BDC4F10C04C4F1200220FA02F001FA54
:1004180004F340EA0300294630BD21FA04F02946D6
:1004280030BD94F0000F83F4801306BF81F480116F
:100438000134013D4EE77FEA645C18BF7FEA655CE2
:1004480029D094EA050F08BF90EA020F05D054EAB4
:10045800000C04BF1946104630BD91EA030F1EBFB9
:100468000021002030BD5FEA545C05D140004941BD
:1004780028BF41F0004130BD14F580043CBF01F5B0
:10048800801130BD01F0004545F0FE4141F4700196
:100498004FF0000030BD7FEA645C1ABF1946104671
:1004A8007FEA655C1CBF0B46024650EA013406BF72
:1004B80052EA033591EA030F41F4002130BD00BF31
:1004C80090F0000F04BF0021704730B54FF48064EE
:1004D80004F132044FF000054FF0000150E700BF6F
:1004E80090F0000F04BF0021704730B54FF48064CE
:1004F80004F1320410F0004548BF40424FF00001BB
:100508003EE700BF42004FEAE2014FEA31014FEAFD
:1005180002701FBF12F07F4393F07F4F81F060514C
:10052800704792F0000F14BF93F07F4F704730B5BB
:100538004FF4607401F0004521F0004120E700BF4E
:1005480050EA010208BF704730B54FF000050AE0D5
:1005580050EA010208BF704730B511F0004502D5D6
:10056800404261EB41014FF4806404F132045FEAD8
:10057800915C3FF4DCAE4FF003025FEADC0C18BF7D
:1005880003325FEADC0C18BF033202EBDC02C2F173
:10059800200300FA03FC20FA02F001FA03FE40EA05
:1005A8000E0021FA02F11444C1E600BF70B54FF005
:1005B800FF0C4CF4E06C1CEA11541DBF1CEA1355E7
:1005C80094EA0C0F95EA0C0F00F0DEF82C4481EA4F
:1005D800030621EA4C5123EA4C5350EA013518BF6F
:1005E80052EA033541F4801143F4801338D0A0FB5C
:1005F80002CE4FF00005E1FB02E506F00042E0FB09
:1006080003E54FF00006E1FB03569CF0000F18BF0E
:100618004EF0010EA4F1FF04B6F5007F64F54074B6
:1006280004D25FEA4E0E6D4146EB060642EAC62149
:1006380041EA55514FEAC52040EA5E504FEACE2EB6
:10064800B4F1FD0C88BFBCF5E06F1ED8BEF1004FB9
:1006580008BF5FEA500E50F1000041EB045170BD35
:1006680006F0004646EA010140EA020081EA030179
:10067800B4EB5C04C2BFD4EB0C0541EA045170BD75
:1006880041F480114FF0000E013C00F3AB8014F1EF
:10069800360FDEBF002001F0004170BDC4F1000438
:1006A800203C35DA0C341BDC04F11404C4F12005B9
:1006B80000FA05F320FA04F001FA05F240EA020014
:1006C80001F0004221F0004110EBD37021FA04F64A
:1006D80042EB06015EEA430E08BF20EAD37070BD04
:1006E800C4F10C04C4F1200500FA04F320FA05F063
:1006F80001FA04F240EA020001F0004110EBD37065
:1007080041F100015EEA430E08BF20EAD37070BDD4
:10071800C4F1200500FA05F24EEA020E20FA04F3AD
:1007280001FA05F243EA020321FA04F001F000415C
:1007380021FA04F220EA020000EBD3705EEA430ECD
:1007480008BF20EAD37070BD94F0000F0FD101F0FC
:100758000046400041EB010111F4801F08BF013C35
:10076800F7D041EA060195F0000F18BF704703F073
:100778000046520043EB030313F4801F08BF013DFA
:10078800F7D043EA0603704794EA0C0F0CEA1355B6
:1007980018BF95EA0C0F0CD050EA410618BF52EA70
:1007A8004306D1D181EA030101F000414FF0000076
:1007B80070BD50EA410606BF1046194652EA430684
:1007C80019D094EA0C0F02D150EA013613D195EAF8
:1007D8000C0F05D152EA03361CBF104619460AD140
:1007E80081EA030101F0004141F0FE4141F470014A
:1007F8004FF0000070BD41F0FE4141F4780170BD3A
:1008080070B54FF0FF0C4CF4E06C1CEA11541DBF9E
:100818001CEA135594EA0C0F95EA0C0F00F0A7F8A0
:10082800A4EB050481EA030E52EA03354FEA0131CD
:1008380000F088804FEA03334FF0805545EA1313E0
:1008480043EA12634FEA022245EA111545EA1065A8
:100858004FEA00260EF000419D4208BF964244F13F
:10086800FD0404F5407402D25B084FEA3202B61A5E
:1008780065EB03055B084FEA32024FF480104FF432
:10088800002CB6EB020E75EB030E22BFB61A7546A6
:1008980040EA0C005B084FEA3202B6EB020E75EB39
:1008A800030E22BFB61A754640EA5C005B084FEAA1
:1008B8003202B6EB020E75EB030E22BFB61A75466E
:1008C80040EA9C005B084FEA3202B6EB020E75EB79
:1008D800030E22BFB61A754640EADC0055EA060E3A
:1008E80018D04FEA051545EA16754FEA06164FEA7D
:1008F800C30343EA52734FEAC2025FEA1C1CC0D129
:1009080011F4801F0BD141EA00014FF000004FF0B5
:10091800004CB6E711F4801F04BF01430020B4F176
:10092800FD0C88BFBCF5E06F3FF6AFAEB5EB030C2E
:1009380004BFB6EB020C5FEA500C50F1000041EB2B
:10094800045170BD0EF0004E4EEA113114EB5C04F8
:10095800C2BFD4EB0C0541EA045170BD41F48011CB
:100968004FF0000E013C90E645EA060E8DE60CEAD3
:10097800135594EA0C0F08BF95EA0C0F3FF43BAFF0
:1009880094EA0C0F0AD150EA01347FF434AF95EAA7
:100998000C0F7FF425AF104619462CE795EA0C0F8B
:1009A80006D152EA03353FF4FDAE1046194622E758
:1009B80050EA410618BF52EA43067FF4C5AE50EA32
:1009C80041047FF40DAF52EA43057FF4EBAE12E722
:1009D8004FEA4102B2F1E04324BFB3F5001CDCF159
:1009E800FE5C0DD901F0004C4FEAC0024CEA507091
:1009F800B2F1004F40EB830008BF20F001007047C0
:100A080011F0804F21D113F13872BCBF01F00040C2
:100A1800704741F480114FEA5252C2F11802C2F1F4
:100A2800200C10FA0CF320FA02F018BF40F0010075
:100A38004FEAC1234FEAD32303FA0CFC40EA0C0027
:100A480023FA02F34FEA4303CCE77FEA625307D164
:100A580050EA01331EBF4FF0FE4040F4400070479B
:100A680001F0004040F0FE4040F40000704700BF35
:100A780080F0004002E000BF81F0004142001FBF4B
:100A88005FEA410392EA030F7FEA226C7FEA236C54
:100A98006AD04FEA1262D2EB1363C1BFD218414049
:100AA80048404140B8BF5B42192B88BF704710F0DF
:100AB800004F40F4000020F07F4018BF404211F082
:100AC800004F41F4000121F07F4118BF494292EAEA
:100AD800030F3FD0A2F1010241FA03FC10EB0C0016
:100AE800C3F1200301FA03F100F0004302D54942A3
:100AF80060EB4000B0F5000F13D3B0F1807F06D350
:100B080040084FEA310102F10102FE2A51D2B1F147
:100B1800004F40EBC25008BF20F0010040EA03003C
:100B28007047490040EB000010F4000FA2F10102E9
:100B3800EDD1B0FA80FCACF1080CB2EB0C0200FA73
:100B48000CF0AABF00EBC25052421843BCBFD040C1
:100B58001843704792F0000F81F4000106BF80F43B
:100B680000000132013BB5E74FEA41037FEA226CFE
:100B780018BF7FEA236C21D092EA030F04D092F0C9
:100B8800000F08BF0846704790EA010F1CBF0020FD
:100B9800704712F07F4F04D1400028BF40F000405A
:100BA800704712F100723CBF00F50000704700F07A
:100BB800004343F0FE4040F4000070477FEA2262A1
:100BC80016BF08467FEA23630146420206BF5FEA72
:100BD800412390EA010F40F4800070474FF0000372
:100BE80004E000BF10F0004348BF40425FEA000C39
:100BF80008BF704743F0964301464FF000001CE0E1
:100C080050EA010208BF70474FF000030AE000BF36
:100C180050EA010208BF704711F0004302D5404274
:100C280061EB41015FEA010C02BF844601460020E6
:100C380043F0B64308BFA3F18053A3F50003BCFA01
:100C48008CF2083AA3EBC25310DB01FA02FC6344AE
:100C580000FA02FCC2F12002BCF1004F20FA02F2B5
:100C680043EB020008BF20F00100704702F12002A8
:100C780001FA02FCC2F1200250EA4C0021FA02F209
:100C880043EB020008BF20EADC7070474FF0FF0C0E
:100C98001CEAD0521EBF1CEAD15392EA0C0F93EA09
:100CA8000C0F6FD01A4480EA010C400218BF5FEAAB
:100CB80041211ED04FF0006343EA501043EA51111E
:100CC800A0FB01310CF00040B1F5000F3EBF490018
:100CD80041EAD3715B0040EA010062F17F02FD2A1C
:100CE8001DD8B3F1004F40EBC25008BF20F00100FF
:100CF800704790F0000F0CF0004C08BF49024CEA16
:100D0800502040EA51207F3AC2BFD2F1FF0340EAA7
:100D1800C250704740F400004FF00003013A5DDC18
:100D280012F1190FDCBF00F000407047C2F1000259
:100D3800410021FA02F1C2F1200200FA02FC5FEA46
:100D4800310040F1000053EA4C0308BF20EADC7090
:100D5800704792F0000F00F0004C02BF400010F402
:100D6800000F013AF9D040EA0C0093F0000F01F0AF
:100D7800004C02BF490011F4000F013BF9D041EAD1
:100D88000C018FE70CEAD15392EA0C0F18BF93EAD3
:100D98000C0F0AD030F0004C18BF31F0004CD8D1FD
:100DA80080EA010000F00040704790F0000F17BF84
:100DB80090F0004F084691F0000F91F0004F14D0CA
:100DC80092EA0C0F01D142020FD193EA0C0F03D122
:100DD8004B0218BF084608D180EA010000F0004025
:100DE80040F0FE4040F40000704740F0FE4040F400
:100DF800400070474FF0FF0C1CEAD0521EBF1CEA9F
:100E0800D15392EA0C0F93EA0C0F69D0A2EB0302BC
:100E180080EA010C49024FEA402037D04FF0805356
:100E280043EA111143EA10130CF000408B4238BF1B
:100E38005B0042F17D024FF4000C8B4224BF5B1A29
:100E480040EA0C00B3EB510F24BFA3EB510340EA77
:100E58005C00B3EB910F24BFA3EB910340EA9C0025
:100E6800B3EBD10F24BFA3EBD10340EADC001B0195
:100E780018BF5FEA1C1CE0D1FD2A3FF650AF8B4239
:100E880040EBC25008BF20F0010070470CF0004C46
:100E98004CEA50207F32C2BFD2F1FF0340EAC25071
:100EA800704740F400004FF00003013A37E792F032
:100EB800000F00F0004C02BF400010F4000F013A90
:100EC800F9D040EA0C0093F0000F01F0004C02BF8B
:100ED800490011F4000F013BF9D041EA0C0195E7F4
:100EE8000CEAD15392EA0C0F08D142027FF47DAF8D
:100EF80093EA0C0F7FF470AF084676E793EA0C0F7D
:100F080004D14B023FF44CAF08466EE730F0004C7A
:100F180018BF31F0004CCAD130F000427FF45CAF0A
:100F280031F000437FF43CAF5FE700BF4FF0FF3C78
:100F380006E000BF4FF0010C02E000BF4FF0010CCB
:100F48004DF804CD4FEA40024FEA41037FEA226C94
:100F580018BF7FEA236C11D001B052EA530C18BFB6
:100F680090EA010F58BFB2EB030088BFC81738BF1B
:100F78006FEAE17018BF40F0010070477FEA226C09
:100F880002D15FEA402C05D17FEA236CE4D15FEA05
:100F9800412CE1D05DF8040B704700BF8446084639
:100FA8006146FFE70FB5FFF7C9FF002848BF10F1FA
:100FB800000F0FBD4DF808EDFFF7F4FF0CBF01203F
:100FC80000205DF808FB00BF4DF808EDFFF7EAFFC9
:100FD80034BF012000205DF808FB00BF4DF808ED84
:100FE800FFF7E0FF94BF012000205DF808FB00BF79
:100FF8004DF808EDFFF7D2FF94BF012000205DF8FF
:1010080008FB00BF4DF808EDFFF7C8FF34BF01200B
:1010180000205DF808FB00BF4FEA40024FEA410399
:101028007FEA226C02D15FEA402C08D17FEA236C68
:1010380002D15FEA412C02D14FF0000070474FF017
:10104800010070474FEA4002B2F1FE4F0FD34FF054
:101058009E03B3EB12620DD94FEA002343F000431D
:1010680010F0004F23FA02F018BF404270474FF0CB
:101078000000704712F1610F01D1420205D110F052
:10108800004008BF6FF0004070474FF00000704705
:1010980010B500210446FFF797FF20B92046BDE8A8
:1010A800104000F021B804F1004000F01DF8404263
:1010B80061EB410110BD00BFF8B5002200230746CF
:1010C8000E4600F0BBF828B938463146BDE8F8406E
:1010D80000F030B8384606F1004100F02BF84042E5
:1010E80061EB4101F8BD00BFD0B5FFF70BFA002254
:1010F8000E4B06460F46FFF759FA00F0C7F80446AC
:10110800FFF7DEF900220A4BFFF750FA02460B46BA
:1011180030463946FFF796F800F0B8F82346002223
:1011280042EA000210461946D0BD00BF0000F03D5B
:101138000000F041D0B500220E4B06460F46FFF7DF
:1011480035FA00F0A3F80446FFF7BAF900220A4B73
:10115800FFF72CFA02460B4630463946FFF772F87D
:1011680000F094F82346002242EA0002104619468D
:10117800D0BD00BF0000F03D0000F0414FF0FF3C43
:1011880006E000BF4FF0010C02E000BF4FF0010C79
:101198004DF804CD4FEA410C7FEA6C5C4FEA430CF2
:1011A80018BF7FEA6C5C1BD001B050EA410C0CBF41
:1011B80052EA430C91EA030F02BF90EA020F0020A3
:1011C800704710F1000F91EA030F58BF994208BF0A
:1011D80090422CBFD8176FEAE37040F001007047C7
:1011E8004FEA410C7FEA6C5C02D150EA013C07D11E
:1011F8004FEA430C7FEA6C5CD6D152EA033CD3D069
:101208005DF8040B704700BF8446104662468C4662
:101218001946634600E000BF01B5FFF7B7FF002895
:1012280048BF10F1000F01BD4DF808EDFFF7F4FFBE
:101238000CBF012000205DF808FB00BF4DF808ED49
:10124800FFF7EAFF34BF012000205DF808FB00BF6C
:101258004DF808EDFFF7E0FF94BF012000205DF88E
:1012680008FB00BF4DF808EDFFF7CEFF94BF012043
:1012780000205DF808FB00BF4DF808EDFFF7C4FF3C
:1012880034BF012000205DF808FB00BF4A0011D2DE
:1012980012F5001211D20DD56FF47873B3EB6252C8
:1012A8000ED44FEAC12343F0004343EA505323FAD4
:1012B80002F070474FF00000704750EA013002D149
:1012C8004FF0FF3070474FF000007047844641EA06
:1012D800000313F0030349D1403A23D30B6803609A
:1012E8004B6843608B688360CB68C3600B6903619C
:1012F8004B6943618B698361CB69C3610B6A036284
:101308004B6A43628B6A8362CB6AC3620B6B03636B
:101318004B6B43638B6B8363CB6BC3634030403150
:10132800403ADBD230320BD30B6803604B68436022
:101338008B688360CB68C36010301031103AF3D2E9
:101348000C3205D351F8043B40F8043B043AF9D277
:10135800043208D0D2071CBF11F8013B00F8013B4A
:1013680001D30B8803806046704700BF082A13D357
:101378008B07B1D010F00303AED0C3F10403D21A27
:10138800DB071CBF11F8013B00F8013BA4D331F87F
:10139800023B20F8023B9FE7043AD9D3013A11F8FF
:1013A800013B00F8013BF9D20B7803704B7843708E
:1013B8008B7883706046704770B50F4E0F4D761B63
:1013C800B61018BF002405D0013455F8043B9847DF
:1013D800A642F9D10A4E0B4D07F0DAFD761BB6107E
:1013E80018BF002406D0013455F8043B9847A6429C
:1013F800F9D170BD70BD00BFB08F0008B08F000874
:10140800B88F0008B08F000870B4840746D0541E07
:10141800002A41D0CDB2034602E0621EE4B314466E
:1014280003F8015B9A07F8D1032C2ED9CDB245EA0F
:1014380005250F2C45EA054519D9264603F1100262
:10144800103E0F2E42F8105C42F80C5C42F8085C23
:1014580042F8045C02F11002F2D8A4F1100222F062
:101468000F0204F00F041032032C13440DD91E464A
:101478002246043A032A46F8045BFAD8221F22F0CF
:1014880003020432134404F003042CB1C9B21C440F
:1014980003F8011BA342FBD170BC704714460346F6
:1014A800C2E700BF024B13B1024800F005B870470D
:1014B80000000000CD140008002301461A46184613
:1014C80000F014B838B5074D074C2C1BA41005D0F4
:1014D800013C55F8043D9847002CF9D1BDE8384047
:1014E80007F05CBDBC8F0008B88F00082DE9F047F5
:1014F800254C064625688846D5F8484192469946BF
:10150800C4B360681F2817DC411C76B104EB800364
:10151800C3F888A0D4F88851012282401543022ECE
:10152800C4F88851C3F808911ED0831C616000205C
:1015380044F82380BDE8F087144B03B34FF4C87018
:10154800AFF300800446D0B1D5F84831002784E8CD
:1015580088003846C5F848410121C4F88871C4F8A4
:101568008C71002EE1D0D1E7D4F88C311A43C4F83D
:101578008C21DAE705F5A674C5F84841C1E74FF0B4
:10158800FF30BDE8F08700BF888F0008000000002A
:1015980080B400AF00BF054B9B889BB203F02003CB
:1015A800002BF8D000BFBD4680BC70470028004023
:1015B80080B485B000AF0346FB800023FB730F4B5C
:1015C8009B889BB2DAB2FB88DBB21340FB730B4BF0
:1015D8001B889AB2FB8813409BB2002B05D0FB7B7B
:1015E800002B02D00123FB7301E00023FB73FB7B7C
:1015F80018461437BD4680BC704700BF002800401D
:1016080080B483B000AF0346FB800749064B9B8834
:101618009AB2FB88DB439BB213409BB28B8000BF1E
:101628000C37BD4680BC70470028004080B485B0A8
:1016380000AF78600023FB607B68DB684FF0FF3207
:101648005A607B68DB686FF080425A61FB7B43F02D
:101658008003FB737B7B43F008037B737B68DB6849
:10166800FA689A6100BF1437BD4680BC704700BF56
:1016780080B586B000AF78600023FB7400237B61DF
:101688000023FB60032001F07FF97B68DB681B699E
:10169800FB607B6901337B617B69184A934201D9FE
:1016A800002326E0FB68C3F3C073DBB2002BE9D04C
:1016B80000237B61FB6843F00103FB607B68DB6808
:1016C800FA681A617B68DB681B69FB607B69013318
:1016D8007B617B69094A934206D8FB68C3F3000320
:1016E800DBB2012BEED000E000BF032001F04CF983
:1016F800FB7C18461837BD4680BD00BF400D03006F
:1017080080B489B000AFF860B96011461A460B463C
:10171800FB711346BB800023FB76FB68DB78002B4C
:1017280022D100237B610023FB61BB880333002B9C
:1017380000DA03339B107B61FB79FA6832339B0034
:1017480013449B683B610023FB6109E0BB681A688E
:101758003B691A60FB690133FB61BB680433BB60FA
:10176800FA697B699A42F1D3FB7E18462437BD4655
:1017780080BC704780B489B000AFF860B960134688
:10178800FB800023FB61FB880333002B00DA033363
:101798009B10BB61FB68D3F8D0307B610023FB61F1
:1017A80009E07B691A68BB681A60FB690133FB6151
:1017B800BB680433BB60FA69BB699A42F1D3BB6862
:1017C80018462437BD4680BC704700BF80B487B038
:1017D80000AF78600B46FB7000233B610023FB736E
:1017E8007B680022DA707B6801229A707B6840224D
:1017F8009A80FB78012B13D14FF0A0433B617B68A3
:101808000122DA727B6808221A707B6804225A70F7
:101818007B684FF4A072DA807B6802221A7211E0AA
:10182800FB78002B0ED1454B3B617B680022DA72B6
:101838007B680C221A707B6806225A707B684FF40A
:10184800A062DA803A697B68DA603B6903F5006375
:101858001A467B681A6100237B611CE07B695A0188
:101868003B69134403F5106319467A687B690433AE
:101878009B00134499607B695A013B69134403F543
:10188800306319467A687B6914339B0013445960A6
:101898007B6901337B617B685B781A467B699A4276
:1018A800DCD83B6903F580631A467B685A613B695B
:1018B80003F588631A467B68C3F8CC2000237B6154
:1018C8000FE07B695A013B69134403F5A06319468D
:1018D8007A687B6922339B00134499607B690133E2
:1018E8007B617B681B781A467B699A42E9D800239A
:1018F8007B610FE07B691A033B69134403F580534E
:1019080019467A687B6932339B00134499607B6976
:1019180001337B617B681B781A467B699A42E9D858
:101928003B6903F560631A467B68C3F80C21FB7BAF
:1019380018461C37BD4680BC704700BF00000440F5
:1019480080B586B000AF78600023FB7500233B614B
:101958000023FB600023BB607B681B7A012B42D10C
:101968007B68DB689B6BFB60BB7B6FF30003BB731F
:101978007B685B7A002B03D0BB7B43F01003BB73FF
:101988007B68DB68FA689A6300233B617B68DB68E5
:10199800DB683B613B7C6FF386133B74BB7C6FF366
:1019A8008613BB74BB7C6FF34103BB74BB7C6FF3C2
:1019B800C303BB747B68DB683A69DA607868FFF751
:1019C80057FE7B68DB78012B39D13B7A052262F31D
:1019D80044033B723B7A43F020033B727B68DB682D
:1019E800BA689A602BE07B68DB68DB683B613B7C0C
:1019F80043F040033B747B68DB683A69DA607868D7
:101A0800FFF736FE0023FB60BB7B43F00103BB738B
:101A1800BB7B43F00403BB73BB7B43F00803BB737E
:101A28007B685B7A002B03D0BB7B43F01003BB734E
:101A38007B68DB68FA689A63142000F0C9FF7B684A
:101A4800DB78012B10D17B68DB689B68BB603B7A35
:101A5800052262F344033B723B7A43F020033B7256
:101A68007B68DB68BA689A60FB7D18461837BD4604
:101A780080BD00BF80B485B000AF78600023FB73E1
:101A88000023BB603B7A43F001033B727B68DB6851
:101A98007A68D2689168BA680A439A60FB7B1846EC
:101AA8001437BD4680BC704780B485B000AF7860FD
:101AB8000023FB730023BB603B7A43F001033B72B6
:101AC8007B68DB687A68D2689168BA68D2430A4052
:101AD8009A60FB7B18461437BD4680BC704700BF30
:101AE80080B586B000AF786039600023FB740023AE
:101AF8007B610023FB60FB6843F02003FB603B68CD
:101B0800DBB203F01F03DAB2FB6862F38A13FB60EF
:101B18007B68DB68FA681A617B68DB681B69FB60B5
:101B28007B6901337B617B69094A934206D8FB686C
:101B3800C3F34013DBB2012BEED000E000BF03205B
:101B480000F022FFFB7C18461837BD4680BD00BF59
:101B5800400D030080B586B000AF78600023FB74A9
:101B680000237B610023FB60FB6843F01003FB60EC
:101B78007B68DB68FA681A617B68DB681B69FB6055
:101B88007B6901337B617B69094A934206D8FB680C
:101B9800C3F30013DBB2012BEED000E000BF03203B
:101BA80000F0F2FEFB7C18461837BD4680BD00BF2A
:101BB800400D030080B584B000AF78600B46FB7021
:101BC8000023FB737B68DB68DB68BB60FB7A6FF321
:101BD8004513FB72FB7A6FF38613FB72FB78012BBC
:101BE80004D1FB7A43F02003FB7206E0FB78002B5C
:101BF80003D1FB7A43F04003FB727B68DB68BA6869
:101C0800DA60322000F0E4FEFB7B18461037BD4650
:101C180080BD00BF80B483B000AF78607B68DB68AC
:101C28005B6903F0010318460C37BD4680BC70475A
:101C380080B582B000AF78607868FFF7EBFF0346A5
:101C4800012B14BF01230023DBB218460837BD4619
:101C580080BD00BF80B485B000AF78600023FB6012
:101C68007B68DB685B69FB607B68DB689B69FA689B
:101C78001340FB60FB6818461437BD4680BC7047AC
:101C880080B485B000AF78600B46FB707B681B6939
:101C98001B68FB60FB7803F00303DAB23B7B62F35B
:101CA80001033B737B681B69FA681A6000BF14372D
:101CB800BD4680BC704700BF80B58CB000AF78606F
:101CC800002387F82B3000237B6200233B6200232C
:101CD800FB610023BB6100237B617B68D3F80C3177
:101CE80000221A607B681B691B683B6297F82130E9
:101CF8006FF3C40387F821307B681B693A6A1A605E
:101D08007B68DB7A012B33D103217868FFF7B8FFB2
:101D18007B68DB6880225A622023FB838023BB8395
:101D28007B68DB68FA699A62BA8BFB8B13449BB2B7
:101D38003B8380237B837B68DB68BA69C3F8042113
:101D48003A8B7B8B13449BB23B8320237B837B683A
:101D5800DB68BA69C3F808213A8B7B8B13449BB2C2
:101D68003B8300237B837B68DB68BA69C3F80C215B
:101D780010217868FFF7B4FE7868FFF7EBFE7B6800
:101D88001B6900221A617B681B6900225A617B6803
:101D98001B694FF0FF329A617B681B690022DA6188
:101DA8000023FB623AE07A68FB6A04339B00134421
:101DB8009B681B687B6297F8273023F07F03DBB2B0
:101DC800002B0ED000237B6297F8273043F04003A6
:101DD80087F8273097F8273043F0080387F827302B
:101DE80001E000237B627A68FB6A04339B0013449A
:101DF8009B687A6A1A607A68FB6A04339B0013440A
:101E08009B6800221A617A68FB6A04339B001344BA
:101E18009B68FF229A60FB6A0133FB627B685B78F0
:101E28001A46FB6A9A42BED80023FB6235E07A68FC
:101E3800FB6A14339B0013445B681B68FB60FB7BE5
:101E480023F07F03DBB2002B0AD00023FB60FB7B6F
:101E580043F04003FB73FB7B43F00803FB7301E093
:101E68000023FB607A68FB6A14339B0013445B68A9
:101E7800FA681A607A68FB6A14339B0013445B683B
:101E880000221A617A68FB6A14339B0013445B686A
:101E9800FF229A60FB6A0133FB627B685B781A4613
:101EA800FB6A9A42C3D800237B617B7D43F0010320
:101EB8007B757B681B697A68126911697A69D243F4
:101EC80011407A690A431A617B68DB78012B1BD1C0
:101ED80000233B613B7C43F001033B743B7C43F0B4
:101EE80002033B743B8A402262F38A033B82BB7C39
:101EF80043F00103BB747B8A402262F349037B826F
:101F08007B681B693A691A63786800F007F897F8E4
:101F18002B3018463037BD4680BD00BF80B584B031
:101F280000AF78600023FB730023BB607B68DB682D
:101F380000229A617B68DB686FF080425A6178689A
:101F4800FFF774FB7B68DB78002B03D13B7A43F007
:101F580010033B727B7A43F008037B727B7A43F071
:101F680010037B727B7A43F020037B72BB7A43F0C9
:101F78000403BB72BB7A43F00803BB723B7A43F09D
:101F880008033B72BB7A43F01003BB72BB7A43F081
:101F98002003BB72FB7A43F04003FB723B7A43F0A9
:101FA80004033B727B68DB687A68D2689169BA6817
:101FB800D2431140BA680A439A61FB7B184610372E
:101FC800BD4680BD80B485B000AF78600023FB7348
:101FD8007B681B699B68BB603B7AC3F34103DBB238
:101FE800022B09D0032B04D0012B02D00323FB734F
:101FF80005E00223FB7302E00123FB7300BFFB7BB8
:1020080018461437BD4680BC704700BF80B487B0FF
:1020180000AF78600023FB750023BB607B681B69F9
:102028009B683B617B689B691B68FB603B7CC3F3D7
:102038004103DBB2022B04D0BB896FF30A03BB81D7
:1020480005E0BB89032262F30A03BB8100BF7B68FA
:102058009B69FA681A607B7A43F001037B727B689C
:102068001B697A6812695168BA68D2431140BA6824
:102078000A435A60FB7D18461C37BD4680BC704732
:1020880080B487B000AF786039600023FB74002308
:10209800FB600023BB603B685B78012B0FD13B687A
:1020A8001B787A6804339B0013449B687B613B6808
:1020B8001B781A46012393409BB23B810EE03B6894
:1020C8001B787A6814339B0013445B687B613B6818
:1020D8001B781A46012393409BB27B817B691B685E
:1020E800FB607B7B23F07F03DBB2002B27D13B68AF
:1020F8009B689BB2C3F30A039AB2BB8962F30A03D3
:10210800BB813B68DB7803F00303DAB2BB7B62F385
:102118008303BB733B68DB88DBB203F00F03DAB2DF
:10212800FB8962F38913FB81FB7B43F01003FB738C
:102138007B7B43F080037B73FA687B691A607B685A
:102148001B697A681269D169BA680A43DA61FB7C4B
:1021580018461C37BD4680BC704700BF80B487B0A6
:1021680000AF786039600023FB740023FB60002314
:10217800BB603B685B78012B0FD13B681B787A68A2
:1021880004339B0013449B687B613B681B781A46A9
:10219800012393409BB23B810EE03B681B787A6831
:1021A80014339B0013445B687B613B681B781A46B9
:1021B800012393409BB27B817B7B6FF3C7137B73B7
:1021C800FA687B691A607B681B697A681269D16949
:1021D800BA68D2430A40DA61FB7C18461C37BD4610
:1021E80080BC704780B588B000AF78603960002344
:1021F800FB770023BB6100237B6100233B613B68C5
:102208005B78012B40F0AB803B681B787A6804331D
:102218009B0013449B681B687B613B681B787A684A
:1022280004339B0013449B681B693B613B685B69F3
:10223800002B09D13B696FF312033B617B8A0122B2
:1022480062F3CC037B8222E03B685B69C3F3120232
:102258003B6962F312033B613B685A693B689B68C0
:1022680013445A1E3B689B68B2FBF3F39BB2C3F35B
:1022780009039AB27B8A62F3CC037B823B68DB78E2
:10228800012B04D1FB7C012262F34613FB743B68EB
:102298001B787A6804339B0013449B683A691A6177
:1022A8007B68DB78012B0AD13B681B787A6804339A
:1022B8009B0013449B683A6812695A6115E03B68B1
:1022C800DB78012B11D03B685B69002B0DD03B6894
:1022D8001B781A4601239340BB617B681B697A68A7
:1022E8001269516BBA690A435A633B68DB78012B60
:1022F80014D17B681B699B68FB60FB68C3F30D23E3
:102308009BB203F00103002B04D1FB7D43F02003B3
:10231800FB7503E0FB7D43F01003FB75FB7D43F089
:102328000403FB75FB7D43F08003FB753B681B785A
:102338007A6804339B0013449B687A691A603B6887
:10234800DB78012B40F089803B68D9683B681A78B4
:102358003B685B699BB27868FFF7D2F97DE03B6820
:102368001B787A6814339B0013445B681B687B6195
:102378003B681B787A6814339B0013445B681B69BD
:102388003B613B685B69002B0DD13B689B68C3F3DD
:1023980012023B6962F312033B617B8A012262F3FA
:1023A800CC037B8220E03B685A693B689B681344F6
:1023B8005A1E3B689B68B2FBF3F39BB2C3F3090355
:1023C8009AB27B8A62F3CC037B827B8AC3F3C9030C
:1023D8009BB21A463B689B6803FB02F3C3F31202E5
:1023E8003B6962F312033B613B681B787A681433DC
:1023F8009B0013445B683A691A617B68DB78012BA0
:1024080009D13B681B787A6814339B0013445B68D6
:102418003A6812695A613B68DB78012B0CD13B683A
:102428005B79002B04D0FB7D43F02003FB7503E0B0
:10243800FB7D43F01003FB75FB7D43F00403FB7544
:10244800FB7D43F08003FB753B681B787A68143387
:102458009B0013445B687A691A60FB7F1846203733
:10246800BD4680BD80B489B000AF78603960002374
:10247800FB770023BB6100233B610023BB603B6803
:102488005B78012B70D17B689B697B617B691B68DA
:102498003B617B691B69BB603B685B69002B09D1A9
:1024A8003B7A6FF306033B72BB7A012262F3C403E3
:1024B800BB7223E03B685A693B689B689A420ED915
:1024C8003B689A683B685A613B689B68DBB203F0DB
:1024D8007F03DAB23B7A62F306033B7209E03B689A
:1024E8005B69DBB203F07F03DAB23B7A62F306037F
:1024F8003B72BB7A012262F3C403BB72BA687B6980
:102508001A617B68DB78012B09D13B681B787A68F4
:1025180004339B0013449B683A6812695A61FB7C38
:1025280043F00403FB74FB7C43F08003FB743A69BB
:102538007B691A607B68DB78002B76D13B685B6926
:10254800002B72D03B681B781A46012393401A4629
:10255800BB691343BB617B681B697A681269516B5D
:10256800BA690A435A6360E03B681B787A68143397
:102578009B0013445B681B683B613B681B787A6867
:1025880014339B0013445B681B69BB603B685B6941
:10259800002B0FD13B689B68DBB203F07F03DAB2F4
:1025A8003B7A62F306033B72BB7A012262F3C403EF
:1025B800BB7212E03B689A683B685A613B689B684B
:1025C800DBB203F07F03DAB23B7A62F306033B72B5
:1025D800BB7A012262F3C403BB723B681B787A683A
:1025E80014339B0013445B68BA681A617B68DB7814
:1025F800012B09D13B681B787A6814339B0013447C
:102608005B683A6812695A61FB7C43F00403FB7407
:10261800FB7C43F08003FB743B681B787A681433B7
:102628009B0013445B683A691A60FB7F184624379D
:10263800BD4680BC704700BF80B487B000AF7860EB
:1026480039600023FB750023FB603B685B78012B36
:102658001CD13B681B787A6804339B0013449B6841
:102668003B613B691B68FB60FB7B23F07F03DBB2AC
:10267800002B03D0FB7B43F04003FB73BB7B43F091
:102688002003BB73FA683B691A6011E03B681B784A
:102698007A6814339B0013445B683B613B691B6891
:1026A800FB60BB7B43F02003BB73FA683B691A608D
:1026B800FB7D18461C37BD4680BC704780B487B088
:1026C80000AF786039600023FB740023FB603B682F
:1026D8005B78012B08D13B681B787A6804339B0030
:1026E80013449B687B6107E03B681B787A68143366
:1026F8009B0013445B687B617B691B68FB60BB7B49
:102708006FF34513BB733B68DB78032B03D03B683F
:10271800DB78022B03D1FB7B43F01003FB73FA68D1
:102728007B691A60FB7C18461C37BD4680BC704725
:1027380080B485B000AF78607B681B699B69FB60DB
:102748007B681B69DB69FA681340FB60FB681B0C3C
:1027580018461437BD4680BC704700BF80B485B0AA
:1027680000AF78600B46FB70FB787A6814339B00E7
:1027780013445B689B68FB607B681B695B69FA684C
:102788001340FB60FB6818461437BD4680BC704791
:1027980080B485B000AF78607B681B699B69FB607B
:1027A8007B681B69DB69FA681340FB60FB689BB2B6
:1027B80018461437BD4680BC704700BF80B487B048
:1027C80000AF786000233B61FB7C43F0C003FB74DF
:1027D800BB7C012262F3C403BB743B7C182262F306
:1027E80006033B747B685B6D3A691A617B68DB782A
:1027F800012B16D10023FB607B685B6D7A6802F2BF
:10280800CC525A617B685B6D1B68FB60FB7B43F0B5
:102818008003FB734FF08023FB607B685B6DFA6875
:102828001A6000BF1C37BD4680BC704780B485B0B5
:1028380000AF78607B689B7A002B1BD07B681B6994
:102848009B68FB603B7B03F00103DBB2002B11D0DC
:102858007B6803F586731B68BB603B7A6FF34103A3
:102868003B723B7A6FF300033B727B68D3F80C3101
:10287800BA681A6000BF1437BD4680BC704700BFF5
:1028880080B400AF00BFBD4680BC704780B483B041
:1028980000AF0346FB71FB79002B01D0012B00E050
:1028A80000BF00BF0C37BD4680BC704780B400AF86
:1028B80000BFBD4680BC704780B400AF00BFBD46B6
:1028C80080BC704780B400AF00BFBD4680BC704775
:1028D80080B400AF00BFBD4680BC704780B400AF75
:1028E80000BFBD4680BC704780B584B000AF78603B
:1028F8004FF40073BB810423FB730323BB7307F1FD
:102908000C031946124801F02DF94FF48063BB817E
:102918004823FB730323BB7307F10C0319460C48C8
:1029280001F020F94FF4C053BB811023FB7303233C
:10293800BB7307F10C031946054801F013F901218F
:102948004FF4805002F0ACF900BF1037BD4680BD8F
:102958000008014080B584B000AF78604FF4A060F3
:1029680004F0DEFA43233B7301237B730323BB7319
:102978000123FB7307F10C03184604F0E3FA00BFC8
:102988001037BD4680BD00BF80B485B000AF786009
:102998000023FB607A6813461B019B1ADB001A466A
:1029A8000A4BA3FB0213D21A520813449B08BB60BC
:1029B800FB680133FB60FA68BB689A4200D8F7E706
:1029C80000BF1437BD4680BC704700BF254992241C
:1029D80080B582B000AF78607B684FF47A7202FBF2
:1029E80003F31846FFF7D0FF00BF0837BD4680BD88
:1029F80080B500AF1A4A1A4B1B6843F001031360F5
:102A08001749174B5A68174B13404B60144A144B1D
:102A18001B6823F0847323F480331360104A104B2F
:102A28001B6823F4802313600D4A0D4B5B6823F465
:102A3800FE0353600A4A0A4B1B6823F0A053136035
:102A4800074B4FF47F029A60054B0022DA6200F0D0
:102A58000DF8054B4FF000629A6000BF80BD00BFC3
:102A6800001002400000FFF000ED00E080B500AF6C
:102A780000F002F800BF80BD80B483B000AF00232F
:102A88007B6000233B60474A464B1B6843F4803316
:102A98001360444B1B6803F400333B607B680133CD
:102AA8007B603B68002B03D17B68B3F5A06FF0D146
:102AB8003C4B1B6803F40033002B02D001233B601E
:102AC80001E000233B603B68012B66D1364A364B58
:102AD8001B6843F010031360334A334B1B6823F021
:102AE80003031360304A304B1B6843F00203136042
:102AF8002C4A2C4B5B6853602A4A2A4B5B6853600C
:102B0800284A284B5B6843F4806353602549254B6A
:102B1800DA6A264B1340CB62224A224BDB6A43F423
:102B2800833343F04403D3621E4A1E4B1B6843F0B1
:102B38008063136000BF1B4B1B6803F00063002B0E
:102B4800F9D0184A174B5B6823F47C135360154A75
:102B5800144B5B6843F4E8135360124A114B1B682B
:102B680043F08073136000BF0E4B1B6803F00073C3
:102B7800002BF9D00B4A0B4B5B6823F0030353601F
:102B8800084A084B5B6843F00203536000BF054BDB
:102B98005B6803F00C03082BF9D100BF0C37BD4666
:102BA80080BC7047001002400020024000F0FEFF89
:102BB80080B586B000AF0346FB800023FB8200236C
:102BC8003B614C4B00225A744A4B00229A76494B7F
:102BD80000221A83474B00229A62464B0022DA628F
:102BE800444B00221A63434B00225A6300F086F8D4
:102BF8000246414B9A4202D04FF0FF3376E000F094
:102C0800FFFE002000F058FD04220021242000F0DF
:102C18002DFB1E2000F082FB0346FB82FB8A1B0A69
:102C28009BB2DAB2334B5A72042000F077FB38615A
:102C38003B69DBB2002B0BD0022212212D2000F0C1
:102C480015FB2C4B1B8B43F480539AB2294B1A83E8
:102C5800062000F063FB0246264B1A60072000F0AE
:102C68005DFB0246234B5A60FB8ADBB203F01F036D
:102C7800DAB2204B1A741F4B1B7C002B02D11D4B60
:102C880010221A741B4B1B7C184600F0DDFEFB88D3
:102C980003F00103002B09D000F08EFB154B1B8BB2
:102CA80043F400639AB2134B1A830FE005213620D0
:102CB80000F0AAFA0346FB81FB8923F40073FB8129
:102CC800FB891A460521362000F0E4FA012000F0BD
:102CD800F3FC00220A212C2000F0C8FA002104206D
:102CE80000F06AFA0246034B5A6100231846183767
:102CF800BD4680BDBC0500203001CADE80B500AFEE
:102D08000021002000F058FA0346184680BD00BF95
:102D180080B586B000AF78600023FB750023BB75D3
:102D28007B681B78FB747B685B791A469B4B33F88E
:102D38001230BB827B685B78013BBB74FB7C042B45
:102D480002D0FB7C072B01D1012300E000237B7418
:102D58007B68DB79002B09D1914B5B6943F48003D5
:102D68008F4A5361BB8ADB08BB8205E08C4B5B69E9
:102D780023F480038A4A53617B681A7A884B1A7253
:102D8800874B5B6923F44033854A5361844B5A6906
:102D98007B681B7A1B0403F440331343804A536156
:102DA8007F4B5B691A460021042000F08FFABB8A2A
:102DB8001A4642F604012E2000F06CFABB7C184635
:102DC80000F0DAFAFB7C774AD35C1A46764B53F864
:102DD80022301A4607212B2000F078FAFB7C714A32
:102DE800D35C1A46714B9B5C1A460B212B2000F0D2
:102DF8003DFA7B7C6E4AD35C1A460B21282000F0F2
:102E080035FAFB7C674AD35C1A466A4B53F8223082
:102E18001A460C21282000F059FA7B68DB791846FD
:102E28007B689B791946644A43000B4432F8133097
:102E38001A460221272000F02DFABB7C5F4A32F89F
:102E480013301A460421272000F024FA7B68DB7926
:102E5800002B05D164220621272000F01BFA18E078
:102E68007B689B78042B0AD110220621272000F0CA
:102E780011FA10222621272000F0F8F909E0202273
:102E88000621272000F006FA28222621272000F014
:102E9800EDF9BB7C7A68D2781146494A9B000B440D
:102EA80052F823301A460821272000F00FFA7B68D1
:102EB8005B89002B03D17B6841F241025A817B6810
:102EC8005B891A462021272000F0E4F93D4B1B6856
:102ED8001A460C21232000F0F9F9BB7C394A5B0023
:102EE80013449B881A460421232000F0D3F97B68F9
:102EF8009B79002B0DD07B68DB791A46324B9B5CA3
:102F08001A460021212000F0B1F90323FB750123A3
:102F1800BB75FB7C03F00F02FB7C1B01DBB21A4381
:102F28007B685B789B0403F440231A43FB7D1B05F5
:102F380003F440131A43BB7D5B0403F400331A43C4
:102F48007B681B799B0503F0F86313437A68527911
:102F5800D2061343FB60FA6800211F2000F0B6F97F
:102F68007B689A787B685B781343DBB21A047B68CA
:102F7800DB795B0313431A46094BDA60084BDB68BD
:102F88001A460021082000F0A1F9422200210D2054
:102F980000F06CF900BF1837BD4680BDF48E0008FC
:102FA800BC050020748E0008948E0008AC8E0008C2
:102FB800B48E00087C8E0008C48E0008D08E0008ED
:102FC800D48E0008B88E0008C08E000880B582B084
:102FD80000AF0346FB80FB881A4641F604012E2009
:102FE80000F058F900BF0837BD4680BD80B582B0F3
:102FF80000AF0346FB80FB881A460021182000F02A
:1030080049F900BF0837BD4680BD00BF80B582B012
:1030180000AF78600B467B8013463B807A883988FE
:103028007B68112000F06EF800BF0837BD4680BDF0
:1030380080B582B000AF78607B680522002115203A
:1030480000F060F800BF0837BD4680BD80B586B087
:1030580000AFBA607B600346FB810B46BB8100234F
:103068007B61BB89002B0DD17B695A1C7A61FA8977
:10307800D2B262F07F02D2B207F118010B4403F812
:10308800082C33E07B695A1C7A61FA89D2B262F063
:103098003F02D2B207F118010B4403F8082CBB8990
:1030A8007F2B0AD87B695A1C7A61BA89D2B207F198
:1030B80018010B4403F8082C18E07B695A1C7A6144
:1030C800BA89D2B262F07F02D2B207F118010B447A
:1030D80003F8082C7B695A1C7A61BA89D20992B222
:1030E800D2B207F118010B4403F8082C7B6998B297
:1030F80007F110017B68BA6800F0BEFC00BF183702
:10310800BD4680BD80B586B000AFBA607B6003461F
:10311800FB810B46BB8100237B61BB89002B0AD155
:103128007B695A1C7A61FA89D2B207F118010B44FB
:1031380003F8082C33E07B695A1C7A61FA89D2B209
:1031480042F04002D2B207F118010B4403F8082CF0
:10315800BB897F2B0AD87B695A1C7A61BA89D2B29B
:1031680007F118010B4403F8082C18E07B695A1C76
:103178007A61BA89D2B262F07F02D2B207F118013D
:103188000B4403F8082C7B695A1C7A61BA89D20966
:1031980092B2D2B207F118010B4403F8082C7B69EC
:1031A80098B207F110017B68BA6800F09FFC00BF75
:1031B8001837BD4680BD00BF80B586B000AF7860C7
:1031C800396000237B617B6898B23B6899B207F14C
:1031D8000C030422FFF796FF03233B610BE07B6996
:1031E8001B0207F10C013A690A44127813447B6107
:1031F8003B69013B3B613B69002BF0DA7B69184670
:103208001837BD4680BD00BF80B584B000AF786078
:1032180039600023FB817B6898B23B6899B207F15B
:103228000C030222FFF76EFF7B7B9BB21B029AB254
:103238003B7B9BB21344FB81FB8918461037BD4684
:1032480080BD00BF80B584B000AF786039607B680E
:1032580098B23B6899B207F10F030122FFF752FFBA
:10326800FB7B18461037BD4680BD00BF80B584B0D3
:1032780000AFF860B9601346FB71FB6898B2BB6891
:1032880099B2FB1D0122FFF7E1FE00BF1037BD46D2
:1032980080BD00BF80B586B000AFF860B960134646
:1032A800FB80FB88DBB23B75FB881B0A9BB2DBB259
:1032B8007B75FB6898B2BB6899B207F114030222C8
:1032C800FFF7C4FE00BF1837BD4680BD80B586B085
:1032D80000AFF860B9607A6000237B610DE07B681D
:1032E800D9B207F110027B6913440A461A707B6849
:1032F8001B0A7B607B6901337B617B69032BEEDDF5
:10330800FB6898B2BB6899B207F110030422FFF773
:103318009DFE00BF1837BD4680BD00BF80B584B094
:1033280000AF78607B689BB21A4604212D20FFF716
:10333800B1FF032206212D20FFF798FF0022062166
:103348002D20FFF793FF0A212D20FFF735FFF860A6
:10335800FB6818461037BD4680BD00BF80B500AF7A
:10336800002202212C20FFF781FF022202212C20BB
:10337800FFF77CFF00BF80BD80B582B000AF7860EA
:103388006D2240F606012E20FFF770FF7B68002BA8
:1033980007D040F2076241F606012E20FFF77AFFB8
:1033A80006E041F2076241F606012E20FFF772FFA0
:1033B80000BF0837BD4680BD80B500AF0E2000F0C5
:1033C8007BF94FF4004206212D20FFF763FF01200F
:1033D80002F018F8012000F06FF900BF80BD00BFAF
:1033E80080B582B000AF786000210420FFF7E4FECA
:1033F80002460E4B5A617B68002B06D00B4B5B696B
:1034080023F48023094A536105E0084B5B6943F4C0
:103418008023064A5361054B5B691A460021042044
:10342800FFF754FF00BF0837BD4680BDBC0500202C
:1034380080B485B000AFF860B9607A603B60084A34
:10344800FB689362064ABB68D362054A7B681363CC
:10345800034A3B68536300BF1437BD4680BC7047BE
:10346800BC05002080B584B000AF00210F20FFF715
:10347800A3FE02465E4BDA615D4BDB69BB60BB684D
:1034880003F48043002B5CD04FF4DE4200210F2070
:10349800FFF71CFF564B002283F824200021102040
:1034A800FFF7B2FE0346FB80FB88C3F30903FB81E9
:1034B8004F4B1B7A002B03D1FB8903F07F03FB8161
:1034C8004B4AFB891384B7F90630002B08DA484BBE
:1034D80093F8243043F00103DAB2454B83F82420F3
:1034E800444B022200211120FFF70CFEBB6803F0B9
:1034F8000803002B14D03E4B93F8223003F020032E
:10350800002B0DD1082200210F20FFF7DFFE384BDA
:10351800DB6923F00803364AD361354B00229A76DB
:10352800334BDB6A002B03D0314BDB6A32489847B8
:103538002F4B5B7C002B04D0012203210D20FFF7C9
:1035480095FEBB6803F08003002B19D0F8220021F8
:103558000F20FFF7BBFEBB6803F00803002B07D062
:10356800234B9B7E002B03D000F04CF900F03AFA75
:103578001F4B9B6A002B03D01D4B9B6A1E48984724
:10358800BB6803F40813002B14D04FF40032002159
:103598000F20FFF79BFE164B00229A7600F032F9B7
:1035A80000F020FA124B1B6B002B03D0104B1B6B47
:1035B80011489847BA68114B1340002B13D00F4A93
:1035C80000210F20FFF782FE094B00229A7600F0B7
:1035D80019F900F007FA064B5B6B002B03D0044B7C
:1035E8005B6B0548984700BF1037BD4680BD00BFDC
:1035F800BC050020DE050020D80500200090052429
:1036080080B584B000AF0346FB71FB7903F001037A
:10361800002B3FD000212620FFF7CEFDF860FB6885
:1036280023F47053FB60FB6843F4A053FB60FA6813
:1036380000212620FFF74AFE00213620FFF7BCFDB7
:10364800F860FB6843F40403FB60FA680021362045
:10365800FFF73CFE4FF48873FB60FB7903F002032D
:10366800002B03D0FB6843F47023FB60FA68282121
:103678003620FFF72BFEFB7903F00203002B17D04F
:10368800FB6823F47023FB60FA6828213620FFF7D3
:103698001DFE0DE000212620FFF78EFDF860FB6877
:1036A80023F47053FB60FA6800212620FFF70EFE12
:1036B80000BF1037BD4680BD80B584B000AF7860CC
:1036C80007F10C03022200213620FFF71BFD7B685F
:1036D8000E2B76D801A252F823F000BF313700082C
:1036E8002137000847370008CB370008CB370008D8
:1036F800CB370008CB3700085D3700087D37000856
:10370800CB370008CB370008933700089F370008ED
:10371800AB370008C137000800233B737B7B23F0DD
:103728000103DBB27B734DE03B7B5BB223F0030309
:103738005BB243F001035BB2DBB23B7342E03B7B1D
:103748005BB223F003035BB243F002035BB2DBB26C
:103758003B7337E03B7B5BB223F04C035BB243F037
:1037680048035BB2DBB23B737B7B63F07F03DBB266
:103778007B7327E03B7B23F04C03DBB23B737B7B03
:1037880003F07F03DBB27B731CE07B7B43F0020317
:10379800DBB27B7316E07B7B23F00203DBB27B7327
:1037A80010E03B7B5BB223F030035BB243F02003B5
:1037B8005BB2DBB23B7305E001233B7303237B73EE
:1037C80000E000BF07F10C03012200213620FFF7BB
:1037D8003DFC07F10C030133012201213620FFF7DC
:1037E80035FC00BF1037BD4680BD00BF80B500AFB7
:1037F8000020FFF761FF002204213620FFF74AFD71
:1038080000BF80BD80B582B000AF00210E20FFF759
:10381800D3FC786001F0A0FC3860002200210E2063
:10382800FFF754FD402200210D20FFF71FFD0B4A32
:1038380000210F20FFF74AFD00F014F87A680021F4
:103848000E20FFF743FD386801F09AFC044B002274
:103858009A7600BF0837BD4680BD00BFF8FF272411
:10386800BC05002080B582B000AF03210F20FFF710
:10387800E9FC0346FB71FA79FB795B00534003F0DE
:103888008003002B04D0012203210D20FFF7EEFC5A
:1038980000BF0837BD4680BD80B584B000AF7860F2
:1038A8007B6803F00403002B01D1FFF7DBFF4FF423
:1038B8008073FB817B6803F00103002B03D0FB8935
:1038C80043F40073FB81FB891A4600210D20FFF7A2
:1038D800E1FC7B6803F00103002B1AD003210F20C1
:1038E800FFF7B0FC03467B737B7B03F00803002BD8
:1038F8000FD0FFF787FF7B6803F00203002B05D189
:103908004FF4807200210D20FFF7C4FC4FF0FF3305
:1039180000E0002318461037BD4680BD80B584B04E
:1039280000AF0346FB8003210420FFF78BFC03460E
:10393800FB73FB88002B16D0FB881A4600210C204D
:10394800FFF7A8FCFB7B43F01003FB73104B5B698C
:1039580043F080530E4A5361FB7B1A46032104202F
:10396800FFF784FC0FE0FB7B23F01003FB73084B8D
:103978005B6923F08053064A5361FB7B1A46032197
:103988000420FFF773FC00BF1037BD4680BD00BFA1
:10399800BC05002080B584B000AF78600B46FB7092
:1039A80001F0DAFBB86000210E20FFF705FCF86093
:1039B800FB78002B04D0FA687B681343FB6004E0B3
:1039C8007B68DB43FA681340FB60FA6800210E202D
:1039D800FFF77CFCB86801F0D3FB00BF1037BD4689
:1039E80080BD00BF80B500AFE02203213620FFF77D
:1039F8003DFCF02203213620FFF738FC00BF80BDD4
:103A080080B500AFFFF7F2FE002200212C20FFF75F
:103A180041FC002206212C20FFF728FCFFF79EFC22
:103A2800002203213620FFF721FC012001F0EAFCE7
:103A3800F02203213620FFF719FC024B00229A7668
:103A480000BF80BDBC05002080B584B000AF034630
:103A5800FB7197F9073003F01F035BB243F0600373
:103A68005BB2FB73FB7B1A460E212B20FFF7FEFB94
:103A780000BF1037BD4680BD2DE970438146904692
:103A88001E460C4601F068FB164B10225A61B9F12C
:103A9800000F0ED0144D2146AE4604EB090211F872
:103AA800013BAB812C89E407FCD58A42BEF80C3077
:103AB800F5D1B8F1000F0DD00B4933460D4606EB92
:103AC800080413F8012B8A810A89D207FCD5A3427E
:103AD800AA89F6D1034B10221A6101F051FB00208C
:103AE800BDE8708300080140003001402DE97043B3
:103AF800814690461E460C4601F02EFB174B1022BD
:103B08005A61B9F1000F0FD0154D2146AE4604EBAE
:103B1800090211F8013BAB812C89E407FCD5BEF8FA
:103B28000C3091423370F4D1B8F1000F0ED00C492B
:103B380033460C464FF00005B0448D810A89D20700
:103B4800FCD5A28903F8012B9845F6D1034B102226
:103B58001A6101F015FB0020BDE8708300080140E0
:103B68000030014080B489B000AF7860396000232C
:103B7800FB6100233B610023BB610023FB60002342
:103B88007B610023BB603B68DB7803F00F03FB61BC
:103B98003B68DB7803F01003002B05D03B689B786B
:103BA8001A46FB691343FB613B681B88DBB2002B99
:103BB80044D07B681B687B610023BB6138E001222D
:103BC800BB6902FA03F3FB603B681B881A46FB6873
:103BD80013403B613A69FB689A4226D1BB699B0056
:103BE800FB600F22FB6802FA03F3BB60BB68DB4390
:103BF8007A6913407B61FA69FB6802FA03F37A6910
:103C080013437B613B68DB78282B05D10122BB6914
:103C18009A407B685A6108E03B68DB78482B04D1FE
:103C28000122BB699A407B681A61BB690133BB6199
:103C3800BB69072BC3D97B687A691A603B681B8804
:103C4800FF2B46D97B685B687B610023BB613AE048
:103C5800BB690833012202FA03F3FB603B681B8847
:103C68001A46FB6813403B613A69FB689A4227D1C0
:103C7800BB699B00FB600F22FB6802FA03F3BB6081
:103C8800BB68DB437A6913407B61FA69FB6802FA17
:103C980003F37A6913437B613B68DB78282B05D1F2
:103CA800BB69083301229A407B685A613B68DB781C
:103CB800482B05D1BB69083301229A407B681A61F9
:103CC800BB690133BB61BB69072BC1D97B687A69C2
:103CD8005A6000BF2437BD4680BC704780B485B0A9
:103CE80000AF78600B467B800023FB737B689A6883
:103CF8007B881340002B02D00123FB7301E00023D3
:103D0800FB73FB7B18461437BD4680BC704700BF69
:103D180080B483B000AF78600B467B807A887B687C
:103D28001A6100BF0C37BD4680BC704780B483B0B1
:103D380000AF78600B467B807A887B685A6100BF49
:103D48000C37BD4680BC704780B487B000AF786040
:103D58000B46FB7000233B610023FB6000237B6163
:103D68000023BB607B68002B03DA2E4BDB697B6189
:103D780002E02C4B5B687B617B681B0C03F00F0334
:103D8800BB607B689BB23B617B6803F44013B3F56F
:103D9800401F0AD17B6923F070637B61214A214B64
:103DA8005B6823F07063536021E07B6803F4801341
:103DB800002B0ED00322BB6802FA03F3FB60FB68FA
:103DC800DB437A6913407B617B6943F070637B61F5
:103DD8000DE07B685B0D1B013A6902FA03F3DB43D4
:103DE8007A6913407B617B6943F070637B61FB7880
:103DF800002B08D07B685B0D1B013A6902FA03F3BC
:103E08007A6913437B617B68002B03DA054A7B6977
:103E1800D36102E0034A7B69536000BF1C37BD468B
:103E280080BC70470000014090B484B000AF0346E6
:103E38000A46FB711346BB710023FB60BB7903F094
:103E480003039B000F2202FA03F3FB601649BB79B8
:103E58009B08DBB21846144ABB799B08DBB20233D5
:103E680052F82320FB68DB431A40831C41F82320C7
:103E78000D48BB799B08DBB21C460B4ABB799B08F3
:103E8800DBB2023352F82320F979BB7903F003033C
:103E98009B0001FA03F31A43A31C40F8232000BF38
:103EA8001037BD4690BC70470000014080B586B011
:103EB80000AFF8607A603B600B46FB72F868FEF76B
:103EC80013FDF86800F03AF8FB683A68C3F8E4258F
:103ED800FB683A6AC3F8E825FB687A68C3F8EC25FA
:103EE800FB7A1946F86803F08FF800237B617B6939
:103EF8003B6106E03A697B6913443B617B690133A6
:103F08007B617B69022BF5DDFB68D3F8E8351B681C
:103F1800984700237B6106E03A697B6913443B615B
:103F28007B6901337B617B69022BF5DDF868FEF75D
:103F380011FD00BF1837BD4680BD00BF80B483B0F7
:103F480000AF7860002318460C37BD4680BC704728
:103F580080B584B000AF786007F108031946786827
:103F680001F028FF3B7A03F01F03012B0AD0022B34
:103F78000FD0002B14D107F108031946786801F017
:103F880043FB16E007F108031946786801F08CFB3B
:103F98000FE007F108031946786801F0B9FB08E05B
:103FA8003B7A23F07F03DBB21946786803F0C2F945
:103FB80000BF002318461037BD4680BD80B584B0C9
:103FC80000AF78600B46FB70FB78002B44D17B6810
:103FD80003F55D73FB607B6893F81131032B4ED1B9
:103FE800FB68DA69FB689B689A4220D9FB68DA6942
:103FF800FB689B68D21AFB68DA617B68DB78012B67
:1040080006D1FB68DA68FB689B681A44FB68DA60CB
:10401800FB68D968FB689A68FB68DB69934228BF2C
:1040280013469BB21A46786803F066FB27E07B6864
:10403800D3F8E4351B69002B0AD07B6893F812315A
:10404800032B05D17B68D3F8E4351B69786898475A
:10405800786803F065FB12E07B68D3F8E4359B6968
:10406800002B0CD07B6893F81231032B07D17B68A7
:10407800D3F8E4359B69FA781146786898470023A5
:1040880018461037BD4680BD80B584B000AF786053
:104098000B46FB70FB78002B6BD17B6803F58E73A6
:1040A800FB607B6893F81131022B55D1FB68DA6904
:1040B800FB689B689A421BD9FB68DA69FB689B68B6
:1040C800D21AFB68DA617B68DB78012B06D1FB68C2
:1040D800DA68FB689B681A44FB68DA60FB68D96891
:1040E800FB68DB699BB21A46786803F0D1FA33E0C3
:1040F800FB681B6AFA689268B3FBF2F102FB01F2F3
:104108009B1A002B14D1FB681A6AFB689B689A42B9
:104118000ED3FB681A6AFB685B6A9A4208D20022CF
:104128000021786803F0B4FAFB6800225A6213E0B1
:104138007B68D3F8E435DB68002B0AD07B6893F8FA
:104148001231032B05D17B68D3F8E435DB68786836
:104158009847786803F0FCFA7B6893F81631012BCE
:104168001AD1786800F01EF87B68002283F81621BF
:1041780012E07B68D3F8E4355B69002B0CD07B68D0
:1041880093F81231032B07D17B68D3F8E4355B69C8
:10419800FA78114678689847002318461037BD46C4
:1041A80080BD00BF80B483B000AF78607B681B69B6
:1041B800044A12685A60002318460C37BD4680BC72
:1041C800704700BF4806002080B582B000AF786015
:1041D800002340220021786802F09AFF0023402241
:1041E8008021786802F094FF7B68012283F812210D
:1041F8007B68D3F8E8355B687A6892781046984708
:10420800002318460837BD4680BD00BF80B582B080
:1042180000AF78607B68D3F8E8351B6998477B68FE
:1042280093F813217B6883F812217B68032283F8B3
:104238001221002318460837BD4680BD80B582B0DC
:1042480000AF78607B6893F812217B6883F81321AC
:104258007B68042283F812217B68D3F8E835DB6891
:104268009847002318460837BD4680BD80B582B000
:1042780000AF78607B68D3F8E435DB69002B05D0A4
:104288007B68D3F8E435DB697868984700231846DB
:104298000837BD4680BD00BF80B582B000AF7860EA
:1042A8000B46FB707B68D3F8E4351B68FA78114637
:1042B800786898477B68D3F8E8359B689847002367
:1042C80018460837BD4680BD80B582B000AF78601B
:1042D8000B46FB707B68D3F8E4355B68FA781146C7
:1042E80078689847002318460837BD4680BD00BF48
:1042F80080B582B000AF78607B68D3F8E4351B6A7C
:1043080078689847002318460837BD4680BD00BF27
:1043180080B582B000AF78607B68D3F8E4355B6A1B
:1043280078689847002318460837BD4680BD00BF07
:1043380080B582B000AF78607B68D3F8E8355B69F8
:1043480098477B68012283F815210023184608370F
:10435800BD4680BD80B582B000AF78607B68D3F879
:10436800E8359B6998477B68D3F8E4355B6800219A
:10437800786898477B68002283F81521002318463F
:104388000837BD4680BD00BF80B483B000AF034688
:10439800FB71084997F907305B09FA7902F01F02A7
:1043A800012000FA02F241F8232000BF0C37BD4675
:1043B80080BC704700E100E080B483B000AF0346E2
:1043C800FB71094997F907305B09FA7902F01F0276
:1043D800012000FA02F2203341F8232000BF0C37F5
:1043E800BD4680BC704700BF00E100E080B584B0E6
:1043F80000AF0346FB71194803F0B8FA03F08EFCCE
:1044080003F058FB0120FEF7D3FB0346B3F1FF3F4F
:1044180003D1134802F060FDFEE703F053FBFEF7FB
:104428006DFCF860FB680F4A934202D04FF0FF33EF
:104438000FE00123BB60BA6813465B0013449B007E
:10444800094A13441846FEF763FC0120FFF7D8F821
:10445800FB6818461037BD4680BD00BF6D340008A4
:10446800848D00083001CADE6000002080B485B069
:1044780000AF78603960FF23FB81FF23BB812AE00E
:104488003B68152BA8BF1523BB603A68BB68D31AD5
:104498003B607B685A1C7A601B789AB2FB8913448C
:1044A800FB81BA89FB891344BB81BB68013BBB60B4
:1044B800BB68002BEDD1FB89DBB29AB2FB891B0AE2
:1044C8009BB21344FB81BB89DBB29AB2BB891B0A3E
:1044D8009BB21344BB813B68002BD1D1FB89DBB273
:1044E8009AB2FB891B0A9BB21344FB81BB89DBB2DE
:1044F8009AB2BB891B0A9BB21344BB81BB891B02BE
:104508001AB2B7F90E3013431BB29BB218461437D0
:10451800BD4680BC704700BF90B591B000AF042085
:1045280003F052FC03F008FD502200218148FCF7FB
:104538006BFF102280497F48FCF7C8FE7D4A0121A5
:10454800282002F069FC10227C497A48FCF7BEFE5C
:10455800784A0121102002F05FFC4FF47A7000F0D5
:104568005DFF00F013FF4FF47A7000F057FF002052
:1045780003F0FAFB03465B005CB2012003F00CFC7D
:1045880003469B005BB223435CB2022003F004FCA9
:104598000346DB005BB223435CB2042003F0FCFB60
:1045A80003461B015BB223435CB2082003F0F4FB13
:1045B80003465B015BB223435CB2102003F0ECFBC3
:1045C80003469B015BB223435CB2202003F0E4FB6B
:1045D8000346DB015BB223435BB2DAB2584B1A7075
:1045E8001720FFF7E9FE042003F0EEFB544B1B787D
:1045F8001846FFF7FBFE0346B3F1FF3F07D104203F
:1046080003F01CFC4F4802F067FC00238DE04E4B82
:1046180007F120040FCB84E80F00494B1B789B005F
:1046280003F04002464B1B7803F020031A44444B26
:104638001B789B1003F0100313441B11DBB23033BB
:10464800DBB287F82F3007F12003184602F044FC4C
:104658004FF47A7000F0E2FE0123BB63384B187800
:10466800BA6B13465B0013449B00384A134419463F
:1046780003F072FC1E23FB630EE0FB6B03F00103E7
:10468800002B03D0042003F09FFB02E0042003F07A
:10469800D5FBC82000F0C2FEFB6B5A1EFA63002B44
:1046A800EBD10023FB63042003F08EFB1720FFF7F8
:1046B8006BFE0020FFF7F0F8254B1B78012BFBD190
:1046C800AA233B70234B1B787B70224B5B78BB7013
:1046D800214B1B687B637B6B1B0EDBB2FB707B6B18
:1046E8001B0CDBB23B717B6B1B0ADBB27B717B6BF8
:1046F800DBB2BB713B4607211846FFF7B7FE0346FE
:104708007B867B8E1B0A9BB2DBB2FB717B8EDBB296
:104718003B723B460921184600F018FE00F058FE8F
:104728004FF47A7000F07AFEC6E718464437BD4663
:1047380090BD00BF50060020908D0008A48D000891
:10474800F4050020B88D0008C88D0008600000201E
:10475800A8060020A0060020A406002080B400AF10
:10476800184A184B1B6843F0010313601549154B91
:104778005A68154B13404B60124A124B1B6823F0C2
:10478800847323F4803313600E4A0E4B1B6823F4A2
:10479800802313600B4A0B4B5B6823F4FE035360C2
:1047A800084A084B1B6823F0A0531360054B4FF4CD
:1047B8007F029A60034B0022DA6200BFBD4680BCCC
:1047C800704700BF001002400000FFF080B483B0C3
:1047D80000AF7860134A134B1B6823F480331360CF
:1047E800104A104B1B6823F4802313607B68B3F5D1
:1047F800803F03D0B3F5802F07D00DE0094A094B5D
:104808001B6843F48033136006E0064A054B1B68B7
:1048180043F4A023136000BF00BF0C37BD4680BC23
:10482800704700BF0010024080B582B000AF00237F
:104838003B600023FB710023BB71312000F0C6FAF6
:104848000346BB713B6801333B603B68B3F5A06F1F
:1048580002D0BB79002BF0D0312000F0B7FA034624
:10486800002B02D00123FB7101E00023FB71FB79CF
:1048780018460837BD4680BD80B485B000AF786063
:1048880039600023FB600A4B5B68FB60FB6823F41C
:104898007413FB607A683B681343FA681343FB6040
:1048A800034AFB68536000BF1437BD4680BC70479D
:1048B8000010024080B483B000AF0346FB71044A85
:1048C800FB79136000BF0C37BD4680BC704700BF42
:1048D8006000424280B485B000AF78603960002340
:1048E800FB600B4BDB6AFB60FB6823F4803323F02F
:1048F8000F03FB607A683B681343FA681343FB6055
:10490800034AFB68D36200BF1437BD4680BC7047BA
:104918000010024080B485B000AF78600023FB60CF
:10492800094BDB6AFB60FB6823F0F003FB60FA6865
:104938007B681343FB60044AFB68D36200BF1437EB
:10494800BD4680BC704700BF0010024080B485B0EF
:1049580000AF78600023FB60094BDB6AFB60FB68F3
:1049680023F47063FB60FA687B681343FB60044AB6
:10497800FB68D36200BF1437BD4680BC704700BFD8
:104988000010024080B483B000AF0346FB71044AB4
:10499800FB79136000BF0C37BD4680BC704700BF71
:1049A8006800424280B485B000AF78600023FB60A5
:1049B800094B5B68FB60FB6823F00303FB60FA6844
:1049C8007B681343FB60044AFB68536000BF1437DD
:1049D800BD4680BC704700BF0010024080B400AFE5
:1049E800044B5B68DBB203F00C03DBB21846BD4630
:1049F80080BC70470010024080B485B000AF78607A
:104A08000023FB60094B5B68FB60FB6823F0F00345
:104A1800FB60FA687B681343FB60044AFB685360D9
:104A280000BF1437BD4680BC704700BF001002406D
:104A380080B485B000AF78600023FB60094B5B68E9
:104A4800FB60FB6823F4E063FB60FA687B68134350
:104A5800FB60044AFB68536000BF1437BD4680BC46
:104A6800704700BF0010024080B485B000AF786086
:104A78000023FB60094B5B68FB60FB6823F4605311
:104A8800FB607B68DB00FA681343FB60034AFB6842
:104A9800536000BF1437BD4680BC70470010024009
:104AA80080B485B000AF78600023FB60094B5B6879
:104AB800FB60FB6823F44043FB60FA687B681343A0
:104AC800FB60044AFB68536000BF1437BD4680BCD6
:104AD800704700BF0010024080B48BB000AF786010
:104AE80000233B6200237B620023FB610023BB6140
:104AF80000237B6100233B610023FB600023BB6034
:104B0800614B5B6803F00C033B623B6A042B07D0E4
:104B1800082B09D0002B5DD17B685C4A1A605DE0E8
:104B28007B685B4A1A6059E0574B5B6803F4701363
:104B38007B62554B5B6803F48033FB617B6A9B0C9B
:104B48007B627B6A0D2B03D07B6A02337B6201E0B8
:104B580006237B62FB69002B06D17B6A4D4A02FB68
:104B680003F27B681A6039E0474BDB6A03F4803351
:104B78007B61454BDB6A03F00F0301333B617B69C3
:104B8800002B09D1424A3B69B2FBF3F37A6A02FB74
:104B980003F27B681A6021E03B4BDB6A03F0F00309
:104BA8001B090133FB60384BDB6A03F470631B0A93
:104BB8000233BB60364AFB68B2FBF3F3BA6802FB08
:104BC80003F23B69B2FBF3F37A6A02FB03F27B68F8
:104BD8001A6003E07B682D4A1A6000BF2A4B5B68A5
:104BE80003F0F0033B623B6A1B093B622A4A3B6ABB
:104BF80013441B78DBB2BB617B681A68BB69DA4077
:104C08007B685A60204B5B6803F4E0633B623B6A55
:104C18001B0A3B62204A3B6A13441B78DBB2BB6128
:104C28007B685A68BB69DA407B689A60164B5B6898
:104C380003F460533B623B6ADB0A3B62164A3B6AF9
:104C480013441B78DBB2BB617B685A68BB69DA40E6
:104C58007B68DA600C4B5B6803F440433B623B6A59
:104C68009B0B3B620D4A3B6A13441B78DBB2BB616A
:104C78007B68DA68BB69B2FBF3F27B681A6100BF34
:104C88002C37BD4680BC70470010024000127A00E5
:104C980040787D0100093D0090000020A000002020
:104CA80080B483B000AF78600B46FB70FB78002BB4
:104CB80006D00949084B5A697B6813434B6106E0E3
:104CC8000549054B5A697B68DB4313404B6100BFBC
:104CD8000C37BD4680BC70470010024080B483B0DA
:104CE80000AF78600B46FB70FB78002B06D00949B3
:104CF800084B9A697B6813438B6106E00549054BAD
:104D08009A697B68DB4313408B6100BF0C37BD4653
:104D180080BC70470010024080B483B000AF786058
:104D28000B46FB70FB78002B06D00949084BDA6963
:104D38007B681343CB6106E00549054BDA697B685C
:104D4800DB431340CB6100BF0C37BD4680BC7047C6
:104D58000010024080B483B000AF78600B46FB704F
:104D6800FB78002B06D00949084BDA687B681343A7
:104D7800CB6006E00549054BDA687B68DB431340E6
:104D8800CB6000BF0C37BD4680BC704700100240A6
:104D980080B483B000AF78600B46FB70FB78002BC3
:104DA80006D00949084B1A697B6813430B6106E072
:104DB8000549054B1A697B68DB4313400B6100BF4B
:104DC8000C37BD4680BC70470010024080B487B0E5
:104DD80000AF0346FB710023FB6000237B610023C7
:104DE800FB74FB795B09DBB2FB60FB68012B03D129
:104DF800124B1B687B6109E0FB68022B03D10F4B48
:104E08001B6A7B6102E00D4B5B6A7B61FB7903F0F7
:104E18001F03FB607A69FB6822FA03F303F00103BE
:104E2800002B02D00123FB7401E00023FB74FB7C00
:104E380018461C37BD4680BC704700BF00100240B2
:104E4800002103E00B4B5B58435004310A480B4BDD
:104E580042189A42F6D30A4A02E0002342F8043B79
:104E6800084B9A42F9D3FDF7C3FDFCF7A5FAFFF703
:104E780053FB7047BC8F000800000020A0050020ED
:104E8800A0050020205E0020FEE7000080B485B069
:104E980000AF78600023FB60344BFB607B689B7934
:104EA800002B4FD03149314B1A687B681B68DB43B4
:104EB80013400B602D492D4B5A687B681B68DB43F8
:104EC80013404B607B681B791A46FB681344FB60F0
:104ED800FB68FA6811687A6812680A431A602349FD
:104EE800224B9A687B681B68DB4313408B601F4921
:104EF8001E4BDA687B681B68DB431340CB607B681A
:104F08005B79102B0ED11949184B9A687B681B687E
:104F180013438B601549154BDA687B681B6813438C
:104F2800CB601DE0114BFB607B685B791A46FB6820
:104F38001344FB60FB68FA6811687A6812680A43D0
:104F48001A600DE07B681B791A46FB681344FB6006
:104F5800FB68FA6811687A681268D2430A401A60D6
:104F680000BF1437BD4680BC704700BF0004014035
:104F780080B483B000AF7860034A7B68536100BF98
:104F88000C37BD4680BC70470004014080B483B034
:104F980000AF03463960FB713B6812221A80034B4D
:104FA80018460C37BD4680BC704700BFC0000020C3
:104FB80080B483B000AF03463960FB713B680422BC
:104FC8001A80034B18460C37BD4680BC704700BF9B
:104FD800E000002080B582B000AF03463960FB7165
:104FE800FB79002B05D13A680749084800F03EFFD5
:104FF80004E03A680449064800F038FF024B1846B6
:105008000837BD4680BD00BF3C4B0020DC8D000842
:10501800008E000880B582B000AF03463960FB718E
:105028003A680449044800F021FF024B1846083743
:10503800BD4680BD3C4B0020248E000880B582B060
:1050480000AF03463960FB71FB79002B05D13A6844
:105058000749084800F00AFF04E03A68044906488E
:1050680000F004FF024B18460837BD4680BD00BF5C
:105078003C4B0020388E0008488E000880B582B06E
:1050880000AF03463960FB71FB79002B05D13A6804
:105098000749084800F0EAFE04E03A680449054870
:1050A80000F0E4FE024B18460837BD4680BD00BF3D
:1050B8003C4B0020588E000880B582B000AF0346F4
:1050C8003960FB71FB79002B05D13A68074908481C
:1050D80000F0CCFE04E03A680449054800F0C6FE3A
:1050E800024B18460837BD4680BD00BF3C4B002028
:1050F800648E000880B483B000AF0346FB71084992
:1051080097F907305B09FA7902F01F02012000FACB
:1051180002F241F8232000BF0C37BD4680BC70471F
:1051280000E100E080B483B000AF0346FB71094999
:1051380097F907305B09FA7902F01F02012000FA9B
:1051480002F2203341F8232000BF0C37BD4680BC53
:10515800704700BF00E100E080B582B000AF1720C3
:1051680002F0E6FB03467B607B68002B02D0172029
:10517800FFF7D8FF7B6818460837BD4680BD00BFDB
:1051880080B582B000AF78607B68002B02D0172012
:10519800FFF7B0FF00BF0837BD4680BD80B400AF41
:1051A80000231846BD4680BC704700BF80B400AFDE
:1051B80000231846BD4680BC704700BF80B485B048
:1051C80000AFF860B9607A60002318461437BD460E
:1051D80080BC704770B40D4B0D4E1B68CA18B2F5F1
:1051E800805F33680DD261B10A4D01445A1C10F832
:1051F800014BB2F5805FEC54B4BF134600238842DC
:10520800F4D13360002070BC704700BF280600202E
:1052180020060020C84C00202DE97041DFF82481C9
:1052280000296FD0B8F800C0034642F20F756246F5
:10523800DFF808E14418AA4298BF1E7803F1010379
:1052480098BF0EF802609C4202F10102F3D19EF869
:1052580002409EF80320384D01EB0C0304EB0222B8
:1052680093422B60354D16D0052B1DD005293CD017
:10527800062B06D0032B3ED0A8F800300020BDE84E
:1052880070819EF800302D4A052B40D0072BF5D1B0
:105298005379072BF2D12A4A012100231160A8F87B
:1052A80000300020BDE870812A78642AF3D00529EF
:1052B800E2D10278642ADFD1214A204B0125191D49
:1052C8001560021D814288BF72454FF00004A8F89E
:1052D800004020D840EA030292071CD101680279F5
:1052E80019601A710020BDE870810278642AE3D041
:1052F800062BBFD1C5E79EF80020062ABCD1062C94
:10530800BAD1C8E7DFF834E0B8F800C09FE75379AE
:10531800052BB3D1BFE703788EF8003043788EF8B9
:10532800013083788EF80230C3788EF80330037921
:105338008EF80430A2E700BFFC050020F82B0020FF
:1053480008060020000600200020704770B50C4DAC
:105358002B689BB90C460B4B014622461846FBF7B7
:10536800B5FF0346084A4FF00D0E03F804E0204449
:10537800A11C0A260223467011602B6070BD00BF75
:1053880008060020C40600200406002000B542F2EA
:10539800107283B000210948FCF736F8042002F0A7
:1053A80013FD074A074B00920121074A0748FEF7F9
:1053B8007DFD002003B05DF804FB00BFF82B002042
:1053C8000000002040010020A40000200426002046
:1053D80010B5094C2368012B02D0022B04D010BD54
:1053E800FFF7B2FF206010BD044B05481968FFF7AE
:1053F800F1FE0023236010BD0806002004060020EB
:10540800C406002080B582B000AF7860786800F0EC
:1054180005F800BF0837BD4680BD00BF80B584B021
:1054280000AF786002F02AFA02467B681344FB60FA
:1054380000BF02F023FA0246FB68D31A002BF8DDFE
:1054480000BF1037BD4680BD80B485B000AF78601E
:105458000023FB60094B1B68FB60FB6803F0380303
:10546800FB60FA687B681343FB60044AFB681360BF
:1054780000BF1437BD4680BC704700BF0020024003
:1054880080B483B000AF7860084A084B1B6823F0EB
:10549800100313600549054B1A687B6813430B60BA
:1054A80000BF0C37BD4680BC704700BF00200240DB
:1054B80080B400AF00BFBD4680BC704780B48BB0DD
:1054C80000AF78607B681B687B627B685B683B62C7
:1054D8007B689B68FB617B68DB68BB617B681B69D9
:1054E8007B617B685B693B617B689B69FB607B6870
:1054F800DB69BB60FEE700BF80B400AF1EF0040F9D
:105508000CBFEFF30880EFF309808169004A104768
:10551800C5540008FEE700BF80B400AFFEE700BF37
:1055280080B400AFFEE700BF80B400AFFEE700BF65
:1055380080B400AF00BFBD4680BC704780B400AFE8
:1055480000BFBD4680BC704780B400AF00BFBD46F9
:1055580080BC704780B500AF0120FCF729F80346EE
:10556800002B04D00120FCF74BF8FCF711F800BF22
:1055780080BD00BF80B400AF044B1B680133034AF1
:10558800136000BFBD4680BC704700BF384B002089
:1055980080B500AF074B1B68984720210648FEF7E7
:1055A8009DFB0346012BF5D02020FFF7E1FC00BF4F
:1055B80080BD00BF38060020000C014080B500AF58
:1055C8000A4B9B7A002B0AD0094A094B1B6823F027
:1055D80006031360FDF70CFA0448FDF727F94FF4AA
:1055E8008020FFF7C5FC00BF80BD00BF0426002057
:1055F80010ED00E080B500AF024800F093FC00BF5A
:1056080080BD00BF0426002080B584B000AF78605C
:1056180039600023FB733B685B78092B39D801A2FA
:1056280052F823F07D560008915600089B56000852
:10563800875600089B5600085F5600085556000814
:105648009B56000873560008695600083968786840
:1056580000F036F922E03968786800F005FA1DE0B4
:105668003968786800F03EFA18E03968786800F020
:10567800B3FA13E03968786800F0DEFA0EE03968AA
:10568800786800F003FB09E03968786800F06AFB85
:1056980004E03968786800F0D5FB00BFFB7B18464A
:1056A8001037BD4680BD00BF80B584B000AF7860BC
:1056B80039600023FB737B6893F81231032B1BD1ED
:1056C8003B689B88DBB2012B11D87B68D3F8E435A3
:1056D8009B683968786898473B68DB88002B10D14D
:1056E800FB7B002B0DD1786802F01AF809E03968C5
:1056F800786800F0A7FB04E03968786800F0A2FB3E
:1057080000E000BFFB7B18461037BD4680BD00BFD8
:1057180080B584B000AF786039600023FB733B68C4
:105728009B88BB733B685B78012B39D0032B02D075
:10573800002B6CD0BDE07B6893F81231022B02D0AD
:10574800032B0CD025E0BB7B002B27D0BB7B802B09
:1057580024D0BB7B1946786801F0ECFD1EE03B685D
:105768005B88002B0AD1BB7B002B07D0BB7B802B2F
:1057780004D0BB7B1946786801F0DCFD7B68D3F860
:10578800E4359B68396878689847786801F0C8FFFD
:1057980005E03968786800F055FB00E000BF88E054
:1057A8007B6893F81231022B02D0032B0CD025E032
:1057B800BB7B002B27D0BB7B802B24D0BB7B19461F
:1057C800786801F0B7FD1EE03B685B88002B1CD1B0
:1057D800BB7B002B0ED0BB7B802B0BD0BB7B194631
:1057E800786801F0E5FD7B68D3F8E4359B68396893
:1057F80078689847786801F093FF06E03968786818
:1058080000F020FB02E000BF53E000BF51E07B68DE
:1058180093F81231022B02D0032B0CD042E0BB7B51
:10582800002B44D0BB7B802B41D0BB7B19467868CA
:1058380001F080FD3BE097F90E30002B15DABB7BB9
:1058480003F07F02796813469B001344DB000B4486
:1058580003F58F731B78002B03D0184B01221A60B5
:105868001AE0164B00221A6016E097F90E30002B4A
:1058780012DBBA7B796813469B001344DB000B44A8
:1058880003F276331B78002B03D00C4B01221A60ED
:1058980002E00A4B00221A6002220849786801F0E7
:1058A800D7FE05E03968786800F0CCFA00E000BF60
:1058B80000BFFB7B18461037BD4680BD0C06002094
:1058C80080B584B000AF786039603B685B881B0A9C
:1058D8009BB2013B062B00F2A98001A252F823F0EB
:1058E80005590008355900085D590008355A00085F
:1058F800355A0008215A00082B5A00087B68D3F84B
:10590800EC351B687A68927807F10A0110469847C7
:10591800F8603B68DB88402B05D07B6893F8123130
:10592800012B40F0888008237B8184E07B68D3F8D2
:10593800E4359B6A7A68927807F10A01104698471D
:10594800F860FB68013302221A707B68FA68C3F8B2
:10595800F02571E03B685B88DBB2052B56D801A2C5
:1059680052F823F0855900089D590008B5590008D8
:10597800CD590008E5590008FD5900087B68D3F89F
:10598800EC355B687A68927807F10A011046984707
:10599800F86040E07B68D3F8EC359B687A689278C9
:1059A80007F10A0110469847F86034E07B68D3F89D
:1059B800EC35DB687A68927807F10A011046984757
:1059C800F86028E07B68D3F8EC351B697A68927830
:1059D80007F10A0110469847F8601CE07B68D3F885
:1059E800EC355B697A68927807F10A0110469847A6
:1059F800F86010E07B68D3F8EC359B697A68927898
:105A080007F10A0110469847F86004E03968786899
:105A180000F018FA25E00FE03968786800F012FA0B
:105A28001FE03968786800F00DFA1AE0396878687C
:105A380000F008FA15E000BF7B89002B11D03B6805
:105A4800DB88002B0DD03B68DA887B89934228BF1E
:105A580013469BB27B817B891A46F968786801F006
:105A6800F7FD1037BD4680BD80B584B000AF7860C3
:105A780039603B689B88002B2CD13B68DB88002B66
:105A880028D13B685B88DBB203F07F03FB737B683C
:105A980093F81231032B04D13968786800F0D2F9F1
:105AA8001CE07B68FA7B83F81421FB7B1946786835
:105AB80001F0BCFC786801F033FEFB7B002B04D0BE
:105AC8007B68022283F8122108E07B68012283F8B0
