:020000040800F2
:1000000000000120F9340008353900083D390008A6
:10001000593900085D390008613900080000000006
:10002000000000000000000000000000653900082A
:1000300069390008000000006D390008893900089E
:100040004135000841350008413500087139000884
:1000500041350008413500084135000841350008A8
:100060004135000841350008413500084135000898
:100070004135000841350008413500084135000888
:100080004135000841350008413500084135000878
:10009000413500084135000841350008993900080C
:1000A0004135000841350008413500084135000858
:1000B0004135000841350008413500084135000848
:1000C0004135000841350008413500084135000838
:1000D0004135000841350008413500084135000828
:1000E0004135000841350008C13900080000000012
:1000F0000000000000000000000000000000000000
:1001000000000000000000004135000841350008F3
:1001100041350008413500084135000841350008E7
:1001200041350008413500084135000841350008D7
:1001300041350008413500084135000841350008C7
:10014000413500084135000841350008F139000803
:10015000000000000000000000000000000000009F
:10016000000000000000000000000000000000008F
:10017000000000000000000000000000000000007F
:10018000000000000000000000000000000000006F
:10019000000000000000000000000000000000005F
:1001A000000000000000000000000000000000004F
:1001B000000000000000000000000000000000003F
:1001C000000000000000000000000000000000002F
:1001D000000000000000000000000000000000001F
:0401E0005FF8E0F1F3
:1001E80010B5054C237833B9044B13B10448AFF369
:1001F80000800123237010BDA0050020000000002E
:10020800705E0008084B10B51BB108490848AFF3E9
:1002180000800848036803B910BD074B002BFBD0CA
:10022800BDE81040184700BF00000000A4050020EA
:10023800705E0008A00500200000000081F0004169
:1002480002E000BF83F0004330B54FEA41044FEAB3
:10025800430594EA050F08BF90EA020F1FBF54EA4E
:10026800000C55EA020C7FEA645C7FEA655C00F0EA
:10027800E2804FEA5454D4EB5555B8BF6D420CDDBB
:100288002C4480EA020281EA030382EA000083EA3E
:10029800010180EA020281EA0303362D88BF30BDDE
:1002A80011F0004F4FEA01314FF4801C4CEA113134
:1002B80002D0404261EB410113F0004F4FEA033393
:1002C8004CEA133302D0524263EB430394EA050F1E
:1002D80000F0A780A4F10104D5F1200E0DDB02FA8D
:1002E8000EFC22FA05F2801841F1000103FA0EF221
:1002F800801843FA05F359410EE0A5F120050EF1E7
:10030800200E012A03FA0EFC28BF4CF0020C43FA17
:1003180005F3C01851EBE37101F0004507D54FF024
:10032800000EDCF1000C7EEB00006EEB0101B1F574
:10033800801F1BD3B1F5001F0CD349085FEA3000BA
:100348004FEA3C0C04F101044FEA445212F5800FC5
:1003580080F09A80BCF1004F08BF5FEA500C50F162
:10036800000041EB045141EA050130BD5FEA4C0C45
:10037800404141EB010111F4801FA4F10104E9D1CE
:1003880091F0000F04BF01460020B1FA81F308BFC5
:100398002033A3F10B03B3F120020CDA0C3208DD91
:1003A80002F1140CC2F10C0201FA0CF021FA02F16C
:1003B8000CE002F11402D8BFC2F1200C01FA02F1DC
:1003C80020FA0CFCDCBF41EA0C019040E41AA2BF01
:1003D80001EB0451294330BD6FEA04041F3C1CDAC9
:1003E8000C340EDC04F11404C4F1200220FA04F0E9
:1003F80001FA02F340EA030021FA04F345EA030193
:1004080030BDC4F10C04C4F1200220FA02F001FA54
:1004180004F340EA0300294630BD21FA04F02946D6
:1004280030BD94F0000F83F4801306BF81F480116F
:100438000134013D4EE77FEA645C18BF7FEA655CE2
:1004480029D094EA050F08BF90EA020F05D054EAB4
:10045800000C04BF1946104630BD91EA030F1EBFB9
:100468000021002030BD5FEA545C05D140004941BD
:1004780028BF41F0004130BD14F580043CBF01F5B0
:10048800801130BD01F0004545F0FE4141F4700196
:100498004FF0000030BD7FEA645C1ABF1946104671
:1004A8007FEA655C1CBF0B46024650EA013406BF72
:1004B80052EA033591EA030F41F4002130BD00BF31
:1004C80090F0000F04BF0021704730B54FF48064EE
:1004D80004F132044FF000054FF0000150E700BF6F
:1004E80090F0000F04BF0021704730B54FF48064CE
:1004F80004F1320410F0004548BF40424FF00001BB
:100508003EE700BF42004FEAE2014FEA31014FEAFD
:1005180002701FBF12F07F4393F07F4F81F060514C
:10052800704792F0000F14BF93F07F4F704730B5BB
:100538004FF4607401F0004521F0004120E700BF4E
:1005480050EA010208BF704730B54FF000050AE0D5
:1005580050EA010208BF704730B511F0004502D5D6
:10056800404261EB41014FF4806404F132045FEAD8
:10057800915C3FF4DCAE4FF003025FEADC0C18BF7D
:1005880003325FEADC0C18BF033202EBDC02C2F173
:10059800200300FA03FC20FA02F001FA03FE40EA05
:1005A8000E0021FA02F11444C1E600BF70B54FF005
:1005B800FF0C4CF4E06C1CEA11541DBF1CEA1355E7
:1005C80094EA0C0F95EA0C0F00F0DEF82C4481EA4F
:1005D800030621EA4C5123EA4C5350EA013518BF6F
:1005E80052EA033541F4801143F4801338D0A0FB5C
:1005F80002CE4FF00005E1FB02E506F00042E0FB09
:1006080003E54FF00006E1FB03569CF0000F18BF0E
:100618004EF0010EA4F1FF04B6F5007F64F54074B6
:1006280004D25FEA4E0E6D4146EB060642EAC62149
:1006380041EA55514FEAC52040EA5E504FEACE2EB6
:10064800B4F1FD0C88BFBCF5E06F1ED8BEF1004FB9
:1006580008BF5FEA500E50F1000041EB045170BD35
:1006680006F0004646EA010140EA020081EA030179
:10067800B4EB5C04C2BFD4EB0C0541EA045170BD75
:1006880041F480114FF0000E013C00F3AB8014F1EF
:10069800360FDEBF002001F0004170BDC4F1000438
:1006A800203C35DA0C341BDC04F11404C4F12005B9
:1006B80000FA05F320FA04F001FA05F240EA020014
:1006C80001F0004221F0004110EBD37021FA04F64A
:1006D80042EB06015EEA430E08BF20EAD37070BD04
:1006E800C4F10C04C4F1200500FA04F320FA05F063
:1006F80001FA04F240EA020001F0004110EBD37065
:1007080041F100015EEA430E08BF20EAD37070BDD4
:10071800C4F1200500FA05F24EEA020E20FA04F3AD
:1007280001FA05F243EA020321FA04F001F000415C
:1007380021FA04F220EA020000EBD3705EEA430ECD
:1007480008BF20EAD37070BD94F0000F0FD101F0FC
:100758000046400041EB010111F4801F08BF013C35
:10076800F7D041EA060195F0000F18BF704703F073
:100778000046520043EB030313F4801F08BF013DFA
:10078800F7D043EA0603704794EA0C0F0CEA1355B6
:1007980018BF95EA0C0F0CD050EA410618BF52EA70
:1007A8004306D1D181EA030101F000414FF0000076
:1007B80070BD50EA410606BF1046194652EA430684
:1007C80019D094EA0C0F02D150EA013613D195EAF8
:1007D8000C0F05D152EA03361CBF104619460AD140
:1007E80081EA030101F0004141F0FE4141F470014A
:1007F8004FF0000070BD41F0FE4141F4780170BD3A
:1008080070B54FF0FF0C4CF4E06C1CEA11541DBF9E
:100818001CEA135594EA0C0F95EA0C0F00F0A7F8A0
:10082800A4EB050481EA030E52EA03354FEA0131CD
:1008380000F088804FEA03334FF0805545EA1313E0
:1008480043EA12634FEA022245EA111545EA1065A8
:100858004FEA00260EF000419D4208BF964244F13F
:10086800FD0404F5407402D25B084FEA3202B61A5E
:1008780065EB03055B084FEA32024FF480104FF432
:10088800002CB6EB020E75EB030E22BFB61A7546A6
:1008980040EA0C005B084FEA3202B6EB020E75EB39
:1008A800030E22BFB61A754640EA5C005B084FEAA1
:1008B8003202B6EB020E75EB030E22BFB61A75466E
:1008C80040EA9C005B084FEA3202B6EB020E75EB79
:1008D800030E22BFB61A754640EADC0055EA060E3A
:1008E80018D04FEA051545EA16754FEA06164FEA7D
:1008F800C30343EA52734FEAC2025FEA1C1CC0D129
:1009080011F4801F0BD141EA00014FF000004FF0B5
:10091800004CB6E711F4801F04BF01430020B4F176
:10092800FD0C88BFBCF5E06F3FF6AFAEB5EB030C2E
:1009380004BFB6EB020C5FEA500C50F1000041EB2B
:10094800045170BD0EF0004E4EEA113114EB5C04F8
:10095800C2BFD4EB0C0541EA045170BD41F48011CB
:100968004FF0000E013C90E645EA060E8DE60CEAD3
:10097800135594EA0C0F08BF95EA0C0F3FF43BAFF0
:1009880094EA0C0F0AD150EA01347FF434AF95EAA7
:100998000C0F7FF425AF104619462CE795EA0C0F8B
:1009A80006D152EA03353FF4FDAE1046194622E758
:1009B80050EA410618BF52EA43067FF4C5AE50EA32
:1009C80041047FF40DAF52EA43057FF4EBAE12E722
:1009D8004FF0FF3C06E000BF4FF0010C02E000BF03
:1009E8004FF0010C4DF804CD4FEA410C7FEA6C5CE6
:1009F8004FEA430C18BF7FEA6C5C1BD001B050EA89
:100A0800410C0CBF52EA430C91EA030F02BF90EA73
:100A1800020F0020704710F1000F91EA030F58BF32
:100A2800994208BF90422CBFD8176FEAE37040F094
:100A3800010070474FEA410C7FEA6C5C02D150EA32
:100A4800013C07D14FEA430C7FEA6C5CD6D152EAED
:100A5800033CD3D05DF8040B704700BF84461046B2
:100A680062468C461946634600E000BF01B5FFF7B1
:100A7800B7FF002848BF10F1000F01BD4DF808ED81
:100A8800FFF7F4FF0CBF012000205DF808FB00BF52
:100A98004DF808EDFFF7EAFF34BF012000205DF8AC
:100AA80008FB00BF4DF808EDFFF7E0FF94BF0120F9
:100AB80000205DF808FB00BF4DF808EDFFF7CEFFFA
:100AC80094BF012000205DF808FB00BF4DF808ED39
:100AD800FFF7C4FF34BF012000205DF808FB00BF0A
:100AE8004FEA4102B2F1E04324BFB3F5001CDCF148
:100AF800FE5C0DD901F0004C4FEAC0024CEA507080
:100B0800B2F1004F40EB830008BF20F001007047AE
:100B180011F0804F21D113F13872BCBF01F00040B1
:100B2800704741F480114FEA5252C2F11802C2F1E3
:100B3800200C10FA0CF320FA02F018BF40F0010064
:100B48004FEAC1234FEAD32303FA0CFC40EA0C0016
:100B580023FA02F34FEA4303CCE77FEA625307D153
:100B680050EA01331EBF4FF0FE4040F4400070478A
:100B780001F0004040F0FE4040F40000704700BF24
:100B880080F0004002E000BF81F0004142001FBF3A
:100B98005FEA410392EA030F7FEA226C7FEA236C43
:100BA8006AD04FEA1262D2EB1363C1BFD218414038
:100BB80048404140B8BF5B42192B88BF704710F0CE
:100BC800004F40F4000020F07F4018BF404211F071
:100BD800004F41F4000121F07F4118BF494292EAD9
:100BE800030F3FD0A2F1010241FA03FC10EB0C0005
:100BF800C3F1200301FA03F100F0004302D5494292
:100C080060EB4000B0F5000F13D3B0F1807F06D33E
:100C180040084FEA310102F10102FE2A51D2B1F136
:100C2800004F40EBC25008BF20F0010040EA03002B
:100C38007047490040EB000010F4000FA2F10102D8
:100C4800EDD1B0FA80FCACF1080CB2EB0C0200FA62
:100C58000CF0AABF00EBC25052421843BCBFD040B0
:100C68001843704792F0000F81F4000106BF80F42A
:100C780000000132013BB5E74FEA41037FEA226CED
:100C880018BF7FEA236C21D092EA030F04D092F0B8
:100C9800000F08BF0846704790EA010F1CBF0020EC
:100CA800704712F07F4F04D1400028BF40F0004049
:100CB800704712F100723CBF00F50000704700F069
:100CC800004343F0FE4040F4000070477FEA226290
:100CD80016BF08467FEA23630146420206BF5FEA61
:100CE800412390EA010F40F4800070474FF0000361
:100CF80004E000BF10F0004348BF40425FEA000C28
:100D080008BF704743F0964301464FF000001CE0CF
:100D180050EA010208BF70474FF000030AE000BF25
:100D280050EA010208BF704711F0004302D5404263
:100D380061EB41015FEA010C02BF844601460020D5
:100D480043F0B64308BFA3F18053A3F50003BCFAF0
:100D58008CF2083AA3EBC25310DB01FA02FC63449D
:100D680000FA02FCC2F12002BCF1004F20FA02F2A4
:100D780043EB020008BF20F00100704702F1200297
:100D880001FA02FCC2F1200250EA4C0021FA02F2F8
:100D980043EB020008BF20EADC7070474FF0FF0CFD
:100DA8001CEAD0521EBF1CEAD15392EA0C0F93EAF8
:100DB8000C0F6FD01A4480EA010C400218BF5FEA9A
:100DC80041211ED04FF0006343EA501043EA51110D
:100DD800A0FB01310CF00040B1F5000F3EBF490007
:100DE80041EAD3715B0040EA010062F17F02FD2A0B
:100DF8001DD8B3F1004F40EBC25008BF20F00100EE
:100E0800704790F0000F0CF0004C08BF49024CEA04
:100E1800502040EA51207F3AC2BFD2F1FF0340EA96
:100E2800C250704740F400004FF00003013A5DDC07
:100E380012F1190FDCBF00F000407047C2F1000248
:100E4800410021FA02F1C2F1200200FA02FC5FEA35
:100E5800310040F1000053EA4C0308BF20EADC707F
:100E6800704792F0000F00F0004C02BF400010F4F1
:100E7800000F013AF9D040EA0C0093F0000F01F09E
:100E8800004C02BF490011F4000F013BF9D041EAC0
:100E98000C018FE70CEAD15392EA0C0F18BF93EAC2
:100EA8000C0F0AD030F0004C18BF31F0004CD8D1EC
:100EB80080EA010000F00040704790F0000F17BF73
:100EC80090F0004F084691F0000F91F0004F14D0B9
:100ED80092EA0C0F01D142020FD193EA0C0F03D111
:100EE8004B0218BF084608D180EA010000F0004014
:100EF80040F0FE4040F40000704740F0FE4040F4EF
:100F0800400070474FF0FF0C1CEAD0521EBF1CEA8D
:100F1800D15392EA0C0F93EA0C0F69D0A2EB0302AB
:100F280080EA010C49024FEA402037D04FF0805345
:100F380043EA111143EA10130CF000408B4238BF0A
:100F48005B0042F17D024FF4000C8B4224BF5B1A18
:100F580040EA0C00B3EB510F24BFA3EB510340EA66
:100F68005C00B3EB910F24BFA3EB910340EA9C0014
:100F7800B3EBD10F24BFA3EBD10340EADC001B0184
:100F880018BF5FEA1C1CE0D1FD2A3FF650AF8B4228
:100F980040EBC25008BF20F0010070470CF0004C35
:100FA8004CEA50207F32C2BFD2F1FF0340EAC25060
:100FB800704740F400004FF00003013A37E792F021
:100FC800000F00F0004C02BF400010F4000F013A7F
:100FD800F9D040EA0C0093F0000F01F0004C02BF7A
:100FE800490011F4000F013BF9D041EA0C0195E7E3
:100FF8000CEAD15392EA0C0F08D142027FF47DAF7C
:1010080093EA0C0F7FF470AF084676E793EA0C0F6B
:1010180004D14B023FF44CAF08466EE730F0004C69
:1010280018BF31F0004CCAD130F000427FF45CAFF9
:1010380031F000437FF43CAF5FE700BF4FF0FF3C67
:1010480006E000BF4FF0010C02E000BF4FF0010CBA
:101058004DF804CD4FEA40024FEA41037FEA226C83
:1010680018BF7FEA236C11D001B052EA530C18BFA5
:1010780090EA010F58BFB2EB030088BFC81738BF0A
:101088006FEAE17018BF40F0010070477FEA226CF8
:1010980002D15FEA402C05D17FEA236CE4D15FEAF4
:1010A800412CE1D05DF8040B704700BF8446084628
:1010B8006146FFE70FB5FFF7C9FF002848BF10F1E9
:1010C800000F0FBD4DF808EDFFF7F4FF0CBF01202E
:1010D80000205DF808FB00BF4DF808EDFFF7EAFFB8
:1010E80034BF012000205DF808FB00BF4DF808ED73
:1010F800FFF7E0FF94BF012000205DF808FB00BF68
:101108004DF808EDFFF7D2FF94BF012000205DF8ED
:1011180008FB00BF4DF808EDFFF7C8FF34BF0120FA
:1011280000205DF808FB00BF4FEA40024FEA410388
:101138007FEA226C02D15FEA402C08D17FEA236C57
:1011480002D15FEA412C02D14FF0000070474FF006
:10115800010070474FEA4002B2F1FE4F0FD34FF043
:101168009E03B3EB12620DD94FEA002343F000430C
:1011780010F0004F23FA02F018BF404270474FF0BA
:101188000000704712F1610F01D1420205D110F041
:10119800004008BF6FF0004070474FF000007047F4
:1011A800F8B50022002307460E46FFF771FC28B960
:1011B80038463146BDE8F84000F00AB8384606F12E
:1011C800004100F005F8404261EB4101F8BD00BF65
:1011D800D0B500220E4B06460F46FFF7E7F900F0A0
:1011E8001BF80446FFF76CF900220A4BFFF7DEF9FB
:1011F80002460B4630463946FFF724F800F00CF853
:101208002346002242EA000210461946D0BD00BF1C
:101218000000F03D0000F0414A0011D212F5001222
:1012280011D20DD56FF47873B3EB62520ED44FEA36
:10123800C12343F0004343EA505323FA02F07047B6
:101248004FF00000704750EA013002D14FF0FF30F4
:1012580070474FF000007047844641EA000313F0DE
:10126800030349D1403A23D30B6803604B684360BA
:101278008B688360CB68C3600B6903614B6943610A
:101288008B698361CB69C3610B6A03624B6A4362F2
:101298008B6A8362CB6AC3620B6B03634B6B4363DA
:1012A8008B6B8363CB6BC36340304031403ADBD2F6
:1012B80030320BD30B6803604B6843608B688360E4
:1012C800CB68C36010301031103AF3D20C3205D31A
:1012D80051F8043B40F8043B043AF9D2043208D0F0
:1012E800D2071CBF11F8013B00F8013B01D30B8862
:1012F80003806046704700BF082A13D38B07B1D01C
:1013080010F00303AED0C3F10403D21ADB071CBFED
:1013180011F8013B00F8013BA4D331F8023B20F857
:10132800023B9FE7043AD9D3013A11F8013B00F890
:10133800013BF9D20B7803704B7843708B7883703C
:101348006046704770B50F4E0F4D761BB61018BF2C
:10135800002405D0013455F8043B9847A642F9D13A
:101368000A4E0B4D04F080FD761BB61018BF002402
:1013780006D0013455F8043B9847A642F9D170BD10
:1013880070BD00BF885E0008885E0008905E000897
:10139800885E000870B4840746D0541E002A41D0E5
:1013A800CDB2034602E0621EE4B3144603F8015BC3
:1013B8009A07F8D1032C2ED9CDB245EA05250F2C72
:1013C80045EA054519D9264603F11002103E0F2EAD
:1013D80042F8105C42F80C5C42F8085C42F8045C85
:1013E80002F11002F2D8A4F1100222F00F0204F068
:1013F8000F041032032C13440DD91E462246043A1A
:10140800032A46F8045BFAD8221F22F003020432AA
:10141800134404F003042CB1C9B21C4403F8011BA3
:10142800A342FBD170BC704714460346C2E700BF15
:10143800024B13B1024800F005B8704700000000E5
:1014480059140008002301461A46184600F014B83B
:1014580038B5074D074C2C1BA41005D0013C55F896
:10146800043D9847002CF9D1BDE8384004F002BD8E
:10147800945E0008905E00082DE9F047254C06466A
:1014880025688846D5F8484192469946C4B36068AD
:101498001F2817DC411C76B104EB8003C3F888A031
:1014A800D4F88851012282401543022EC4F888518D
:1014B800C3F808911ED0831C6160002044F8238083
:1014C800BDE8F087144B03B34FF4C870AFF3008046
:1014D8000446D0B1D5F84831002784E8880038465A
:1014E800C5F848410121C4F88871C4F88C71002EF0
:1014F800E1D0D1E7D4F88C311A43C4F88C21DAE76B
:1015080005F5A674C5F84841C1E74FF0FF30BDE8BE
:10151800F08700BF885D000800000000034A938838
:1015280003F020039BB2002BF9D07047002800403D
:10153800074A93889BB21288104206D0184010F0D0
:10154800FF0F14BF0120002070470020704700BF24
:1015580000280040034A93889BB223EA0000908049
:10156800704700BF0028004070B582B005460023D0
:101578000193032000F0B8FCEB681A690192134C40
:10158800032607E0304600F0AFFCEB681A690192C9
:10159800013C18D0019A002AF4DA019A42F00102BB
:1015A8000192019A1A61E9680B690193074B03E0FC
:1015B8000A690192013B03D0019A12F0010FF7D199
:1015C800032000F091FC002002B070BD400D030024
:1015D80010B4C4786CB9033300EB8200D0F8D04063
:1015E8009B1006D0002251F8040B20600132934270
:1015F800F9D1002010BC704770B40332D0F8D06025
:10160800921009D00C460023356844F8045B013376
:101618009A42F9D101EB8201084670BC704700BFBD
:1016280070B40023C3700123837040238380012991
:101638000DD10123C37208230370042343704FF4B0
:10164800A073C380022303724FF0A0460CE051B987
:101658000023C3720C230370062343704FF4A06366
:10166800C380234E00E00026C66006F500630361D0
:10167800457895B106F5106300F1140100F15002A8
:1016880006EB451505F5106541F8043F03F50074B0
:1016980042F8044F2033AB42F6D106F5806343612C
:1016A80006F58863C0F8CC300178D1B106F5A0639F
:1016B80000F18C0206EB411404F5A06442F8043FE3
:1016C8002033A342FAD106F5805300F1CC0206EB91
:1016D800013101F5805142F8043F03F580539942E6
:1016E800F9D106F56066C0F80C61002070BC70473F
:1016F8000000044038B50446037A012B22D10025A6
:10170800C268936B6FF31043417A09B143F48013B5
:101718009363E268D3686FF386136FF396536FF39E
:1017280051436FF3D343D3602046FFF71DFFE3789F
:10173800012B25D1052363F3440545F02005E36813
:101748009D6012E0C268D36843F04003D360FFF79E
:101758000BFF637A002B0CBF4FF450234FF4E813B0
:10176800E2689363142000F0D1FBE378012B07D1E2
:10177800E3689D68052262F3440545F020059D60F5
:10178800002038BDC268936843F0010393600020CD
:10179800704700BFC268936823F00103936000207C
:1017A800704700BF00B583B000230193019B43F04D
:1017B80020030193019B61F38A130193C368019A83
:1017C8001A61C1680B690193084B03E00A69019229
:1017D800013B03D0019A12F0200FF7D1032000F04B
:1017E80083FB002003B05DF804FB00BF400D03003D
:1017F80000B583B000230193019B43F010030193CC
:10180800C368019A1A61C1680B690193084B03E028
:101818000A690192013B03D0019A12F0100FF7D127
:10182800032000F061FB002003B05DF804FB00BF5B
:10183800400D030008B5C268D3686FF35D736FF39A
:101848009E73012902D143F0005302E009B943F025
:101858008043D360322000F059FB002008BD00BF50
:10186800C3685B6913F0010F0CBF012000207047AB
:10187800C36858699B691840704700BF02691368BC
:1018880061F301031360704710B40023C2689361C9
:10189800C1686FF080424A61C1684FF0FF344C6004
:1018A800C1684A61C2680A499161C2789A4208BF10
:1018B800102343F0804343F4701343F4605343F020
:1018C8000C03C1688A6913438B61002010BC704700
:1018D8000008008070B504460025D0F80C311D6062
:1018E8000269136865F3CC231360C37A012B27D1EF
:1018F8002E460321FFF7C2FFE268802353622022AD
:1019080062F31F4563F30F05E1688D62A02161F35F
:101918000F0663F31F46E368C3F804614FF490733E
:1019280063F30F0662F31F46E368C3F808614FF4D8
:10193800A07363F30F066FF31F46E368C3F80C61E7
:1019480010212046FFF72EFF2046FFF751FF22699E
:10195800002313612269536122694FF0FF319161BD
:101968002269D3616378002B38D004F11402002176
:101978000E46FF2552F8043F1B68C3F3076323F0A4
:101988007F03DBB2002B0CBF00204FF090401368A0
:10199800186013681E6113689D60013163788B427B
:1019A800E8D8DBB104F1500200210E46FF2552F8B9
:1019B800043F1B68C3F3076323F07F03DBB2002BEC
:1019C8000CBF00204FF090401368186013681E6128
:1019D80013689D60013163788B42E8D822691369E6
:1019E80043F480731361E378012B09D10323402268
:1019F80062F38A0343F4803362F359432269136321
:101A08002046FFF741FF002070BD00BF03699B68B7
:101A1800C3F34103022B04D001D8012B03D10220C8
:101A28007047012070470320704700BF03699B6817
:101A380082691168C3F34103022B12BF6FF30A01D5
:101A4800032363F30A0111600269536843F4807346
:101A580053600020704700BF30B400244B78012B3E
:101A680008D10D7800EB85039A690123AB4063F335
:101A78000F0407E00D7800EB85035A6D0123AB4096
:101A880063F31F44136813F4004F0DD18D6865F399
:101A98000A03CD7865F39343C98861F3995343F0FA
:101AA800805343F4004313600269D3692343D3612D
:101AB800002030BC704700BF30B4002214464B7879
:101AC800012B08D1097800EB81039D6901238B4024
:101AD80063F30F0407E00B7800EB83014D6D0121E0
:101AE800994061F31F446FF3CF322A600269D369CA
:101AF80023EA0403D361002030BC704770B54B78EB
:101B0800012B52D10B7800EB83039B691A681C697F
:101B18004B692BB96FF31204012363F3DC440DE026
:101B280063F312048D682B44013BB3FBF5F363F3B5
:101B3800DC44CB78012B08BF63F35E740B7800EBB1
:101B480083039B691C61C378012B06D10B7800EBDA
:101B580083039B690C695C610BE0CB78012B0BD08C
:101B68004B6993B105696C6B0E780123B34023432D
:101B78006B63CB78012B08D103699B6813F4807FD2
:101B88000CBF42F0005242F0805242F004420B78FF
:101B980000EB83039B691A60CB78012B40D18B8AB9
:101BA8000A78C968FFF714FD3AE00B7800EB830365
:101BB8005B6D1A681C694B6933B98B6863F312044F
:101BC800012363F3DC440CE08D682B44013BB3FB39
:101BD800F5F3C3F3090363F3DC4405FB03F363F391
:101BE80012040B7800EB83035B6D1C61C378012B37
:101BF80005D10B7800EB83035B6D0C695C61CB78D6
:101C0800012B06D14B7913B142F0005201E042F0AA
:101C1800805242F004420B7800EB8300436D1A6057
:101C2800002070BD30B482B04B78012B47D1826957
:101C38001368146900944C696CB99DF800406FF3FF
:101C480006048DF800409DF80240012565F3C404A0
:101C58008DF8024017E08D68AC4207D94D619DF8B8
:101C6800004065F306048DF8004005E09DF800503B
:101C780064F306058DF800509DF80240012565F3D0
:101C8800C4048DF80240009C1461C478012C05D16D
:101C98000C7800EB8404A4690D69656143F0044382
:101CA8001360C378002B47D14B69002B44D00069DF
:101CB800426B097801238B40134343633CE00B7864
:101CC80000EB83035A6D1368126900924A6972B96E
:101CD8008C689DF8002064F306028DF800209DF8BA
:101CE8000220012464F3C4028DF802200EE08C68FF
:101CF8004C619DF8002064F306028DF800209DF8E1
:101D08000220012464F3C4028DF802200A7800EB53
:101D18008202526D009C1461C278012A05D10A78AA
:101D280000EB8202526D0C69546143F004430A7857
:101D380000EB8200426D1360002002B030BC704797
:101D48004B78012B0CD10B7800EB83008269136868
:101D5800002BB8BF43F0804343F40013136007E03F
:101D68000B7800EB8300426D136843F40013136093
:101D7800002070474B78012B0B7800EB83000CBFD9
:101D88008069406D02686FF35552CB78023BDBB235
:101D9800012B98BF42F0805202600020704700BFBC
:101DA80003699869DB691840000C704700EB8101F2
:101DB8004B6D9A68036958691040704703699869C0
:101DC800DB69184080B2704782B000230093C023BB
:101DD8008DF803304FF00003012262F3C4038DF83D
:101DE800023018238DF80030436D009A1A61C378C9
:101DF800012B08D1436D00F2CC525A61436D1A6829
:101E08004FF080221A6002B0704700BF837A6BB12E
:101E180003699B6813F0010F08D0D0F80C316FF3F9
:101E280041036FF30003D0F80C211360704700BF23
:101E3800704700BF704700BF704700BF704700BFC2
:101E4800704700BF704700BF704700BF30B583B010
:101E58004FF40073ADF8043004238DF807300325E0
:101E68008DF80650134C0DEB0301204600F064FE7C
:101E78004FF48063ADF8043048238DF807308DF8AF
:101E8800065001A9204600F057FE4FF4C053ADF8A4
:101E9800043010238DF807308DF8065001A920462C
:101EA80000F04AFE01214FF4805001F0ADFA03B072
:101EB80030BD00BF0008014000B583B04FF4A060FA
:101EC80002F0B4FC43238DF8043001238DF805306B
:101ED80003228DF806208DF8073001A802F0B0FC27
:101EE80003B05DF804FB00BFC0EB0010C200064B56
:101EF800A3FB0213D21A03EB520292080023013308
:101F08009A42FCD2704700BF2549922408B54FF485
:101F18007A7303FB00F0FFF7E7FF08BD82B0484B78
:101F28001A6842F001021A605968464A0A405A6023
:101F38001A6822F0847222F480321A601A6822F435
:101F480080221A605A6822F4FE025A601A6822F047
:101F5800A0521A604FF47F029A600022DA6200925F
:101F680001921A6842F480321A601A46136803F420
:101F780000330193009B01330093019B1BB9009B25
:101F8800B3F5A06FF2D12E4B1B6813F4003F14BFBA
:101F9800012300230193019B012B4AD12A4B1A6884
:101FA80042F010021A601A6822F003021A601A68D6
:101FB80042F002021A60A3F580535A685A605A68C0
:101FC8005A605A6842F480625A60D96A1F4A0A40C5
:101FD800DA62DA6A42F4833242F04402DA621A6858
:101FE80042F080621A601A46136813F0006FFBD043
:101FF800134B5A6822F47C125A605A6842F4E81269
:102008005A601A6842F080721A601A46136813F010
:10201800007FFBD00A4B5A6822F003025A605A68C4
:1020280042F002025A601A46536803F00C03082B68
:10203800FAD14FF00062064B9A6002B0704700BFB9
:10204800001002400000FFF00020024000F0FEFFF8
:1020580000ED00E010B582B029B960F07F008DF87E
:102068000400012012E00C4660F03F008DF80400E7
:102078007F2903D88DF80510022007E061F07F0161
:102088008DF80510E4098DF80640032001A900F039
:10209800E1FC02B010BD00BF10B582B019B98DF8CF
:1020A8000400012012E00C4640F040008DF80400C6
:1020B8007F2903D88DF80510022007E061F07F0121
:1020C8008DF80510E4098DF80640032001A900F0F9
:1020D800F9FC02B010BD00BF10B5144603460A460D
:1020E80021461120FFF7D8FF10BD00BF08B50346F1
:1020F800052200211520FFF7CFFF08BD10B582B0DB
:1021080001AC2346042289B280B2FFF7C5FF02AAB8
:102118002346002012F8011D01EB00209A42F9D154
:1021280002B010BD08B500210846FFF7E7FF08BD5B
:1021380000B583B001AB022289B280B2FFF7ACFFD1
:102148009DF805009DF8043003EB002080B203B031
:102158005DF804FB00B583B00DF10703012289B2D5
:1021680080B2FFF799FF9DF8070003B05DF804FB04
:1021780000B583B002AB03F8012D012289B280B209
:10218800FFF768FF03B05DF804FB00BF00B583B03C
:102198008DF80420120A8DF8052001AB022289B2BD
:1021A80080B2FFF757FF03B05DF804FB08B502469D
:1021B80041F604012E20FFF7E9FF08BD08B50246E5
:1021C80000211820FFF7E2FF08BD00BF00B583B06B
:1021D8008DF80420130A8DF80530130C8DF806309D
:1021E800120E8DF8072001AB042289B280B2FFF7E6
:1021F80031FF03B05DF804FB08B582B204212D203D
:10220800FFF7C4FF032206212D20FFF7B1FF0022AC
:1022180006212D20FFF7ACFF0A212D20FFF76EFFC6
:1022280008BD00BF08B5002202212C20FFF7A0FF3F
:10223800022211462C20FFF79BFF08BD10B504466B
:102248006D2240F606012E20FFF792FF3CB140F2C6
:10225800076241F606012E20FFF798FF10BD41F2F4
:10226800076241F606012E20FFF790FF10BD00BF60
:102278002DE9F041044605784279724B33F8128013
:102288004678013EF6B2042D04D0072D14BF00276E
:10229800012700E00127E3793BB96B4A536943F40E
:1022A800800353614FEAD80804E0674A536923F46E
:1022B80080035361237A64490B724A6922F44033DC
:1022C8004B61227A120402F440321A434A61002117
:1022D8000420FFF77BFF424642F604012E20FFF759
:1022E80055FF3046FFF7AAFF584B13F80580584BA7
:1022F80053F8282007212B20FFF768FF554B13F8C8
:1023080008200B212B20FFF733FFFFB2524BDA5D79
:102318000B212820FFF72CFF504B53F828200C21C5
:102328002820FFF753FFE279A37903EB42034C4AD5
:1023380032F8132002212720FFF728FF494B33F8F2
:10234800162004212720FFF721FFE3792BB9642207
:1023580006212720FFF71AFF17E0A378042B0AD1DC
:10236800102206212720FFF711FF102226212720FF
:10237800FFF7FEFE09E0202206212720FFF706FFCF
:10238800282226212720FFF7F3FEE37803EB8603B4
:10239800354A52F8232008212720FFF717FF6389C1
:1023A80013B941F241036381628920212720FFF795
:1023B800EDFE2E4F3A680C212320FFF707FF07EBAD
:1023C8004606B28804212320FFF7E0FEA3794BB12B
:1023D800E379274AD25C00212120FFF7C9FE0122B8
:1023E800032101E000221146607905F00F0343EA5A
:1023F800C0632D01EDB21D4363789B0403F44023B1
:102408001D4323799B0503F0F8631D4345EA0155F5
:1024180045EA424200211F20FFF7D8FEA2786378E0
:102428001A43E3795B0343EA0242074BDA6000216F
:102438000820FFF7CBFE422200210D20FFF798FE6F
:10244800BDE8F081785C0008BC050020245D000828
:10245800F45C0008EC5C0008E85C00080C5D00080F
:10246800D05C0008CC5C0008AC5C0008E05C0008AC
:10247800DC5C000810B5044600210420FFF73EFE8E
:1024880024B120F48020074B586103E040F48020F9
:10249800044B5861034B5A6900210420FFF796FE4C
:1024A80010BD00BFBC05002010B4034CA062E1625F
:1024B8002263636310BC7047BC05002010B510F0A0
:1024C800010F1AD0044600212620FFF717FE20F43A
:1024D800705242F4A05200212620FFF777FE002117
:1024E8003620FFF70BFE40F4040200213620FFF7E8
:1024F8006DFE14F0020F12D10AE000212620FFF72A
:10250800FDFD20F4705200212620FFF75FFE10BD6C
:102518004FF4887228213620FFF758FE10BD064A6E
:1025280028213620FFF752FE4FF4887228213620E2
:10253800FFF74CFE10BD00BF10010F0010B582B0B0
:10254800044601AB022200213620FFF7A5FD0E2C20
:102558005ED8DFE804F012081B5D5D5D5D24335D25
:102568005D40474E570000238DF804309DF8053034
:1025780023F001038DF805304AE09DF8043023F07C
:10258800030343F001038DF8043041E09DF8043063
:1025980023F0030343F002038DF8043038E09DF87C
:1025A800043023F04C0343F048038DF804309DF8C1
:1025B800053063F07F038DF8053029E09DF804307D
:1025C80023F04C038DF804309DF8053003F07F03A9
:1025D8008DF805301CE09DF8053043F002038DF8B6
:1025E800053015E09DF8053023F002038DF805301D
:1025F8000EE09DF8043023F0300343F020038DF8FB
:10260800043005E001238DF8043003238DF80530EC
:1026180001AB012200213620FFF71CFD0DF1050357
:10262800012211463620FFF715FD02B010BD00BF8C
:1026380008B50E20FFF782FF4FF4004206212D2037
:10264800FFF7A4FD012001F057F90120FFF776FFFD
:1026580008BD00BF08B50020FFF770FF0022042165
:102668003620FFF793FD08BD08B503210F20FFF7BB
:1026780071FD80EA400010F0800F04D00122032190
:102688000D20FFF775FD08BD38B500210E20FFF7B6
:1026980035FD054600F0FAFF0446002211460E20DB
:1026A800FFF794FD402200210D20FFF761FD094A44
:1026B80000210F20FFF78AFDFFF7D6FF2A460021E9
:1026C8000E20FFF783FD204600F0F0FF0022024BAA
:1026D8009A7638BDF8FF2724BC05002038B5044693
:1026E80010F0040F01D1FFF7BFFF14F0010511D15D
:1026F8001FE0FFF7C9FF14F0020F08D14FF48072F2
:1027080000210D20FFF742FD4FF0FF3517E04FF095
:10271800FF3514E04FF4407200210D20FFF736FD1D
:1027280003210F20FFF716FD10F0080FE1D1002557
:1027380005E04FF4807200210D20FFF727FD2846A1
:1027480038BD00BF38B5054603210420FFF702FD58
:1027580004468DB12A4600210C20FFF717FD0C4ACC
:10276800536943F08053536144F01002D2B20321FD
:102778000420FFF7FDFC38BD054A536923F0805358
:10278800536100F0EF0203210420FFF7F1FC38BD8C
:10279800BC05002070B505460E4600F077FF0446DC
:1027A80000210E20FFF7AAFC16B140EA050201E05D
:1027B80020EA050200210E20FFF708FD204600F060
:1027C80075FF70BD08B5E02203213620FFF7D0FC65
:1027D800F02203213620FFF7CBFC08BD38B50021D5
:1027E8000F20FFF78BFC0446464BD86110F4804F4E
:1027F80047D04FF4DE4200210F20FFF7E7FC414DA0
:10280800002185F824101020FFF792FC2B7A13B1D1
:10281800C0F3090201E000F07F023A4B1A8410F479
:10282800004F06D01A4693F8243043F0010382F88B
:102838002430354B022200211120FFF72DFC14F023
:10284800080F11D02F4B93F8223013F0200F0BD123
:10285800082200210F20FFF7B9FC2A4BDA6922F081
:102868000802DA6100229A76264BDB6A0BB1274808
:102878009847244B5B7C23B1012203210D20FFF7ED
:1028880077FC14F0800F13D0F82200210F20FFF7F7
:102898009DFC14F0080F06D01A4B9B7E1BB1FFF766
:1028A800F3FEFFF78FFF174B9B6A0BB1174898474A
:1028B80014F4081F11D04FF4003200210F20FFF745
:1028C80085FC104D0023AB76FFF7DEFEFFF77AFF9D
:1028D8002B6B13B105F11C0098470D4B1C4210D00F
:1028E8001A4600210F20FFF771FC064C0023A3763F
:1028F800FFF7CAFEFFF766FF636B13B104F11C0014
:10290800984738BDBC050020DE050020D80500200A
:102918000090052408B5FFF79DFE002211462C20E3
:10292800FFF734FC002206212C20FFF721FCFFF7DB
:1029380079FC002203213620FFF71AFC012000F061
:10294800DBFFF02203213620FFF712FC0022014BA7
:102958009A7608BDBC05002008B500F01F0242F0B9
:1029680060020E212B20FFF703FC08BD70B5064658
:10297800364B00225A749A761A839A62DA621A637C
:102988005A63FFF7CFFB324B98425BD1FFF7C2FF88
:102998000020FFF7D3FD042200212420FFF7E8FBE5
:1029A8001E20FFF729FC0446C0F30722274B5A7262
:1029B8000420FFF721FCC0B248B1022212212D20C9
:1029C800FFF7D6FB214A138B43F480531383062069
:1029D800FFF712FC1D4D28600720FFF70DFC68600B
:1029E80014F01F0401D02C7402E01022174B1A7443
:1029F800164B187CFFF7B0FF16F0010F07D0FFF752
:102A080017FE124A138B43F4006313830AE005216F
:102A18003620FFF78DFB4FF6FF5202400521362086
:102A2800FFF7B4FB0120FFF789FD00220A212C20C3
:102A3800FFF79EFB00210420FFF760FB034B586162
:102A4800002070BD4FF0FF3070BD00BFBC050020F6
:102A58003001CADE2DE9F041804617461E460C4675
:102A680000F014FE154B10225A61B8F1000F0ED079
:102A7800134D2146AE4604EB080211F8013BAB8129
:102A88002C89E407FCD58A42BEF80C30F5D167B131
:102A98000B4933460D46F41913F8012B8A810A892C
:102AA800D207FCD5A342AA89F6D1044B10221A6199
:102AB80000F0FCFD0020BDE8F08100BF00080140E7
:102AC800003001402DE9F041804617461E460C466D
:102AD80000F0DCFD164B10225A61B8F1000F0FD040
:102AE800144D2146AE4604EB080211F8013BAB81B8
:102AF8002C89E407FCD5BEF80C3091423370F4D130
:102B080077B10C4933464FF000050E46DC198D812C
:102B18000A89D207FCD5B28903F8012B9C42F6D169
:102B2800034B10221A6100F0C1FD0020BDE8F081BE
:102B38000008014000300140F0B5CB7803F00F06E3
:102B480013F0100F1CBF8B781E430B78F3B1056888
:102B5800002301274FF00F0C07FA03F20C8832EA22
:102B680004040FD19C000CFA04FE25EA0E0506FAAF
:102B780004F42543CC78282C01D1426102E0482C8A
:102B880008BF02610133082BE6D105600B88FF2BD3
:102B980020D94568002301274FF00F0E03F10802E2
:102BA80007FA02F20C8832EA04040FD19C000EFAEC
:102BB80004FC25EA0C0506FA04F42543CC78282CF5
:102BC80008BF4261CC78482C08BF02610133082B4A
:102BD800E4D14560F0BD00BF8368194214BF0120ED
:102BE80000207047016170474161704730B4002888
:102BF800184BB4BFDB695B6882B200F44014B4F5CB
:102C0800401F07D123F07063124D6C6824F0706484
:102C18006C6013E010F4801F08D0C0F30345032450
:102C2800AC4023EA040343F0706307E0440D240139
:102C380002FA04F423EA040343F0706319B1410D66
:102C480009018A4013430028024AB4BFD361536084
:102C580030BC70470000014010B401F003039B0032
:102C680001F0FC0101F1804101F580318C680F22EF
:102C78009A4024EA02028A608A6898401043886071
:102C880010BC704710B50446D0F8E8351B69984762
:102C9800032384F81231002010BD00BF08B590F856
:102CA800123180F81331042380F81231D0F8E83556
:102CB800DB689847002008BD08B5D0F8E435DB6923
:102CC80003B19847002008BD08B5D0F8E4351B6A61
:102CD8009847002008BD00BF08B5D0F8E4355B6A06
:102CE8009847002008BD00BF10B50446D0F8E83565
:102CF8005B699847012384F81531002010BD00BF97
:102D080010B50446D0F8E8359B699847D4F8E435FF
:102D18005B68002120469847002084F8150110BD03
:102D280010B5044600234022194601F005FE002391
:102D380040228021204601F0FFFD012384F8123152
:102D4800D4F8E8355B68A0789847002010BD00BF2C
:102D580010B582B00446694600F04EFE9DF800109A
:102D680001F01F03012B08D013B1022B0AD00EE08B
:102D78006946204600F070FE0EE06946204600F0E5
:102D8800F7FF09E06946204601F00EF804E001F07B
:102D98008001204601F070FE002002B010BD00BF87
:102DA80010B50446002948D190F81131022B38D1CA
:102DB800D0F83821D0F824319A4211D9D21AC0F863
:102DC8003821C178012904D1D0F828110B44C0F862
:102DD800283192B2D4F82811204601F021FF20E0D2
:102DE800D0F83C11B1FBF3F203FB121262B98B422B
:102DF8000AD8D0F84031994206D2114601F010FFA6
:102E08000023C4F840310CE0D4F8E435DB682BB17A
:102E180094F81221032A01D120469847204601F050
:102E28002FFF94F81631012B12D12369094A126831
:102E38005A60002384F816310AE00A46D0F8E435CF
:102E48005B692BB190F81211032901D111469847FB
:102E5800002010BD4806002010B5044659BB90F864
:102E68001131032B32D1D0F89033D0F87C23934220
:102E780014D99B1AC0F89033C178012904D1D0F82D
:102E880080131144C0F880139A4228BF1A4692B2A0
:102E9800D4F88013204601F0DBFE17E0D0F8E435C3
:102EA8001B6923B190F81221032A00D198472046C4
:102EB80001F0D6FE0AE00A46D0F8E4359B692BB14A
:102EC80090F81211032901D111469847002010BD2E
:102ED800F8B504460D4616461F46FEF7B7FFC4F878
:102EE800E475069BC4F8E835C4F8EC652946204625
:102EF80001F0D8FCD4F8E8351B6898472046FEF75F
:102F0800DBFFF8BD10B50446D0F8E4351B689847D8
:102F1800D4F8E8359B689847002010BD08B5D0F86C
:102F2800E4355B689847002008BD00BF08B5114824
:102F380001F018FF02F0DCF801F096FF0120FFF71E
:102F480015FDB0F1FF3F03D10B4801F051FCFEE73E
:102F580001F090FFFFF7E6F8084B984207D10848C0
:102F6800FFF786F90120FFF7A9FA044808BD4FF0DA
:102F7800FF3008BDE52700088C5D00083001CADE77
:102F88006C00002030B4D1B10D46FF2213462C4608
:102F9800152DA8BF15242D1B044410F8011B0B4444
:102FA8009BB21A4492B2A042F7D1D9B201EB1323D3
:102FB800D1B201EB12222046002DE8D101E0FF2218
:102FC8001346D9B2C3F30F23D0B2C2F30F2202447F
:102FD8000B4443EA022080B230BC704770B588B019
:102FE800042002F0C3F802F00DF9684C50220021C9
:102FF8002046FEF7CFF9664D0FCD20606160A260D4
:10300800E36022460121282001F06EFB614D0FCDBF
:1030180020606160A260E36022460121102001F077
:1030280063FB4FF47A7000F05BFC00F003FC4FF494
:103038007A7000F055FC002002F080F80446012068
:1030480002F088F8800040EA440464B2022002F0EA
:1030580081F844EAC00044B2042002F07BF844EA54
:10306800001044B2082002F075F844EA401044B257
:10307800102002F06FF844EA801044B2202002F0D9
:1030880069F8454D44EAC01028704FF40002434BDC
:10309800C3F88020042002F069F82878FFF746FF7B
:1030A800B0F1FF3F69D004AC3D4B0FCB84E80F0073
:1030B8002B789A0002F0400203F020010A449B108A
:1030C80003F0100313441B1130338DF81F302046D2
:1030D80001F08EFB4FF47A7000F002FC3149287839
:1030E80002F0A0F91D240425C82614F0010F03D00E
:1030F800284602F03BF802E0284602F05DF8304628
:1031080000F0EEFB013CB4F1FF3FEED1042002F0E9
:103118002DF84FF40002214B1A600020FFF7DEFA69
:10312800214C224D2378DBB2012BFBD1AA238DF849
:1031380004302B788DF805306B788DF806306B6885
:103148001A0E8DF807201A0C8DF808201A0A8DF827
:1031580009208DF80A30072101A8FFF713FF030A99
:103168008DF80B308DF80C00092101A800F050FBF8
:1031780000F082FB00232370D4E7042002F01CF83F
:103188000B4801F035FB002008B070BD5006002048
:10319800985D0008AC5D0008F405002000E100E03F
:1031A800645C00086C000020A8060020A00600202F
:1031B800C05D0008104B1A6842F001021A60596895
:1031C8000E4A0A405A601A6822F0847222F4803249
:1031D8001A601A6822F480221A605A6822F4FE02E1
:1031E8005A601A6822F0A0521A604FF47F029A605F
:1031F8000022DA62704700BF001002400000FFF0B2
:103208000D4B1A6822F480321A601A6822F4802260
:103218001A60B0F5803F03D0B0F5802F06D0704714
:10322800054A136843F4803313607047024A1368F1
:1032380043F4A0231360704700100240034A536808
:1032480023F4741319430843506070470010024078
:10325800014B1860704700BF60004242044AD36ABD
:1032680023F4803323F00F0319430843D0627047D7
:1032780000100240034AD36A23F0F0031843D062D7
:10328800704700BF00100240034AD36A23F47063FA
:103298001843D062704700BF00100240014B18600D
:1032A800704700BF68004242034A536823F0030393
:1032B80018435060704700BF00100240024B586826
:1032C80000F00C00704700BF00100240034A53682A
:1032D80023F0F00318435060704700BF001002400D
:1032E800034A536823F4E06318435060704700BFF3
:1032F80000100240034A536823F4605343EAC000B5
:103308005060704700100240034A536823F440435A
:1033180018435060704700BF0010024030B4354B6E
:103328005B6803F00C03042B06D0082B07D0002B96
:103338003AD1314B036039E0304B036036E02D4A17
:103348005368526802F48032C3F383430D2B14BFD1
:103358000233062322B92A4A02FB03F3036025E05D
:10336800244AD16AD26A02F00F02013211F4803F76
:1033780006D12249B1FBF2F203FB02F3036015E028
:103388001C49CC6AC96AC4F3031401341B4DB5FB4C
:10339800F4F4C1F30321023101FB04F1B1FBF2F2B1
:1033A80003FB02F3036001E0134B0360114A536807
:1033B800C3F30313134CE35CD9B20368CB404360F7
:1033C8005168C1F30221615CC9B223FA01F181603D
:1033D8005168C1F3C221615CC9B2CB40C360526875
:1033E800C2F381322244127CD2B2B3FBF2F30361FE
:1033F80030BC70470010024000127A0040787D010E
:1034080000093D009000002021B1054B5A69104386
:1034180058617047024A536923EA000050617047B7
:103428000010024021B1054B9A691043986170471A
:10343800024A936923EA0000906170470010024035
:1034480021B1054BDA691043D8617047024AD36944
:1034580023EA0000D06170470010024021B1054BFB
:10346800DA681043D8607047024AD36823EA00003C
:10347800D06070470010024021B1054B1A69104313
:1034880018617047024A136923EA00001061704707
:10349800001002404309012B02D1074B1B6804E0CE
:1034A800022B054B0CBF1B6A5B6A00F01F0023FA56
:1034B80000F000F0010070470010024010B582B023
:1034C8000023019331242046FFF7E4FF019B0133D9
:1034D8000193019BB3F5A06F01D00028F3D03120F0
:1034E800FFF7D8FF003018BF012002B010BD00BFA1
:1034F800002103E00B4B5B58435004310A480B4B47
:1035080042189A42F6D30A4A02E0002342F8043BE2
:10351800084B9A42F9D3FEF701FDFDF713FFFFF7B9
:103528005DFD7047945E000800000020A0050020A3
:10353800A0050020A0220020FEE700008379002BD0
:1035480034D010B4204B1A68016822EA01021A60CC
:103558005A68016822EA01025A60027902F180423F
:1035680002F5823214680168214311609A68016883
:1035780022EA01029A60DA68016822EA0102DA6046
:103588004379102B09D1104B996802680A439A6055
:10359800D96802680A43DA6013E003F1804303F54F
:1035A8008233196802680A431A600AE0037903F152
:1035B800804303F582331A68016822EA01021A601F
:1035C800704710BC704700BF00040140014B5861B0
:1035D800704700BF0004014012230B800048704769
:1035E800A400002004230B8000487047B800002086
:1035F80008B50A4620B90549054800F065FC03E00E
:103608000249044800F060FC004808BDFC0E002098
:10361800D05D0008F45D000810B5044C0A46214648
:10362800034800F051FC204610BD00BFFC0E0020EE
:10363800185E000808B50A4620B90549054800F093
:1036480043FC03E00249044800F03EFC004808BD82
:10365800FC0E00202C5E00083C5E000808B50A46F7
:103668000249034800F030FC004808BDFC0E002069
:103678004C5E000808B50A460249034800F024FCDD
:10368800004808BDFC0E0020585E000808B5172049
:1036980001F05EFB034620B14FF40001024AC2F874
:1036A8008010184608BD00BF00E100E018B14FF4D3
:1036B8000002014B1A60704700E100E000207047EB
:1036C800002070470020704770B40D4B0D4E1B68EA
:1036D800CA18B2F5805F33680DD261B10A4D014452
:1036E8005A1C10F8014BB2F5805FEC54B4BF134676
:1036F80000238842F4D13360002070BC704700BFBB
:10370800300600202C06002088100020F0B5DFF8D5
:10371800FCE0002965D0BEF8007002463B463A4EF0
:103728004418B3F5007F38BF157802F1010238BF9D
:10373800F554944203F10103F3D1B478F278CB192C
:1037480004EB02229342CEF804302F4D14D0052BFF
:103758001AD0052939D0062B05D0032B3BD0AEF85B
:1037680000300020F0BD3378274A052B3DD0072BC9
:10377800F7D15379072BF4D100220123AEF80020AA
:103788008EF808300020F0BD2A78642AF4D0052984
:10379800E5D10278642AE2D11B4B021D191D814232
:1037A80088BFB2424FF000054FF00104AEF8005058
:1037B8008EF808401DD840EA0302920719D1016823
:1037C800027919601A710020F0BD0278642AE3D0EA
:1037D800062BC2D1C7E73278062AC0D1062CBED143
:1037E800CAE7094EBEF80070A7E75379052BB8D190
:1037F800C2E703783370437873708378B370C37803
:10380800F37003793371ACE7F80C0020FC05002055
:1038180038B5064C237A43B90D4601462A46044872
:10382800FDF71AFD0223E560237238BDFC05002070
:10383800C406002000B54FF4007283B00021094887
:10384800FDF7A8FD042001F091FC074A074B009200
:103858000121074A0748FFF73BFB002003B05DF84A
:1038680004FB00BFF80C00200000002040010020ED
:10387800C800002004070020F0B4144C237A012B60
:1038880020D0022B01D0F0BC7047114BE5681A68B4
:10389800104F2A44B2F5805F3B680ED26DB10E4AD4
:1038A8000E4E1544591C12F8010BB1F5805FF05407
:1038B800B4BF0B460023AA42F4D100223B60227217
:1038C800F0BC704700232372F0BC7047FC05002051
:1038D800300600202C060020C40600208810002096
:1038E80010B5044601F0DCF9044401F0D9F9001BD5
:1038F8000028FADD10BD00BF08B5FFF7F1FF08BDCD
:10390800034A136803F0380318431060704700BF78
:1039180000200240044B1A6822F010021A601A684C
:1039280010431860704700BF00200240704700BF76
:10393800FEE700BF1EF0040F0CBFEFF30880EFF3A3
:1039480009808169004A104739390008FEE700BF3D
:10395800FEE700BFFEE700BFFEE700BF704700BFFD
:10396800704700BF704700BF08B50120FDF7E0FDB4
:1039780020B10120FDF7EEFDFDF7D0FD08BD00BF29
:10398800024A136801331360704700BFF80E002025
:1039980070B5074E074D20243368984721462846BE
:1039A800FFF71AF90128F7D02020FFF70FFE70BDA6
:1039B80038060020000C014008B5094B9B7A4BB132
:1039C800084A136823F006031360FEF7A7FA0448B1
:1039D800FEF71CFA4FF48020FFF7F8FD08BD00BF82
:1039E8000407002010ED00E008B5024800F090FA46
:1039F80008BD00BF0407002090F8CC350B7090F884
:103A0800CD354B7090F8CF2590F8CE3503EB0223D7
:103A18004B8090F8D12590F8D03503EB02238B80AA
:103A280090F8D32590F8D23503EB02239BB2CB80D4
:103A3800C0F84031012380F81131704710B50446B1
:103A4800802101F019F80021204601F015F82046E0
:103A5800FEF7BAF910BD00BF70B582B005460C4636
:103A68004B78092B00F27781DFE813F00E015F0134
:103A78007501250175018C000A007501F300B0007D
:103A88004A88130A013B062B65D8DFE803F00414C3
:103A98002064645C6000D0F8EC351B680DF1060109
:103AA80080789847E388402B03D095F81231012B92
:103AB80055D1082358E0D0F8E4359B6A0DF106018A
:103AC8008078984702234370C5F8F00547E0D2B2E2
:103AD800052A34D8DFE802F0030B131B232BD0F898
:103AE800EC355B680DF106018078984737E0D0F82F
:103AF800EC359B680DF10601807898472FE0D0F8E7
:103B0800EC35DB680DF106018078984727E0D0F89E
:103B1800EC351B690DF10601807898471FE0D0F855
:103B2800EC355B690DF106018078984717E0D0F80D
:103B3800EC359B690DF10601807898470FE0214626
:103B4800FFF77CFF09E12146FFF778FF05E12146F1
:103B5800FFF774FF01E12146FFF770FFFDE0BDF8B4
:103B68000630002B00F0F980E288002A00F0F5808A
:103B78009A4228BF1A46ADF806200146284601F0A9
:103B88003FF8EAE08B88E3B9CB88D3B98E7806F0A2
:103B98007F0690F81231032B02D1FFF74FFFDCE0CC
:103BA80080F81461314600F0A7FF284601F058F864
:103BB8001EB1022385F81231CFE0012385F81231B6
:103BC800CBE021462846FFF739FFC6E08B78644AE8
:103BD8001370012B02D9FFF731FFBEE090F81221D4
:103BE800022A02D0032A10D030E05BB180F81031ED
:103BF800032280F812211946FFF784F9284601F0BC
:103C08002FF8AAE001F02CF8A7E05BB9022380F8AE
:103C18001231002180F81011FFF780F9284601F0D1
:103C28001FF89AE090F810118B420CD0FFF776F944
:103C38004B4B197885F810112846FFF763F9284689
:103C480001F00EF889E001F00BF886E0FFF7F6FEC8
:103C580083E0CB88012B02D0FFF7F0FE7DE090F8DF
:103C68001231022B02D0032B05D00AE001223D4974
:103C780000F0C6FF71E0012200F5887100F0C0FF76
:103C88006BE0FFF7DBFE68E090F81231023B012B96
:103C98000ED80122324B9A60D0F8183113B10322A2
:103CA8002F4B9A6002223049284600F0A9FF54E0C1
:103CB800FFF7C4FE51E04B88012B09D1C0F8183139
:103CC800D0F8E4359B689847284600F0C9FF44E0DF
:103CD800022B42D18B8813F0FF0F3ED10269526844
:103CE8001B0A013B042B17D8DFE803F003070B0F6F
:103CF8001300012363F306120EE0022363F3061296
:103D08000AE0032363F3061206E0042363F30612B2
:103D180002E0052363F30612144B1A60012385F8A9
:103D28001631284600F09CFF17E090F81231023B4C
:103D3800012B0DD84B88012B0FD10023C0F8183167
:103D4800D0F8E4359B689847284600F089FF04E0DE
:103D5800FFF774FE01E0FFF771FE002002B070BDAE
:103D68000C0600201006002014060020480600203B
:103D780038B504460D4690F81231032B0FD10B7954
:103D8800012B09D8D0F8E4359B689847EB8843B9EC
:103D9800204600F065FF04E0FFF750FE01E0FFF762
:103DA8004DFE002038BD00BF38B505460C468A8850
:103DB800D1B26378012B25D0002B46D0032B7CD1C0
:103DC80090F81231022B02D0032B06D016E011F026
:103DD8007F0F72D000F050FE6FE0638823B911F0B6
:103DE8007F0F01D000F048FED5F8E4359B682146E6
:103DF80028469847284600F033FF5EE02146FFF743
:103E08001DFE5AE090F81231022B02D0032B06D087
:103E180017E011F07F0F50D000F02EFE4DE06388C0
:103E2800002B4AD111F07F0F07D000F045FED5F8DE
:103E3800E4359B68214628469847284600F010FF3D
:103E48003BE02146FFF7FAFD37E090F81231022BEC
:103E580002D0032B06D02DE011F07F0F2DD000F0FB
:103E68000BFE2AE012F0800F10D001F07F0101EB69
:103E7800810100EBC10191F81E311BB10122104BE9
:103E8800DA6011E000220E4BDA600DE001EB8101EF
:103E980000EBC10191F876331BB10122084BDA60BF
:103EA80002E00022064BDA6002220649284600F0AA
:103EB800A7FE02E02146FFF7C1FD002038BD00BF84
:103EC8000C0600201806002008B330B40446037816
:103ED8003BB100230133DBB210F8015F002DF9D1AB
:103EE80000E000235B00023313800B7003234B7048
:103EF800207858B1022300255A1CD2B2C854023384
:103F0800DBB28D5414F8010F0028F5D130BC70478E
:103F18002DE9F04F87B00446FDF7A2FC002800F019
:103F280089822046FDF7A4FC0090002800F08482D6
:103F3800C0F3074A1AF0080F59D02046FDF730FFA2
:103F48000546002851D004F15406A0460027DFF8A2
:103F580058B3CDF804A015F0010F3ED05FFA87FAE8
:103F680051462046FDF722FF814610F0010F21D06F
:103F78004FF001093368C3F80890E3784B4508D13E
:103F880033681B69C3F31202D8F87C339B1AC8F84C
:103F98008C33DBF800301B68514620469847E3789D
:103FA800012B07D137B994F81131052B02D12046DE
:103FB800FDF70AFF19F0020F04D04FF00209336829
:103FC800C3F8089019F0080F07D0DBF800309B6899
:103FD80020469847336808229A600137043608F16A
:103FE80028086D08B7D1DDF804A0012000E0002002
:103FF8001AF0040F00F0BF802046FDF7DFFE0746E9
:10400800002800F0B78004F11809A3464FF0000A11
:1040180001230393019417F0010F00F0A1805FFAC8
:104028008AF31846029301990A691469536B0D467D
:1040380005EB800189698968C340DB01DBB2234352
:1040480003EA010414F0010F1FD0536B012101FA98
:104058000AF123EA01035363039CD9F800300122D3
:104068009A60914B1B685B68014628469847EB7835
:10407800012B0AD1BAF1000F07D1019B93F8113136
:10408800042B02D10198FDF79FFE14F0080F03D00E
:104098000824D9F800309C6014F0100F03D01024C5
:1040A800D9F800309C6014F0400F03D04024D9F8B0
:1040B80000309C6014F0020F03D00224D9F80030BD
:1040C8009C6014F0800F4BD05D46DBF83031DBF894
:1040D8003441181BDBF82421C846D9F80010896937
:1040E80089B2824228BF02460332B1EB920F33D91C
:1040F800A34231D983B31C1BD5F824319C4228BF75
:104108001C46E61CB608A3B2029AD5F828110198F5
:10411800FDF75EFAD5F828312344C5F82831D5F8DB
:1041280034311C44C5F83441D5F830319C420BD3A6
:10413800019B19694B6B95F81C21012000FA02F2CA
:1041480023EA02034B6307E0D8F80020926992B291
:10415800964201D2002BCED18024D8F800309C6042
:104168000AF1010A09F104090BF1280B7F087FF411
:1041780052AF019C01209DF8005015F0020F02D0AB
:10418800E36802225A61009B002B19DAA37A43B133
:10419800D4F80C316FF341036FF30003D4F80C210A
:1041A80013602269536823F0010353603E4B1B6878
:1041B8009B6920469847E3684FF000425A61012006
:1041C800009BC3F3072616F0080F31D000238DF8A3
:1041D800173094F812318DF81730334B1B685B6930
:1041E8002046984723699968E3684FF400625A614A
:1041F800A37AE3B111F0010F19D094F81531012B0E
:1042080015D19DF81730DBB2032B10D1D4F80C214F
:10421800136843F001031360D4F80C21136843F0CA
:1042280003031360214A136943F006031361012055
:1042380015F0080F08D01C4B1B68DB682046984710
:10424800E36808225A61012015F0100F47D0E26890
:10425800936923F010039361E3681D6A05F00F0763
:10426800C5F34343022B02D0062B21D031E047F699
:10427800F0732B422DD0C5F30A154FEA870909EBD5
:10428800070804EBC8082A46D8F880132046FDF72B
:10429800B3F9D8F880332B44C8F88033D8F88C3376
:1042A8001D44C8F88C5314E03000002000ED00E0F5
:1042B800082204F2CC512046FDF79EF9BA00D31922
:1042C80004EBC303C5F30A15D3F88C231544C3F8CC
:1042D8008C53E268936943F010039361012016F050
:1042E800100F46D00027BA46B946B8462269536827
:1042F80023F00103536039462046FDF753FA6378EB
:104308007BB104F1140004F150015346FF2250F828
:10431800045FAA6051F8045FAA6001336578AB4274
:10432800F5D323694FF0FF329A61012565F30F0732
:1043380065F31F472369DF614AF00B0A2369C3F855
:1043480014A049F00B092369C3F810902269136877
:104358006FF30A1313602046FDF736FD48F48058C2
:10436800E368C3F81480364B1B681B6920469847DE
:10437800284616F0200F20D02046FDF757FBE368AB
:10438800DD682046FDF742FB032808D10023A3700F
:104398004FF40073A380092363F38D2506E00123FE
:1043A800A3704023A380052363F38D25E368DD60B4
:1043B800E3684FF400525A610120009BC3F307459C
:1043C80015F0100F09D01E4B1B68DB692046984773
:1043D800E3684FF480125A61012015F0200F09D0CC
:1043E800174B1B681B6A20469847E3684FF4001276
:1043F8005A610120009B13F0804F09D0104B1B68B5
:104408005B6A20469847E3684FF080425A61012072
:10441800009B13F0040F10D0E3685D6815F0040FDB
:1044280004D0074B1B689B6A20469847E3685D6089
:10443800012002E0002000E0002007B0BDE8F08F76
:104448003000002008B5074B1868FF2808D0064B35
:104458009B68064A126806499847FF22014B1A6072
:10446800002008BDF8000020E40000201C06002001
:104478008010002043230B8000487047FC00002078
:1044880038B5234B5B68012B03D05A1C204B5A606C
:104498003CE01F4B00225A601B7A012B36D01C4B84
:1044A800D968B1F5805F04D1DA601B692BB1114678
:1044B8000EE0174B1B69994203D10022144B1A7264
:1044C80024E0994204D9C1F58053114A536102E0AE
:1044D8005B1A0F4A53610E4B5B69402B07D98DB2AB
:1044E8000B4A4031D160403B5361402306E08DB216
:1044F8009BB2074A00215161D1601161012404492E
:104508000C72044A2A44812100F094FA002038BD34
:104518001C06002088100020124B1B7A012B05D1A5
:10452800104B5B6923B900220E4B1A7200207047AA
:1045380010B5402B08D90B4CE1688AB24031E160D4
:10454800403B6361402306E006498A899BB2002408
:104558004C61CC600C6104490A44812100F06AFA7C
:10456800002010BD1C0600208810002038B5044625
:1045780001EB810100EBC101074D084B1B69B1F844
:104588008C132846984740232A460121204600F0EC
:1045980023FA002038BD00BF40100020E4000020AE
:1045A80070B506460C460B7813F0600529D0202D0F
:1045B80023D1CA88CAB113F0800F0CD0244D254BE3
:1045C8009B68294660789847E2882946304600F07B
:1045D80017FB00253AE049781F4B19601F4B1A60FA
:1045E8001B4900F025FB002530E01A4B9B68002290
:1045F800114660789847002528E0FFF71FFA022542
:1046080024E04B780A2B13D00B2B16D0062B1DD188
:104618004B881B0A212B05D1CA883A2A28BF3A227F
:104628000F4901E00F493A22304600F0E9FA0DE05F
:1046380001220D4900F0E4FA08E08B7823B9002143
:10464800064A91611D4601E0FFF7F8F9284670BD5A
:1046580080100020E4000020F80000201C06002044
:104668000E010020050100203406002010B5044684
:10467800812100F099F90121204600F095F9822165
:10468800204600F091F9024B5B689847002010BD66
:10469800E400002038B5044602234022812100F0BE
:1046A8004BF9022340220121204600F045F903235B
:1046B80008228221204600F03FF9084B02221A7195
:1046C80000255D71064B1B6898474023054A012168
:1046D800204600F081F9284638BD00BFA40000201C
:1046E800E4000020401000202DE9F84380461746DA
:1046F80081B13D4C4FF400612046FEF773FA4FF448
:1047080080512046FEF770FA4FF00009B8F1000F0B
:1047180017D13EE0012856D192F8009019F003090C
:1047280018BF4FF00109304C4FF400612046FEF7E6
:104738005BFA4FF480512046FEF756FA01E04FF03D
:104748000009013F0026294C012517F8011F2046C2
:1047580000F03CFA2946204600F04CFA0028F9D02F
:10476800204600F035FA01364645EED31E4C4FF48C
:1047780000612046FEF738FA4FF480512046FEF7D4
:1047880031FAB9F1000F2DD00220FFF7A9F8BDE8E2
:10479800F883154C4FF400612046FEF725FA4FF4D4
:1047A80080512046FEF71EFABDE8F8830E4C4FF400
:1047B80000612046FEF718FA4FF480512046FEF7B4
:1047C80011FABDE8F883084C4FF400612046FEF763
:1047D8000BFA4FF480512046FEF706FAB8F1000FA5
:1047E800ADD1E3E7BDE8F883000C01400038004094
:1047F80070B582B0064602AC022304F8013D224699
:1048080000210120FFF770FF01258DF8075022468F
:1048180000212846FFF768FF304601F0EBF93246E1
:104828002946FFF761FF02B070BD00BF40F0BF60CE
:1048380040F40030014BD860704700BF00ED00E045
:10484800C378FBB1154BDA68D243C2F30222C2F136
:104858000401437803FA01F10F23D340827813400F
:104868000B4302781B01DBB20D490A4482F800337E
:104878000378580903F01F03012202FA03F341F8F1
:104888002030704703785A0903F01F03012101FA09
:1048980003F32032024941F82230704700ED00E06E
:1048A80000E100E0F8B50546FCF7BAFE012385F8FB
:1048B8001231002385F814316C7864B32B462A46EC
:1048C800002101270846402682F81D7182F81C1134
:1048D800A2F8221182F81F01C2F82461C2F8280147
:1048E800C2F8300101312832A142EDD1002211462F
:1048F800402083F8751383F87423A3F87A2383F888
:104908007713C3F87C03C3F88013C3F88813013204
:104918002833A242EDD12846FCF73CFF2846FCF795
:10492800E9FE00212846FCF785FF2846FCF7D2FF60
:104938002846FCF727FFF8BDF8B511F0800F16D010
:1049480001F07F04A500291900EBC10101F58E7162
:104958002E1900EBC60686F81C41012786F81D7142
:10496800C6F8242186F81F31A6F8224113E001F089
:104978007F04A600311900EBC10101F55D713519FD
:1049880000EBC50585F87443002785F87573C5F8ED
:104998007C2385F87733022B04BF00230B71FDF7C6
:1049A8005BF80020F8BD00BF08B54AB2002A01F044
:1049B8007F0303EB830300EBC303B4BF03F58E73DC
:1049C80003F55D7301F07F011970D20F5A70194613
:1049D800FDF772F8002008BD38B501F07F04A50086
:1049E800291900EBC10101F55D71254400EBC505EE
:1049F800C5F88023C5F888330023C5F88C3385F8BB
:104A0800753385F87443C378012B05D104EB84030F
:104A180000EBC303C3F8842304EB840400EBC40451
:104A280094F8743313B9FDF7FDF801E0FDF766F863
:104A3800002038BD70B501F07F05AC00611900EBAE
:104A4800C10101F58E712C4400EBC404012684F8E1
:104A58001D6184F81C51C4F82821C4F82C210022B7
:104A6800C4F83421C4F8303115B9FDF7DBF801E09A
:104A7800FDF744F8002070BD10B54AB2002A08DAE4
:104A880001F07F0303EB830300EBC30303F58E738D
:104A980005E001EB810300EBC30303F55D7301241B
:104AA8009C7001F07F011970D20F5A701946FDF7FA
:104AB80047F9002010BD00BF10B54AB2002A08DA35
:104AC80001F07F0303EB830300EBC30303F58E734D
:104AD80005E001EB810300EBC30303F55D730024DC
:104AE8009C7001F07F011970D20F5A701946FDF7BA
:104AF80041F9204610BD00BF10B4002461F30A1428
:104B0800026913682343136010BC704708B5154B3E
:104B180098420AD101214FF48050FEF79FFC0021F2
:104B28004FF48050FEF79AFC08BD0F4B98420AD10B
:104B380001214FF48040FEF79FFC00214FF4804094
:104B4800FEF79AFC08BD094B984209D101214FF4A0
:104B58000040FEF791FC00214FF40040FEF78CFC6A
:104B680008BD00BF0030014000380040003C004054
:104B780010B4038803F441540A884B8813438A8885
:104B88001343CA8813430A8913434A8913438A89FA
:104B98001343CA89134323439BB20380838B23F4B3
:104BA80000631B041B0C83830B8A038210BC7047B1
:104BB80029B103889BB243F0400303807047038800
:104BC80023F040031B041B0C03807047818170474E
:104BD800808980B2704700BF29B183889BB243F0B7
:104BE800040383807047838823F004031B041B0C91
:104BF800838070470389194214BF01200020704741
:104C080010B504461346C4F83C21C4F838210222E2
:104C180080F811210A460021FFF70CFF002010BD83
:104C280008B513460A460021FFF704FF002008BD17
:104C380010B504461346C4F89423C4F890230322FD
:104C480080F811210A460021FFF7C6FE002010BD9A
:104C580008B513460A460021FFF7BEFE002008BD2E
:104C680010B50446042380F8113100231A4619466A
:104C7800FFF7E0FE2046FDF7A7F8002010BD00BFB3
:104C880010B50446052380F8113100231A46194649
:104C9800FFF7A2FE2046FDF797F8002010BD00BFE1
:104CA800014B1868704700BFF80E00200A4B1B68BC
:104CB8000A4AA2FB03239B09013B094A5360094B9B
:104CC800F02183F823100020906007211160502202
:104CD80083F82320704700BF1C000020D34D6210CA
:104CE80010E000E000ED00E030B585B02024ADF81C
:104CF8000C4028238DF80F3003A91448FDF71CFF3A
:104D080005210120FDF7A8FF019400248DF8084033
:104D180008238DF8093001258DF80A5001A8FEF7FF
:104D28000DFC4FF44070FFF781FD17238DF800301C
:104D38000F238DF801308DF802408DF80350684636
:104D4800FFF77EFD204605B030BD00BF000C0140D6
:104D5800034B1B68034214BF01200020704700BFAB
:104D68000004014010B504461720FFF7F1FF40B1D9
:104D7800054B4FF40002C3F8802004490C601A6008
:104D880010BD024B1C6010BD00E100E03806002099
:104D980010B586B0FEF70EFA4FF48030FEF730FA01
:104DA800FEF78CFB00283ED01020FEF7B3FD022052
:104DB800FEF7A6FD0020FEF789FA0020FEF79AFA12
:104DC8004FF48060FEF78CFA4FF40040FEF79CFA2F
:104DD8003020FEF74FFA4FF4C060FEF755FA012075
:104DE800FEF75CFA3B242046FEF754FB0028FAD075
:104DF80002214FF48030FEF731FA4FF4E0114FF4FE
:104E08008030FEF71BFA0120FEF722FA39242046EB
:104E1800FEF740FB0028FAD00220FEF745FAFEF71D
:104E28004DFA0828FBD101A8FEF778FA01214FF4C2
:104E38008050FEF7F7FA01214FF48040FEF700FB9F
:104E480001217D20FEF7EEFA002006B010BD00BF5C
:104E5800044A138823F038031B041B0C18431080E2
:104E6800704700BF0030014008B52020FFF7F0FF71
:104E780008BD00BF08B50820FFF7EAFF08BD00BF5E
:104E88002DE9F04186B02A4F3846FFF73FFE00244F
:104E9800ADF804404FF48273ADF80630ADF8084021
:104EA800ADF80A40ADF80C404FF40073ADF80E3081
:104EB8001026ADF81060ADF812400723ADF8143095
:104EC80001A93846FFF754FEA023ADF80030182397
:104ED8008DF803304FF003088DF80280154D6946B0
:104EE8002846FDF729FE4023ADF8003048238DF809
:104EF800033069462846FDF71FFEADF800608DF8BF
:104F080003608DF8028069462846FDF715FE2146A4
:104F18003846FFF761FE01213846FFF749FE314662
:104F28002846FDF75FFE204606B0BDE8F08100BFC9
:104F380000300140000801402DE9F04786B03A4FA3
:104F48003846FFF7E3FD0025ADF804504FF48273AF
:104F5800ADF80630ADF808500223ADF80A304FF02E
:104F6800010AADF80CA04FF40073ADF80E303023F1
:104F7800ADF81030ADF812500723ADF8143001A980
:104F88003846FFF7F5FD4FF42043ADF800301823FD
:104F98008DF8033003268DF80260244C69462046BC
:104FA800FDF7CAFD4FF48043ADF8003048238DF873
:104FB800033069462046FDF7BFFD4FF48059ADF830
:104FC80000904FF010088DF803808DF80260694654
:104FD8002046FDF7B1FD29463846FFF7FDFD51464D
:104FE8003846FFF7E5FD49462046FDF7FBFD4FF43F
:104FF8000063ADF800308DF803808DF802606946D3
:105008002046FDF799FD4FF48063ADF800308DF828
:1050180003808DF8026069462046FDF78DFD28461D
:1050280006B0BDE8F08700BF00380040000C014022
:10503800F0B583B001217D20FEF7F4F94FF6FF7338
:10504800ADF8043000268DF8076001A92348FDF764
:1050580073FD234F01A93846FDF76EFD214C01A9C8
:105068002046FDF769FD01A91F48FDF765FD01A967
:105078001E48FDF761FD0425ADF804508DF8075072
:105088000DEB05013846FDF757FD3F27ADF80470D5
:105098008DF807500DEB05012046FDF74DFDADF8E5
:1050A80004708DF807500DEB05012046FDF744FD0F
:1050B8004FF47073ADF8043010238DF807300323D4
:1050C8008DF806300DEB05012046FDF735FD31461C
:1050D8000120FDF78BFD304603B0F0BD000801400C
:1050E800000C01400010014000140140001801406C
:1050F80070B582B00125ADF8045010238DF8073043
:1051080003268DF806600C4C01A92046FDF714FD16
:1051180029462046FDF768FDADF8045000238DF8B8
:1051280007308DF8066001A92046FDF705FD02202D
:10513800FEF7D6FB02B070BD0008014008B5042197
:105148000348FDF749FDB0FA80F0400908BD00BFEB
:10515800000C014008B501460348FDF73DFDB0FAD3
:1051680080F0400908BD00BF0010014008B50428C0
:105178001FD8DFE800F003080D13190040210D487F
:10518800FDF732FD08BD80210A48FDF72DFD08BD59
:105198004FF480710748FDF727FD08BD4FF40071F3
:1051A8000448FDF721FD08BD4FF470710148FDF773
:1051B8001BFD08BD0010014008B504281FD8DFE812
:1051C80000F003080D13190040210D48FDF70AFDF2
:1051D80008BD80210A48FDF705FD08BD4FF4807120
:1051E8000748FDF7FFFC08BD4FF400710448FDF7C0
:1051F800F9FC08BD4FF470710148FDF7F3FC08BDD8
:105208000010014030B585B0FFF7C2FDFFF710FF71
:10521800FFF76AFDFFF74AFDFFF732FEFFF78CFE46
:10522800184C4FF400612046FDF7DEFC4FF4806116
:105238002046FDF7D9FC0A20FEF752FB124A01ABC3
:105248001068516803C3127A1A7000248DF803405D
:1052580001AA21460920FFF747FA0A20FEF740FB7A
:1052680004AD022305F80D3D2A4621460120FFF72B
:105278003BFA01208DF803002A462146FFF734FA4D
:1052880005B030BD000C01402C5D00082DE9F84345
:1052980055783224194F04FB017464780134E4B260
:1052A800A54227D11E460C46054602EB8102D2F8DC
:1052B8000230362202FB0472D2F80200181A0021CA
:1052C800FBF73EF9804689460D4901EBC401D6E952
:1052D8000023D1E90001101A0021FBF731F9024639
:1052E8000B4640464946FBF78BFAC5E90001012009
:1052F800BDE8F8830020BDE8F88300BF88200020BF
:10530800602200200020FDF7E9B900BF0020FDF76A
:10531800E5B900BF000000002DE9F84F5E78914222
:105328004FF032043C4D04FB015494F801E028BFCF
:1053380006F1FF36B64514BF00260126002E5ED0C2
:1053480001F1100603EB46067688B4B2002C51D062
:1053580003EB8104D4F80240A246002C4CD01C4632
:1053680015468B4607462D4B03EBC203D3E900894C
:105378000022002340464946FBF780FB00283DD128
:10538800274901EBCB010A9BD3E90023D1E90001AE
:10539800101A0021FBF7D4F842464B46FBF706F9F2
:1053A8008046894604EB8504D4F80200CAEB000065
:1053B800B2B20023141843F1000520462946FBF732
:1053C800C7F802460B4640464946FAF73BFFFBF74B
:1053D800E7FEFBF7BDF80CA3D3E90023FBF7E6F8DB
:1053E8000BA3D3E90023FBF70BFAFBF779FB386033
:1053F800012604E0002602E0002600E000263046F0
:10540800BDE8F88FAFF300800000001319DDB1414B
:105418000000000030C12D42882000201822002002
:105428006022002010B50C46114B124A1249002088
:10543800FDF73AF801211148FDF7ACF90020FCF717
:10544800B5FE0020FCF7BAFE0120FDF713F842F282
:105458001070FDF777F90023094A13706178094A3B
:1054680011702178084A1170084A137010BD00BFE6
:10547800155300080D530008DD56000880D023049A
:1054880058220020AA060020A9060020A80600200D
:105498002DE9F043062183B006461220FCF748FEAA
:1054A80004220446002101AB1020FCF7F5FD9DF80D
:1054B80007309DF806001B0143EA1010FBF716FCA5
:1054C80007462046FBF712FC4FF09041FBF766FCBD
:1054D800DFF8F091054699F800303946012B384637
:1054E8000BBF6D4C6D4CDFF8E081DFF8E081FBF716
:1054F80055FC01462846FBF705FD00F065F96849AB
:10550800FBF74CFC2146FBF73FFB66490446FBF7DB
:10551800EDFD00285AD164492046FBF737FB414688
:10552800FBF73CFC01462046FBF730FB5F49FBF7E5
:105538002DFB4FF07C5100F10040FBF72FFC20F0D1
:10554800004405465A492046FBF7EEFD00283AD1AB
:1055580020465749FBF7DEFD0446002833D128468C
:10556800FBF7F8FD071E58DB7C1C112C50DCFBF701
:10557800C1FB80464F4B1B78042B29D0072B27D023
:1055880099F80030012B63D0022B4AD0002427461B
:1055980041462846FBF7F8FA2146FBF7FFFB394658
:1055A800FBF7F4FA4449FBF7F9FB4449FBF7F6FB30
:1055B800FBF7D0FDD6E90023141843EBE075294624
:1055C8002046C6E9000103B0BDE8F0832046ADE7F8
:1055D80099F80030012B51D0022BD7D1384B062C2B
:1055E8001C4494F81490D8BFC9F10009062F1F4431
:1055F8004FEA49093C7D00DC644264002046FBF721
:1056080079FB0746C4EB0900FBF774FB0446BFE7C8
:1056180011242746DFF8B880ACE74FF0000827468A
:10562800A8E7274B072C1C4494F83C40D8BF644299
:10563800072F1F4497F83C9016DCC9F10000FBF7D0
:1056480059FB074604EB0900FBF754FB04469FE7A8
:105658001B4B092C1C4494F82840D8BF6442092FDE
:105668001F4497F82890E8DD4846FBF743FB0746B8
:10567800C9EB0400FBF73EFB044689E7104B062CF8
:1056880013F80490DC5DD8BFC9F10009062F4FEA72
:105698004909B2DCB0E700BFA470E742E17AF342FF
:1056A800000020410000B0C20000B0420000744277
:1056B800FFFF7F7FA9060020B32355436F12833A6B
:1056C800385D0008AA0600206D5615406D56953FB6
:1056D800000088412DE9F04105469CB000221CAC31
:1056E8000023324F64E918233B68204601333B60AE
:1056F800FCF7FCFC2046FFF7CBFEA988002206A891
:10570800FCF7EAFC9DF82550072D05D90020FCF789
:10571800E5FF1CB0BDE8F08125484FEAC508254ED5
:10572800294640440DF12D022346FFF7AFFD31789D
:105738008D4216D000231CA800942A4640F8643DE8
:105748000DF12D03FFF7E8FD58B17A681A4B03995C
:1057580001327A603078194A596001215D701870F9
:105768001170174A174C9044322202FB0542DDE9BA
:1057780004010DF12D03C8E900010DF15D01186860
:105788005F689C681060D86810338B4257609460DB
:10579800D06002F11002F2D11B880020357013800E
:1057A800FCF79CFF1CB0BDE8F08100BF3C06002060
:1057B8001822002058220020A0060020A806002059
:1057C8006022002088200020F0B58BB0044600F04D
:1057D8006FF8324B054693F90060731C0AD02146D6
:1057E8002046FBF7A1FC074620B900212046FBF71D
:1057F8007DFC10B928460BB0F0BD294B2046089710
:105808000193FAF77FFECDE90401CDE90201C6B99B
:10581800244B4FF0604220460021CDE90623FBF7D8
:1058280051FC002832D002230093684600F092F819
:10583800A0B1089BBBB9DDE90601FBF751F90BB034
:10584800F0BD194B002220460021CDE90623FBF7C5
:1058580039FC68B102239E420093E6D100F0C4F9F6
:1058680022230360E5E700F0BFF9089B0360E2E745
:105878000123022E00930BD100F0B6F92123036017
:105888000A4800F069F8CDE90601D2E70123009340
:10589800684600F05FF80028F2D1EDE79C0500208B
:1058A800685E0008FFFFEFC70000F0FFA85D000872
:1058B80020F0004270B5002A32D000280146034685
:1058C8003CDBB0F1FF4F28DAB0F5000F2EDB0022E9
:1058D800D8157F381044C50F2844C3F31604FBF7C6
:1058E80009FA0646C5F17F0044EAC05000F03AF8CC
:1058F800154905463046FBF751FA1449044628462F
:10590800FBF74CFA01462046FBF740F910490446DC
:105918003046FBF743FA01462046FBF737F970BDDE
:1059280000214FF04C40FBF7EDFA70BD4FF0984165
:10593800FBF734FA6FF018020346C9E7FBF724F9BE
:105948000021FBF7DFFA70BDDB275435D95BDE3E5B
:1059580080209A3E0020704700200149704700BF10
:105968000000F87F20F000422DE9F0476AB30028D4
:10597800014603464ADBB0F1FF4F3BDAB0F5000FB2
:105988003CDB00248C4AC3F316052A4402F40002C7
:10599800DB1582F07E507F3B234428434FF07E5135
:1059A80003EBD254FBF7F0F805F10F03C3F316032A
:1059B8000F2B064631DC0021FBF784FB002800F0A2
:1059C80092804CB90020BDE8F08700214FF04C4090
:1059D800FBF798FABDE8F0872046FBF78BF9774983
:1059E8000546FBF7DBF9764904462846FBF7D6F966
:1059F80001462046FBF7CAF8BDE8F0874FF098410A
:105A0800FBF7CCF96FF018040346BBE7FBF7BCF8CB
:105A18000021FBF777FABDE8F0874FF08041FBF7EC
:105A2800B5F801463046FBF76DFA80462046FBF78D
:105A380061F9414681464046FBF7B0F90146824686
:105A4800FBF7ACF907465F49FBF7A8F95E49FBF796
:105A58009DF83946FBF7A2F95C49FBF797F83946F8
:105A6800FBF79CF95A49FBF791F85146FBF796F971
:105A7800584982463846FBF791F95749FBF786F8AB
:105A88003946FBF78BF95549FBF780F83946FBF7A0
:105A980085F901465046FBF779F8514FC5F557137C
:105AA8002F4403F522731F43002F824665DD4FF014
:105AB8007C513046FBF772F93146FBF76FF9054622
:105AC800002C32D129465046FBF760F84146FBF7D7
